{
	"contracts/SimpleDEX.sol": {
		"SimpleDEX": {
			"abi": [
				{
					"inputs": [
						{
							"internalType": "address",
							"name": "_tokenA",
							"type": "address"
						},
						{
							"internalType": "address",
							"name": "_tokenB",
							"type": "address"
						}
					],
					"stateMutability": "nonpayable",
					"type": "constructor"
				},
				{
					"inputs": [
						{
							"internalType": "address",
							"name": "owner",
							"type": "address"
						}
					],
					"name": "OwnableInvalidOwner",
					"type": "error"
				},
				{
					"inputs": [
						{
							"internalType": "address",
							"name": "account",
							"type": "address"
						}
					],
					"name": "OwnableUnauthorizedAccount",
					"type": "error"
				},
				{
					"inputs": [],
					"name": "ReentrancyGuardReentrantCall",
					"type": "error"
				},
				{
					"anonymous": false,
					"inputs": [
						{
							"indexed": false,
							"internalType": "uint256",
							"name": "amountA",
							"type": "uint256"
						},
						{
							"indexed": false,
							"internalType": "uint256",
							"name": "amountB",
							"type": "uint256"
						}
					],
					"name": "LiquidityAdded",
					"type": "event"
				},
				{
					"anonymous": false,
					"inputs": [
						{
							"indexed": false,
							"internalType": "uint256",
							"name": "amountA",
							"type": "uint256"
						},
						{
							"indexed": false,
							"internalType": "uint256",
							"name": "amountB",
							"type": "uint256"
						}
					],
					"name": "LiquidityRemoved",
					"type": "event"
				},
				{
					"anonymous": false,
					"inputs": [
						{
							"indexed": true,
							"internalType": "address",
							"name": "previousOwner",
							"type": "address"
						},
						{
							"indexed": true,
							"internalType": "address",
							"name": "newOwner",
							"type": "address"
						}
					],
					"name": "OwnershipTransferred",
					"type": "event"
				},
				{
					"anonymous": false,
					"inputs": [
						{
							"indexed": true,
							"internalType": "address",
							"name": "token",
							"type": "address"
						},
						{
							"indexed": false,
							"internalType": "uint256",
							"name": "price",
							"type": "uint256"
						}
					],
					"name": "PriceUpdated",
					"type": "event"
				},
				{
					"anonymous": false,
					"inputs": [
						{
							"indexed": true,
							"internalType": "address",
							"name": "user",
							"type": "address"
						},
						{
							"indexed": false,
							"internalType": "address",
							"name": "tokenIn",
							"type": "address"
						},
						{
							"indexed": false,
							"internalType": "address",
							"name": "tokenOut",
							"type": "address"
						},
						{
							"indexed": false,
							"internalType": "uint256",
							"name": "amountIn",
							"type": "uint256"
						},
						{
							"indexed": false,
							"internalType": "uint256",
							"name": "amountOut",
							"type": "uint256"
						}
					],
					"name": "TokensSwapped",
					"type": "event"
				},
				{
					"inputs": [
						{
							"internalType": "uint256",
							"name": "amountA",
							"type": "uint256"
						},
						{
							"internalType": "uint256",
							"name": "amountB",
							"type": "uint256"
						}
					],
					"name": "addLiquidity",
					"outputs": [],
					"stateMutability": "nonpayable",
					"type": "function"
				},
				{
					"inputs": [
						{
							"internalType": "uint256",
							"name": "amountIn",
							"type": "uint256"
						},
						{
							"internalType": "address",
							"name": "tokenIn",
							"type": "address"
						}
					],
					"name": "getAmountOut",
					"outputs": [
						{
							"internalType": "uint256",
							"name": "",
							"type": "uint256"
						}
					],
					"stateMutability": "view",
					"type": "function"
				},
				{
					"inputs": [
						{
							"internalType": "address",
							"name": "_token",
							"type": "address"
						}
					],
					"name": "getPrice",
					"outputs": [
						{
							"internalType": "uint256",
							"name": "",
							"type": "uint256"
						}
					],
					"stateMutability": "view",
					"type": "function"
				},
				{
					"inputs": [],
					"name": "getReserves",
					"outputs": [
						{
							"internalType": "uint256",
							"name": "",
							"type": "uint256"
						},
						{
							"internalType": "uint256",
							"name": "",
							"type": "uint256"
						}
					],
					"stateMutability": "view",
					"type": "function"
				},
				{
					"inputs": [],
					"name": "owner",
					"outputs": [
						{
							"internalType": "address",
							"name": "",
							"type": "address"
						}
					],
					"stateMutability": "view",
					"type": "function"
				},
				{
					"inputs": [
						{
							"internalType": "uint256",
							"name": "amountA",
							"type": "uint256"
						},
						{
							"internalType": "uint256",
							"name": "amountB",
							"type": "uint256"
						}
					],
					"name": "removeLiquidity",
					"outputs": [],
					"stateMutability": "nonpayable",
					"type": "function"
				},
				{
					"inputs": [],
					"name": "renounceOwnership",
					"outputs": [],
					"stateMutability": "nonpayable",
					"type": "function"
				},
				{
					"inputs": [],
					"name": "reserveA",
					"outputs": [
						{
							"internalType": "uint256",
							"name": "",
							"type": "uint256"
						}
					],
					"stateMutability": "view",
					"type": "function"
				},
				{
					"inputs": [],
					"name": "reserveB",
					"outputs": [
						{
							"internalType": "uint256",
							"name": "",
							"type": "uint256"
						}
					],
					"stateMutability": "view",
					"type": "function"
				},
				{
					"inputs": [
						{
							"internalType": "uint256",
							"name": "amountAIn",
							"type": "uint256"
						}
					],
					"name": "swapAforB",
					"outputs": [],
					"stateMutability": "nonpayable",
					"type": "function"
				},
				{
					"inputs": [
						{
							"internalType": "uint256",
							"name": "amountBIn",
							"type": "uint256"
						}
					],
					"name": "swapBforA",
					"outputs": [],
					"stateMutability": "nonpayable",
					"type": "function"
				},
				{
					"inputs": [],
					"name": "tokenA",
					"outputs": [
						{
							"internalType": "contract IERC20",
							"name": "",
							"type": "address"
						}
					],
					"stateMutability": "view",
					"type": "function"
				},
				{
					"inputs": [],
					"name": "tokenB",
					"outputs": [
						{
							"internalType": "contract IERC20",
							"name": "",
							"type": "address"
						}
					],
					"stateMutability": "view",
					"type": "function"
				},
				{
					"inputs": [
						{
							"internalType": "address",
							"name": "newOwner",
							"type": "address"
						}
					],
					"name": "transferOwnership",
					"outputs": [],
					"stateMutability": "nonpayable",
					"type": "function"
				}
			],
			"devdoc": {
				"errors": {
					"OwnableInvalidOwner(address)": [
						{
							"details": "The owner is not a valid owner account. (eg. `address(0)`)"
						}
					],
					"OwnableUnauthorizedAccount(address)": [
						{
							"details": "The caller account is not authorized to perform an operation."
						}
					],
					"ReentrancyGuardReentrantCall()": [
						{
							"details": "Unauthorized reentrant call."
						}
					]
				},
				"kind": "dev",
				"methods": {
					"owner()": {
						"details": "Returns the address of the current owner."
					},
					"renounceOwnership()": {
						"details": "Leaves the contract without owner. It will not be possible to call `onlyOwner` functions. Can only be called by the current owner. NOTE: Renouncing ownership will leave the contract without an owner, thereby disabling any functionality that is only available to the owner."
					},
					"transferOwnership(address)": {
						"details": "Transfers ownership of the contract to a new account (`newOwner`). Can only be called by the current owner."
					}
				},
				"version": 1
			},
			"evm": {
				"assembly": "    /* \"contracts/SimpleDEX.sol\":236:5057  contract SimpleDEX is Ownable, ReentrancyGuard {... */\n  mstore(0x40, 0x80)\n    /* \"contracts/SimpleDEX.sol\":744:888  constructor(address _tokenA, address _tokenB) Ownable(msg.sender) {... */\n  callvalue\n  dup1\n  iszero\n  tag_1\n  jumpi\n  revert(0x00, 0x00)\ntag_1:\n  pop\n  mload(0x40)\n  sub(codesize, bytecodeSize)\n  dup1\n  bytecodeSize\n  dup4\n  codecopy\n  dup2\n  dup2\n  add\n  0x40\n  mstore\n  dup2\n  add\n  swap1\n  tag_2\n  swap2\n  swap1\n  tag_3\n  jump\t// in\ntag_2:\n    /* \"contracts/SimpleDEX.sol\":798:808  msg.sender */\n  caller\n    /* \"@openzeppelin/contracts/access/Ownable.sol\":1297:1298  0 */\n  0x00\n    /* \"@openzeppelin/contracts/access/Ownable.sol\":1273:1299  initialOwner == address(0) */\n  0xffffffffffffffffffffffffffffffffffffffff\n  and\n    /* \"@openzeppelin/contracts/access/Ownable.sol\":1273:1285  initialOwner */\n  dup2\n    /* \"@openzeppelin/contracts/access/Ownable.sol\":1273:1299  initialOwner == address(0) */\n  0xffffffffffffffffffffffffffffffffffffffff\n  and\n  sub\n    /* \"@openzeppelin/contracts/access/Ownable.sol\":1269:1364  if (initialOwner == address(0)) {... */\n  tag_8\n  jumpi\n    /* \"@openzeppelin/contracts/access/Ownable.sol\":1350:1351  0 */\n  0x00\n    /* \"@openzeppelin/contracts/access/Ownable.sol\":1322:1353  OwnableInvalidOwner(address(0)) */\n  mload(0x40)\n  0x1e4fbdf700000000000000000000000000000000000000000000000000000000\n  dup2\n  mstore\n  0x04\n  add\n  tag_9\n  swap2\n  swap1\n  tag_10\n  jump\t// in\ntag_9:\n  mload(0x40)\n  dup1\n  swap2\n  sub\n  swap1\n  revert\n    /* \"@openzeppelin/contracts/access/Ownable.sol\":1269:1364  if (initialOwner == address(0)) {... */\ntag_8:\n    /* \"@openzeppelin/contracts/access/Ownable.sol\":1373:1405  _transferOwnership(initialOwner) */\n  tag_11\n    /* \"@openzeppelin/contracts/access/Ownable.sol\":1392:1404  initialOwner */\n  dup2\n    /* \"@openzeppelin/contracts/access/Ownable.sol\":1373:1391  _transferOwnership */\n  shl(0x20, tag_12)\n    /* \"@openzeppelin/contracts/access/Ownable.sol\":1373:1405  _transferOwnership(initialOwner) */\n  0x20\n  shr\n  jump\t// in\ntag_11:\n    /* \"@openzeppelin/contracts/access/Ownable.sol\":1225:1412  constructor(address initialOwner) {... */\n  pop\n    /* \"@openzeppelin/contracts/utils/ReentrancyGuard.sol\":1857:1858  1 */\n  0x01\n    /* \"@openzeppelin/contracts/utils/ReentrancyGuard.sol\":2061:2068  _status */\n  dup1\n    /* \"@openzeppelin/contracts/utils/ReentrancyGuard.sol\":2061:2082  _status = NOT_ENTERED */\n  dup2\n  swap1\n  sstore\n  pop\n    /* \"contracts/SimpleDEX.sol\":837:844  _tokenA */\n  dup2\n    /* \"contracts/SimpleDEX.sol\":821:827  tokenA */\n  0x02\n  0x00\n    /* \"contracts/SimpleDEX.sol\":821:845  tokenA = IERC20(_tokenA) */\n  0x0100\n  exp\n  dup2\n  sload\n  dup2\n  0xffffffffffffffffffffffffffffffffffffffff\n  mul\n  not\n  and\n  swap1\n  dup4\n  0xffffffffffffffffffffffffffffffffffffffff\n  and\n  mul\n  or\n  swap1\n  sstore\n  pop\n    /* \"contracts/SimpleDEX.sol\":872:879  _tokenB */\n  dup1\n    /* \"contracts/SimpleDEX.sol\":856:862  tokenB */\n  0x03\n  0x00\n    /* \"contracts/SimpleDEX.sol\":856:880  tokenB = IERC20(_tokenB) */\n  0x0100\n  exp\n  dup2\n  sload\n  dup2\n  0xffffffffffffffffffffffffffffffffffffffff\n  mul\n  not\n  and\n  swap1\n  dup4\n  0xffffffffffffffffffffffffffffffffffffffff\n  and\n  mul\n  or\n  swap1\n  sstore\n  pop\n    /* \"contracts/SimpleDEX.sol\":744:888  constructor(address _tokenA, address _tokenB) Ownable(msg.sender) {... */\n  pop\n  pop\n    /* \"contracts/SimpleDEX.sol\":236:5057  contract SimpleDEX is Ownable, ReentrancyGuard {... */\n  jump(tag_15)\n    /* \"@openzeppelin/contracts/access/Ownable.sol\":2912:3099  function _transferOwnership(address newOwner) internal virtual {... */\ntag_12:\n    /* \"@openzeppelin/contracts/access/Ownable.sol\":2985:3001  address oldOwner */\n  0x00\n    /* \"@openzeppelin/contracts/access/Ownable.sol\":3004:3010  _owner */\n  0x00\n  0x00\n  swap1\n  sload\n  swap1\n  0x0100\n  exp\n  swap1\n  div\n  0xffffffffffffffffffffffffffffffffffffffff\n  and\n    /* \"@openzeppelin/contracts/access/Ownable.sol\":2985:3010  address oldOwner = _owner */\n  swap1\n  pop\n    /* \"@openzeppelin/contracts/access/Ownable.sol\":3029:3037  newOwner */\n  dup2\n    /* \"@openzeppelin/contracts/access/Ownable.sol\":3020:3026  _owner */\n  0x00\n  0x00\n    /* \"@openzeppelin/contracts/access/Ownable.sol\":3020:3037  _owner = newOwner */\n  0x0100\n  exp\n  dup2\n  sload\n  dup2\n  0xffffffffffffffffffffffffffffffffffffffff\n  mul\n  not\n  and\n  swap1\n  dup4\n  0xffffffffffffffffffffffffffffffffffffffff\n  and\n  mul\n  or\n  swap1\n  sstore\n  pop\n    /* \"@openzeppelin/contracts/access/Ownable.sol\":3083:3091  newOwner */\n  dup2\n    /* \"@openzeppelin/contracts/access/Ownable.sol\":3052:3092  OwnershipTransferred(oldOwner, newOwner) */\n  0xffffffffffffffffffffffffffffffffffffffff\n  and\n    /* \"@openzeppelin/contracts/access/Ownable.sol\":3073:3081  oldOwner */\n  dup2\n    /* \"@openzeppelin/contracts/access/Ownable.sol\":3052:3092  OwnershipTransferred(oldOwner, newOwner) */\n  0xffffffffffffffffffffffffffffffffffffffff\n  and\n  0x8be0079c531659141344cd1fd0a4f28419497f9722a3daafe3b4186f6b6457e0\n  mload(0x40)\n  mload(0x40)\n  dup1\n  swap2\n  sub\n  swap1\n  log3\n    /* \"@openzeppelin/contracts/access/Ownable.sol\":2975:3099  {... */\n  pop\n    /* \"@openzeppelin/contracts/access/Ownable.sol\":2912:3099  function _transferOwnership(address newOwner) internal virtual {... */\n  pop\n  jump\t// out\n    /* \"#utility.yul\":88:205   */\ntag_18:\n    /* \"#utility.yul\":197:198   */\n  0x00\n    /* \"#utility.yul\":194:195   */\n  0x00\n    /* \"#utility.yul\":187:199   */\n  revert\n    /* \"#utility.yul\":334:460   */\ntag_20:\n    /* \"#utility.yul\":371:378   */\n  0x00\n    /* \"#utility.yul\":411:453   */\n  0xffffffffffffffffffffffffffffffffffffffff\n    /* \"#utility.yul\":404:409   */\n  dup3\n    /* \"#utility.yul\":400:454   */\n  and\n    /* \"#utility.yul\":389:454   */\n  swap1\n  pop\n    /* \"#utility.yul\":334:460   */\n  swap2\n  swap1\n  pop\n  jump\t// out\n    /* \"#utility.yul\":466:562   */\ntag_21:\n    /* \"#utility.yul\":503:510   */\n  0x00\n    /* \"#utility.yul\":532:556   */\n  tag_31\n    /* \"#utility.yul\":550:555   */\n  dup3\n    /* \"#utility.yul\":532:556   */\n  tag_20\n  jump\t// in\ntag_31:\n    /* \"#utility.yul\":521:556   */\n  swap1\n  pop\n    /* \"#utility.yul\":466:562   */\n  swap2\n  swap1\n  pop\n  jump\t// out\n    /* \"#utility.yul\":568:690   */\ntag_22:\n    /* \"#utility.yul\":641:665   */\n  tag_33\n    /* \"#utility.yul\":659:664   */\n  dup2\n    /* \"#utility.yul\":641:665   */\n  tag_21\n  jump\t// in\ntag_33:\n    /* \"#utility.yul\":634:639   */\n  dup2\n    /* \"#utility.yul\":631:666   */\n  eq\n    /* \"#utility.yul\":621:684   */\n  tag_34\n  jumpi\n    /* \"#utility.yul\":680:681   */\n  0x00\n    /* \"#utility.yul\":677:678   */\n  0x00\n    /* \"#utility.yul\":670:682   */\n  revert\n    /* \"#utility.yul\":621:684   */\ntag_34:\n    /* \"#utility.yul\":568:690   */\n  pop\n  jump\t// out\n    /* \"#utility.yul\":696:839   */\ntag_23:\n    /* \"#utility.yul\":753:758   */\n  0x00\n    /* \"#utility.yul\":784:790   */\n  dup2\n    /* \"#utility.yul\":778:791   */\n  mload\n    /* \"#utility.yul\":769:791   */\n  swap1\n  pop\n    /* \"#utility.yul\":800:833   */\n  tag_36\n    /* \"#utility.yul\":827:832   */\n  dup2\n    /* \"#utility.yul\":800:833   */\n  tag_22\n  jump\t// in\ntag_36:\n    /* \"#utility.yul\":696:839   */\n  swap3\n  swap2\n  pop\n  pop\n  jump\t// out\n    /* \"#utility.yul\":845:1352   */\ntag_3:\n    /* \"#utility.yul\":924:930   */\n  0x00\n    /* \"#utility.yul\":932:938   */\n  0x00\n    /* \"#utility.yul\":981:983   */\n  0x40\n    /* \"#utility.yul\":969:978   */\n  dup4\n    /* \"#utility.yul\":960:967   */\n  dup6\n    /* \"#utility.yul\":956:979   */\n  sub\n    /* \"#utility.yul\":952:984   */\n  slt\n    /* \"#utility.yul\":949:1068   */\n  iszero\n  tag_38\n  jumpi\n    /* \"#utility.yul\":987:1066   */\n  tag_39\n  tag_18\n  jump\t// in\ntag_39:\n    /* \"#utility.yul\":949:1068   */\ntag_38:\n    /* \"#utility.yul\":1107:1108   */\n  0x00\n    /* \"#utility.yul\":1132:1196   */\n  tag_40\n    /* \"#utility.yul\":1188:1195   */\n  dup6\n    /* \"#utility.yul\":1179:1185   */\n  dup3\n    /* \"#utility.yul\":1168:1177   */\n  dup7\n    /* \"#utility.yul\":1164:1186   */\n  add\n    /* \"#utility.yul\":1132:1196   */\n  tag_23\n  jump\t// in\ntag_40:\n    /* \"#utility.yul\":1122:1196   */\n  swap3\n  pop\n    /* \"#utility.yul\":1078:1206   */\n  pop\n    /* \"#utility.yul\":1245:1247   */\n  0x20\n    /* \"#utility.yul\":1271:1335   */\n  tag_41\n    /* \"#utility.yul\":1327:1334   */\n  dup6\n    /* \"#utility.yul\":1318:1324   */\n  dup3\n    /* \"#utility.yul\":1307:1316   */\n  dup7\n    /* \"#utility.yul\":1303:1325   */\n  add\n    /* \"#utility.yul\":1271:1335   */\n  tag_23\n  jump\t// in\ntag_41:\n    /* \"#utility.yul\":1261:1335   */\n  swap2\n  pop\n    /* \"#utility.yul\":1216:1345   */\n  pop\n    /* \"#utility.yul\":845:1352   */\n  swap3\n  pop\n  swap3\n  swap1\n  pop\n  jump\t// out\n    /* \"#utility.yul\":1358:1476   */\ntag_24:\n    /* \"#utility.yul\":1445:1469   */\n  tag_43\n    /* \"#utility.yul\":1463:1468   */\n  dup2\n    /* \"#utility.yul\":1445:1469   */\n  tag_21\n  jump\t// in\ntag_43:\n    /* \"#utility.yul\":1440:1443   */\n  dup3\n    /* \"#utility.yul\":1433:1470   */\n  mstore\n    /* \"#utility.yul\":1358:1476   */\n  pop\n  pop\n  jump\t// out\n    /* \"#utility.yul\":1482:1704   */\ntag_10:\n    /* \"#utility.yul\":1575:1579   */\n  0x00\n    /* \"#utility.yul\":1613:1615   */\n  0x20\n    /* \"#utility.yul\":1602:1611   */\n  dup3\n    /* \"#utility.yul\":1598:1616   */\n  add\n    /* \"#utility.yul\":1590:1616   */\n  swap1\n  pop\n    /* \"#utility.yul\":1626:1697   */\n  tag_45\n    /* \"#utility.yul\":1694:1695   */\n  0x00\n    /* \"#utility.yul\":1683:1692   */\n  dup4\n    /* \"#utility.yul\":1679:1696   */\n  add\n    /* \"#utility.yul\":1670:1676   */\n  dup5\n    /* \"#utility.yul\":1626:1697   */\n  tag_24\n  jump\t// in\ntag_45:\n    /* \"#utility.yul\":1482:1704   */\n  swap3\n  swap2\n  pop\n  pop\n  jump\t// out\n    /* \"contracts/SimpleDEX.sol\":236:5057  contract SimpleDEX is Ownable, ReentrancyGuard {... */\ntag_15:\n  dataSize(sub_0)\n  dup1\n  dataOffset(sub_0)\n  0x00\n  codecopy\n  0x00\n  return\nstop\n\nsub_0: assembly {\n        /* \"contracts/SimpleDEX.sol\":236:5057  contract SimpleDEX is Ownable, ReentrancyGuard {... */\n      mstore(0x40, 0x80)\n      callvalue\n      dup1\n      iszero\n      tag_1\n      jumpi\n      revert(0x00, 0x00)\n    tag_1:\n      pop\n      jumpi(tag_2, lt(calldatasize, 0x04))\n      shr(0xe0, calldataload(0x00))\n      dup1\n      0x8da5cb5b\n      gt\n      tag_17\n      jumpi\n      dup1\n      0xdc5fa6c5\n      gt\n      tag_18\n      jumpi\n      dup1\n      0xdc5fa6c5\n      eq\n      tag_13\n      jumpi\n      dup1\n      0xe4f1f70a\n      eq\n      tag_14\n      jumpi\n      dup1\n      0xf140a35a\n      eq\n      tag_15\n      jumpi\n      dup1\n      0xf2fde38b\n      eq\n      tag_16\n      jumpi\n      jump(tag_2)\n    tag_18:\n      dup1\n      0x8da5cb5b\n      eq\n      tag_10\n      jumpi\n      dup1\n      0x9cd441da\n      eq\n      tag_11\n      jumpi\n      dup1\n      0x9d7de6b3\n      eq\n      tag_12\n      jumpi\n      jump(tag_2)\n    tag_17:\n      dup1\n      0x41976e09\n      gt\n      tag_19\n      jumpi\n      dup1\n      0x41976e09\n      eq\n      tag_6\n      jumpi\n      dup1\n      0x5f64b55b\n      eq\n      tag_7\n      jumpi\n      dup1\n      0x715018a6\n      eq\n      tag_8\n      jumpi\n      dup1\n      0x8014a7aa\n      eq\n      tag_9\n      jumpi\n      jump(tag_2)\n    tag_19:\n      dup1\n      0x0902f1ac\n      eq\n      tag_3\n      jumpi\n      dup1\n      0x0fc63d10\n      eq\n      tag_4\n      jumpi\n      dup1\n      0x19e36f3b\n      eq\n      tag_5\n      jumpi\n    tag_2:\n      revert(0x00, 0x00)\n        /* \"contracts/SimpleDEX.sol\":4384:4494  function getReserves() external view returns (uint256, uint256) {... */\n    tag_3:\n      tag_20\n      tag_21\n      jump\t// in\n    tag_20:\n      mload(0x40)\n      tag_22\n      swap3\n      swap2\n      swap1\n      tag_23\n      jump\t// in\n    tag_22:\n      mload(0x40)\n      dup1\n      swap2\n      sub\n      swap1\n      return\n        /* \"contracts/SimpleDEX.sol\":290:310  IERC20 public tokenA */\n    tag_4:\n      tag_24\n      tag_25\n      jump\t// in\n    tag_24:\n      mload(0x40)\n      tag_26\n      swap2\n      swap1\n      tag_27\n      jump\t// in\n    tag_26:\n      mload(0x40)\n      dup1\n      swap2\n      sub\n      swap1\n      return\n        /* \"contracts/SimpleDEX.sol\":380:403  uint256 public reserveB */\n    tag_5:\n      tag_28\n      tag_29\n      jump\t// in\n    tag_28:\n      mload(0x40)\n      tag_30\n      swap2\n      swap1\n      tag_31\n      jump\t// in\n    tag_30:\n      mload(0x40)\n      dup1\n      swap2\n      sub\n      swap1\n      return\n        /* \"contracts/SimpleDEX.sol\":3823:4335  function getPrice(address _token) external view returns (uint256) {... */\n    tag_6:\n      tag_32\n      0x04\n      dup1\n      calldatasize\n      sub\n      dup2\n      add\n      swap1\n      tag_33\n      swap2\n      swap1\n      tag_34\n      jump\t// in\n    tag_33:\n      tag_35\n      jump\t// in\n    tag_32:\n      mload(0x40)\n      tag_36\n      swap2\n      swap1\n      tag_31\n      jump\t// in\n    tag_36:\n      mload(0x40)\n      dup1\n      swap2\n      sub\n      swap1\n      return\n        /* \"contracts/SimpleDEX.sol\":317:337  IERC20 public tokenB */\n    tag_7:\n      tag_37\n      tag_38\n      jump\t// in\n    tag_37:\n      mload(0x40)\n      tag_39\n      swap2\n      swap1\n      tag_27\n      jump\t// in\n    tag_39:\n      mload(0x40)\n      dup1\n      swap2\n      sub\n      swap1\n      return\n        /* \"@openzeppelin/contracts/access/Ownable.sol\":2293:2394  function renounceOwnership() public virtual onlyOwner {... */\n    tag_8:\n      tag_40\n      tag_41\n      jump\t// in\n    tag_40:\n      stop\n        /* \"contracts/SimpleDEX.sol\":2373:3238  function swapBforA(uint256 amountBIn) external nonReentrant {... */\n    tag_9:\n      tag_42\n      0x04\n      dup1\n      calldatasize\n      sub\n      dup2\n      add\n      swap1\n      tag_43\n      swap2\n      swap1\n      tag_44\n      jump\t// in\n    tag_43:\n      tag_45\n      jump\t// in\n    tag_42:\n      stop\n        /* \"@openzeppelin/contracts/access/Ownable.sol\":1638:1723  function owner() public view virtual returns (address) {... */\n    tag_10:\n      tag_46\n      tag_47\n      jump\t// in\n    tag_46:\n      mload(0x40)\n      tag_48\n      swap2\n      swap1\n      tag_49\n      jump\t// in\n    tag_48:\n      mload(0x40)\n      dup1\n      swap2\n      sub\n      swap1\n      return\n        /* \"contracts/SimpleDEX.sol\":900:1415  function addLiquidity(uint256 amountA, uint256 amountB) external onlyOwner {... */\n    tag_11:\n      tag_50\n      0x04\n      dup1\n      calldatasize\n      sub\n      dup2\n      add\n      swap1\n      tag_51\n      swap2\n      swap1\n      tag_52\n      jump\t// in\n    tag_51:\n      tag_53\n      jump\t// in\n    tag_50:\n      stop\n        /* \"contracts/SimpleDEX.sol\":3250:3811  function removeLiquidity(uint256 amountA, uint256 amountB) external onlyOwner {... */\n    tag_12:\n      tag_54\n      0x04\n      dup1\n      calldatasize\n      sub\n      dup2\n      add\n      swap1\n      tag_55\n      swap2\n      swap1\n      tag_52\n      jump\t// in\n    tag_55:\n      tag_56\n      jump\t// in\n    tag_54:\n      stop\n        /* \"contracts/SimpleDEX.sol\":350:373  uint256 public reserveA */\n    tag_13:\n      tag_57\n      tag_58\n      jump\t// in\n    tag_57:\n      mload(0x40)\n      tag_59\n      swap2\n      swap1\n      tag_31\n      jump\t// in\n    tag_59:\n      mload(0x40)\n      dup1\n      swap2\n      sub\n      swap1\n      return\n        /* \"contracts/SimpleDEX.sol\":1427:2361  function swapAforB(uint256 amountAIn) external nonReentrant {... */\n    tag_14:\n      tag_60\n      0x04\n      dup1\n      calldatasize\n      sub\n      dup2\n      add\n      swap1\n      tag_61\n      swap2\n      swap1\n      tag_44\n      jump\t// in\n    tag_61:\n      tag_62\n      jump\t// in\n    tag_60:\n      stop\n        /* \"contracts/SimpleDEX.sol\":4506:5054  function getAmountOut(uint256 amountIn, address tokenIn) external view returns (uint256) {... */\n    tag_15:\n      tag_63\n      0x04\n      dup1\n      calldatasize\n      sub\n      dup2\n      add\n      swap1\n      tag_64\n      swap2\n      swap1\n      tag_65\n      jump\t// in\n    tag_64:\n      tag_66\n      jump\t// in\n    tag_63:\n      mload(0x40)\n      tag_67\n      swap2\n      swap1\n      tag_31\n      jump\t// in\n    tag_67:\n      mload(0x40)\n      dup1\n      swap2\n      sub\n      swap1\n      return\n        /* \"@openzeppelin/contracts/access/Ownable.sol\":2543:2758  function transferOwnership(address newOwner) public virtual onlyOwner {... */\n    tag_16:\n      tag_68\n      0x04\n      dup1\n      calldatasize\n      sub\n      dup2\n      add\n      swap1\n      tag_69\n      swap2\n      swap1\n      tag_34\n      jump\t// in\n    tag_69:\n      tag_70\n      jump\t// in\n    tag_68:\n      stop\n        /* \"contracts/SimpleDEX.sol\":4384:4494  function getReserves() external view returns (uint256, uint256) {... */\n    tag_21:\n        /* \"contracts/SimpleDEX.sol\":4430:4437  uint256 */\n      0x00\n        /* \"contracts/SimpleDEX.sol\":4439:4446  uint256 */\n      0x00\n        /* \"contracts/SimpleDEX.sol\":4467:4475  reserveA */\n      sload(0x04)\n        /* \"contracts/SimpleDEX.sol\":4477:4485  reserveB */\n      sload(0x05)\n        /* \"contracts/SimpleDEX.sol\":4459:4486  return (reserveA, reserveB) */\n      swap2\n      pop\n      swap2\n      pop\n        /* \"contracts/SimpleDEX.sol\":4384:4494  function getReserves() external view returns (uint256, uint256) {... */\n      swap1\n      swap2\n      jump\t// out\n        /* \"contracts/SimpleDEX.sol\":290:310  IERC20 public tokenA */\n    tag_25:\n      0x02\n      0x00\n      swap1\n      sload\n      swap1\n      0x0100\n      exp\n      swap1\n      div\n      0xffffffffffffffffffffffffffffffffffffffff\n      and\n      dup2\n      jump\t// out\n        /* \"contracts/SimpleDEX.sol\":380:403  uint256 public reserveB */\n    tag_29:\n      sload(0x05)\n      dup2\n      jump\t// out\n        /* \"contracts/SimpleDEX.sol\":3823:4335  function getPrice(address _token) external view returns (uint256) {... */\n    tag_35:\n        /* \"contracts/SimpleDEX.sol\":3880:3887  uint256 */\n      0x00\n        /* \"contracts/SimpleDEX.sol\":3926:3932  tokenA */\n      0x02\n      0x00\n      swap1\n      sload\n      swap1\n      0x0100\n      exp\n      swap1\n      div\n      0xffffffffffffffffffffffffffffffffffffffff\n      and\n        /* \"contracts/SimpleDEX.sol\":3908:3933  _token == address(tokenA) */\n      0xffffffffffffffffffffffffffffffffffffffff\n      and\n        /* \"contracts/SimpleDEX.sol\":3908:3914  _token */\n      dup3\n        /* \"contracts/SimpleDEX.sol\":3908:3933  _token == address(tokenA) */\n      0xffffffffffffffffffffffffffffffffffffffff\n      and\n      eq\n        /* \"contracts/SimpleDEX.sol\":3908:3962  _token == address(tokenA) || _token == address(tokenB) */\n      dup1\n      tag_73\n      jumpi\n      pop\n        /* \"contracts/SimpleDEX.sol\":3955:3961  tokenB */\n      0x03\n      0x00\n      swap1\n      sload\n      swap1\n      0x0100\n      exp\n      swap1\n      div\n      0xffffffffffffffffffffffffffffffffffffffff\n      and\n        /* \"contracts/SimpleDEX.sol\":3937:3962  _token == address(tokenB) */\n      0xffffffffffffffffffffffffffffffffffffffff\n      and\n        /* \"contracts/SimpleDEX.sol\":3937:3943  _token */\n      dup3\n        /* \"contracts/SimpleDEX.sol\":3937:3962  _token == address(tokenB) */\n      0xffffffffffffffffffffffffffffffffffffffff\n      and\n      eq\n        /* \"contracts/SimpleDEX.sol\":3908:3962  _token == address(tokenA) || _token == address(tokenB) */\n    tag_73:\n        /* \"contracts/SimpleDEX.sol\":3900:3980  require(_token == address(tokenA) || _token == address(tokenB), \"Invalid token\") */\n      tag_74\n      jumpi\n      mload(0x40)\n      0x08c379a000000000000000000000000000000000000000000000000000000000\n      dup2\n      mstore\n      0x04\n      add\n      tag_75\n      swap1\n      tag_76\n      jump\t// in\n    tag_75:\n      mload(0x40)\n      dup1\n      swap2\n      sub\n      swap1\n      revert\n    tag_74:\n        /* \"contracts/SimpleDEX.sol\":4010:4011  0 */\n      0x00\n        /* \"contracts/SimpleDEX.sol\":3999:4007  reserveA */\n      sload(0x04)\n        /* \"contracts/SimpleDEX.sol\":3999:4011  reserveA > 0 */\n      gt\n        /* \"contracts/SimpleDEX.sol\":3999:4027  reserveA > 0 && reserveB > 0 */\n      dup1\n      iszero\n      tag_77\n      jumpi\n      pop\n        /* \"contracts/SimpleDEX.sol\":4026:4027  0 */\n      0x00\n        /* \"contracts/SimpleDEX.sol\":4015:4023  reserveB */\n      sload(0x05)\n        /* \"contracts/SimpleDEX.sol\":4015:4027  reserveB > 0 */\n      gt\n        /* \"contracts/SimpleDEX.sol\":3999:4027  reserveA > 0 && reserveB > 0 */\n    tag_77:\n        /* \"contracts/SimpleDEX.sol\":3991:4044  require(reserveA > 0 && reserveB > 0, \"No liquidity\") */\n      tag_78\n      jumpi\n      mload(0x40)\n      0x08c379a000000000000000000000000000000000000000000000000000000000\n      dup2\n      mstore\n      0x04\n      add\n      tag_79\n      swap1\n      tag_80\n      jump\t// in\n    tag_79:\n      mload(0x40)\n      dup1\n      swap2\n      sub\n      swap1\n      revert\n    tag_78:\n        /* \"contracts/SimpleDEX.sol\":4087:4093  tokenA */\n      0x02\n      0x00\n      swap1\n      sload\n      swap1\n      0x0100\n      exp\n      swap1\n      div\n      0xffffffffffffffffffffffffffffffffffffffff\n      and\n        /* \"contracts/SimpleDEX.sol\":4069:4094  _token == address(tokenA) */\n      0xffffffffffffffffffffffffffffffffffffffff\n      and\n        /* \"contracts/SimpleDEX.sol\":4069:4075  _token */\n      dup3\n        /* \"contracts/SimpleDEX.sol\":4069:4094  _token == address(tokenA) */\n      0xffffffffffffffffffffffffffffffffffffffff\n      and\n      sub\n        /* \"contracts/SimpleDEX.sol\":4065:4328  if (_token == address(tokenA)) {... */\n      tag_81\n      jumpi\n        /* \"contracts/SimpleDEX.sol\":4189:4197  reserveA */\n      sload(0x04)\n        /* \"contracts/SimpleDEX.sol\":4181:4185  1e18 */\n      0x0de0b6b3a7640000\n        /* \"contracts/SimpleDEX.sol\":4170:4178  reserveB */\n      sload(0x05)\n        /* \"contracts/SimpleDEX.sol\":4170:4185  reserveB * 1e18 */\n      tag_82\n      swap2\n      swap1\n      tag_83\n      jump\t// in\n    tag_82:\n        /* \"contracts/SimpleDEX.sol\":4169:4197  (reserveB * 1e18) / reserveA */\n      tag_84\n      swap2\n      swap1\n      tag_85\n      jump\t// in\n    tag_84:\n        /* \"contracts/SimpleDEX.sol\":4162:4197  return (reserveB * 1e18) / reserveA */\n      swap1\n      pop\n      jump(tag_72)\n        /* \"contracts/SimpleDEX.sol\":4065:4328  if (_token == address(tokenA)) {... */\n    tag_81:\n        /* \"contracts/SimpleDEX.sol\":4308:4316  reserveB */\n      sload(0x05)\n        /* \"contracts/SimpleDEX.sol\":4300:4304  1e18 */\n      0x0de0b6b3a7640000\n        /* \"contracts/SimpleDEX.sol\":4289:4297  reserveA */\n      sload(0x04)\n        /* \"contracts/SimpleDEX.sol\":4289:4304  reserveA * 1e18 */\n      tag_87\n      swap2\n      swap1\n      tag_83\n      jump\t// in\n    tag_87:\n        /* \"contracts/SimpleDEX.sol\":4288:4316  (reserveA * 1e18) / reserveB */\n      tag_88\n      swap2\n      swap1\n      tag_85\n      jump\t// in\n    tag_88:\n        /* \"contracts/SimpleDEX.sol\":4281:4316  return (reserveA * 1e18) / reserveB */\n      swap1\n      pop\n        /* \"contracts/SimpleDEX.sol\":3823:4335  function getPrice(address _token) external view returns (uint256) {... */\n    tag_72:\n      swap2\n      swap1\n      pop\n      jump\t// out\n        /* \"contracts/SimpleDEX.sol\":317:337  IERC20 public tokenB */\n    tag_38:\n      0x03\n      0x00\n      swap1\n      sload\n      swap1\n      0x0100\n      exp\n      swap1\n      div\n      0xffffffffffffffffffffffffffffffffffffffff\n      and\n      dup2\n      jump\t// out\n        /* \"@openzeppelin/contracts/access/Ownable.sol\":2293:2394  function renounceOwnership() public virtual onlyOwner {... */\n    tag_41:\n        /* \"@openzeppelin/contracts/access/Ownable.sol\":1531:1544  _checkOwner() */\n      tag_90\n        /* \"@openzeppelin/contracts/access/Ownable.sol\":1531:1542  _checkOwner */\n      tag_91\n        /* \"@openzeppelin/contracts/access/Ownable.sol\":1531:1544  _checkOwner() */\n      jump\t// in\n    tag_90:\n        /* \"@openzeppelin/contracts/access/Ownable.sol\":2357:2387  _transferOwnership(address(0)) */\n      tag_93\n        /* \"@openzeppelin/contracts/access/Ownable.sol\":2384:2385  0 */\n      0x00\n        /* \"@openzeppelin/contracts/access/Ownable.sol\":2357:2375  _transferOwnership */\n      tag_94\n        /* \"@openzeppelin/contracts/access/Ownable.sol\":2357:2387  _transferOwnership(address(0)) */\n      jump\t// in\n    tag_93:\n        /* \"@openzeppelin/contracts/access/Ownable.sol\":2293:2394  function renounceOwnership() public virtual onlyOwner {... */\n      jump\t// out\n        /* \"contracts/SimpleDEX.sol\":2373:3238  function swapBforA(uint256 amountBIn) external nonReentrant {... */\n    tag_45:\n        /* \"@openzeppelin/contracts/utils/ReentrancyGuard.sol\":2500:2521  _nonReentrantBefore() */\n      tag_96\n        /* \"@openzeppelin/contracts/utils/ReentrancyGuard.sol\":2500:2519  _nonReentrantBefore */\n      tag_97\n        /* \"@openzeppelin/contracts/utils/ReentrancyGuard.sol\":2500:2521  _nonReentrantBefore() */\n      jump\t// in\n    tag_96:\n        /* \"contracts/SimpleDEX.sol\":2464:2465  0 */\n      0x00\n        /* \"contracts/SimpleDEX.sol\":2452:2461  amountBIn */\n      dup2\n        /* \"contracts/SimpleDEX.sol\":2452:2465  amountBIn > 0 */\n      gt\n        /* \"contracts/SimpleDEX.sol\":2444:2502  require(amountBIn > 0, \"Amount must be greater than zero\") */\n      tag_99\n      jumpi\n      mload(0x40)\n      0x08c379a000000000000000000000000000000000000000000000000000000000\n      dup2\n      mstore\n      0x04\n      add\n      tag_100\n      swap1\n      tag_101\n      jump\t// in\n    tag_100:\n      mload(0x40)\n      dup1\n      swap2\n      sub\n      swap1\n      revert\n    tag_99:\n        /* \"contracts/SimpleDEX.sol\":2532:2533  0 */\n      0x00\n        /* \"contracts/SimpleDEX.sol\":2521:2529  reserveA */\n      sload(0x04)\n        /* \"contracts/SimpleDEX.sol\":2521:2533  reserveA > 0 */\n      gt\n        /* \"contracts/SimpleDEX.sol\":2521:2549  reserveA > 0 && reserveB > 0 */\n      dup1\n      iszero\n      tag_102\n      jumpi\n      pop\n        /* \"contracts/SimpleDEX.sol\":2548:2549  0 */\n      0x00\n        /* \"contracts/SimpleDEX.sol\":2537:2545  reserveB */\n      sload(0x05)\n        /* \"contracts/SimpleDEX.sol\":2537:2549  reserveB > 0 */\n      gt\n        /* \"contracts/SimpleDEX.sol\":2521:2549  reserveA > 0 && reserveB > 0 */\n    tag_102:\n        /* \"contracts/SimpleDEX.sol\":2513:2576  require(reserveA > 0 && reserveB > 0, \"Insufficient liquidity\") */\n      tag_103\n      jumpi\n      mload(0x40)\n      0x08c379a000000000000000000000000000000000000000000000000000000000\n      dup2\n      mstore\n      0x04\n      add\n      tag_104\n      swap1\n      tag_105\n      jump\t// in\n    tag_104:\n      mload(0x40)\n      dup1\n      swap2\n      sub\n      swap1\n      revert\n    tag_103:\n        /* \"contracts/SimpleDEX.sol\":2664:2682  uint256 amountAOut */\n      0x00\n        /* \"contracts/SimpleDEX.sol\":2722:2731  amountBIn */\n      dup2\n        /* \"contracts/SimpleDEX.sol\":2711:2719  reserveB */\n      sload(0x05)\n        /* \"contracts/SimpleDEX.sol\":2711:2731  reserveB + amountBIn */\n      tag_106\n      swap2\n      swap1\n      tag_107\n      jump\t// in\n    tag_106:\n        /* \"contracts/SimpleDEX.sol\":2697:2706  amountBIn */\n      dup3\n        /* \"contracts/SimpleDEX.sol\":2686:2694  reserveA */\n      sload(0x04)\n        /* \"contracts/SimpleDEX.sol\":2686:2706  reserveA * amountBIn */\n      tag_108\n      swap2\n      swap1\n      tag_83\n      jump\t// in\n    tag_108:\n        /* \"contracts/SimpleDEX.sol\":2685:2732  (reserveA * amountBIn) / (reserveB + amountBIn) */\n      tag_109\n      swap2\n      swap1\n      tag_85\n      jump\t// in\n    tag_109:\n        /* \"contracts/SimpleDEX.sol\":2664:2732  uint256 amountAOut = (reserveA * amountBIn) / (reserveB + amountBIn) */\n      swap1\n      pop\n        /* \"contracts/SimpleDEX.sol\":2764:2765  0 */\n      0x00\n        /* \"contracts/SimpleDEX.sol\":2751:2761  amountAOut */\n      dup2\n        /* \"contracts/SimpleDEX.sol\":2751:2765  amountAOut > 0 */\n      gt\n        /* \"contracts/SimpleDEX.sol\":2743:2796  require(amountAOut > 0, \"Insufficient output amount\") */\n      tag_110\n      jumpi\n      mload(0x40)\n      0x08c379a000000000000000000000000000000000000000000000000000000000\n      dup2\n      mstore\n      0x04\n      add\n      tag_111\n      swap1\n      tag_112\n      jump\t// in\n    tag_111:\n      mload(0x40)\n      dup1\n      swap2\n      sub\n      swap1\n      revert\n    tag_110:\n        /* \"contracts/SimpleDEX.sol\":2828:2836  reserveA */\n      sload(0x04)\n        /* \"contracts/SimpleDEX.sol\":2815:2825  amountAOut */\n      dup2\n        /* \"contracts/SimpleDEX.sol\":2815:2836  amountAOut < reserveA */\n      lt\n        /* \"contracts/SimpleDEX.sol\":2807:2863  require(amountAOut < reserveA, \"Insufficient liquidity\") */\n      tag_113\n      jumpi\n      mload(0x40)\n      0x08c379a000000000000000000000000000000000000000000000000000000000\n      dup2\n      mstore\n      0x04\n      add\n      tag_114\n      swap1\n      tag_105\n      jump\t// in\n    tag_114:\n      mload(0x40)\n      dup1\n      swap2\n      sub\n      swap1\n      revert\n    tag_113:\n        /* \"contracts/SimpleDEX.sol\":2912:2918  tokenB */\n      0x03\n      0x00\n      swap1\n      sload\n      swap1\n      0x0100\n      exp\n      swap1\n      div\n      0xffffffffffffffffffffffffffffffffffffffff\n      and\n        /* \"contracts/SimpleDEX.sol\":2912:2931  tokenB.transferFrom */\n      0xffffffffffffffffffffffffffffffffffffffff\n      and\n      0x23b872dd\n        /* \"contracts/SimpleDEX.sol\":2932:2942  msg.sender */\n      caller\n        /* \"contracts/SimpleDEX.sol\":2952:2956  this */\n      address\n        /* \"contracts/SimpleDEX.sol\":2959:2968  amountBIn */\n      dup6\n        /* \"contracts/SimpleDEX.sol\":2912:2969  tokenB.transferFrom(msg.sender, address(this), amountBIn) */\n      mload(0x40)\n      dup5\n      0xffffffff\n      and\n      0xe0\n      shl\n      dup2\n      mstore\n      0x04\n      add\n      tag_115\n      swap4\n      swap3\n      swap2\n      swap1\n      tag_116\n      jump\t// in\n    tag_115:\n      0x20\n      mload(0x40)\n      dup1\n      dup4\n      sub\n      dup2\n      0x00\n      dup8\n      gas\n      call\n      iszero\n      dup1\n      iszero\n      tag_118\n      jumpi\n      returndatacopy(0x00, 0x00, returndatasize)\n      revert(0x00, returndatasize)\n    tag_118:\n      pop\n      pop\n      pop\n      pop\n      mload(0x40)\n      returndatasize\n      not(0x1f)\n      0x1f\n      dup3\n      add\n      and\n      dup3\n      add\n      dup1\n      0x40\n      mstore\n      pop\n      dup2\n      add\n      swap1\n      tag_119\n      swap2\n      swap1\n      tag_120\n      jump\t// in\n    tag_119:\n      pop\n        /* \"contracts/SimpleDEX.sol\":2980:2986  tokenA */\n      0x02\n      0x00\n      swap1\n      sload\n      swap1\n      0x0100\n      exp\n      swap1\n      div\n      0xffffffffffffffffffffffffffffffffffffffff\n      and\n        /* \"contracts/SimpleDEX.sol\":2980:2995  tokenA.transfer */\n      0xffffffffffffffffffffffffffffffffffffffff\n      and\n      0xa9059cbb\n        /* \"contracts/SimpleDEX.sol\":2996:3006  msg.sender */\n      caller\n        /* \"contracts/SimpleDEX.sol\":3008:3018  amountAOut */\n      dup4\n        /* \"contracts/SimpleDEX.sol\":2980:3019  tokenA.transfer(msg.sender, amountAOut) */\n      mload(0x40)\n      dup4\n      0xffffffff\n      and\n      0xe0\n      shl\n      dup2\n      mstore\n      0x04\n      add\n      tag_121\n      swap3\n      swap2\n      swap1\n      tag_122\n      jump\t// in\n    tag_121:\n      0x20\n      mload(0x40)\n      dup1\n      dup4\n      sub\n      dup2\n      0x00\n      dup8\n      gas\n      call\n      iszero\n      dup1\n      iszero\n      tag_124\n      jumpi\n      returndatacopy(0x00, 0x00, returndatasize)\n      revert(0x00, returndatasize)\n    tag_124:\n      pop\n      pop\n      pop\n      pop\n      mload(0x40)\n      returndatasize\n      not(0x1f)\n      0x1f\n      dup3\n      add\n      and\n      dup3\n      add\n      dup1\n      0x40\n      mstore\n      pop\n      dup2\n      add\n      swap1\n      tag_125\n      swap2\n      swap1\n      tag_120\n      jump\t// in\n    tag_125:\n      pop\n        /* \"contracts/SimpleDEX.sol\":3080:3089  amountBIn */\n      dup2\n        /* \"contracts/SimpleDEX.sol\":3068:3076  reserveB */\n      0x05\n      0x00\n        /* \"contracts/SimpleDEX.sol\":3068:3089  reserveB += amountBIn */\n      dup3\n      dup3\n      sload\n      tag_126\n      swap2\n      swap1\n      tag_107\n      jump\t// in\n    tag_126:\n      swap3\n      pop\n      pop\n      dup2\n      swap1\n      sstore\n      pop\n        /* \"contracts/SimpleDEX.sol\":3112:3122  amountAOut */\n      dup1\n        /* \"contracts/SimpleDEX.sol\":3100:3108  reserveA */\n      0x04\n      0x00\n        /* \"contracts/SimpleDEX.sol\":3100:3122  reserveA -= amountAOut */\n      dup3\n      dup3\n      sload\n      tag_127\n      swap2\n      swap1\n      tag_128\n      jump\t// in\n    tag_127:\n      swap3\n      pop\n      pop\n      dup2\n      swap1\n      sstore\n      pop\n        /* \"contracts/SimpleDEX.sol\":3162:3172  msg.sender */\n      caller\n        /* \"contracts/SimpleDEX.sol\":3148:3230  TokensSwapped(msg.sender, address(tokenB), address(tokenA), amountBIn, amountAOut) */\n      0xffffffffffffffffffffffffffffffffffffffff\n      and\n      0xad56699d0f375866eb895ed27203058a36a713382aaded78eb6b67da266d4332\n        /* \"contracts/SimpleDEX.sol\":3182:3188  tokenB */\n      0x03\n      0x00\n      swap1\n      sload\n      swap1\n      0x0100\n      exp\n      swap1\n      div\n      0xffffffffffffffffffffffffffffffffffffffff\n      and\n        /* \"contracts/SimpleDEX.sol\":3199:3205  tokenA */\n      0x02\n      0x00\n      swap1\n      sload\n      swap1\n      0x0100\n      exp\n      swap1\n      div\n      0xffffffffffffffffffffffffffffffffffffffff\n      and\n        /* \"contracts/SimpleDEX.sol\":3208:3217  amountBIn */\n      dup6\n        /* \"contracts/SimpleDEX.sol\":3219:3229  amountAOut */\n      dup6\n        /* \"contracts/SimpleDEX.sol\":3148:3230  TokensSwapped(msg.sender, address(tokenB), address(tokenA), amountBIn, amountAOut) */\n      mload(0x40)\n      tag_129\n      swap5\n      swap4\n      swap3\n      swap2\n      swap1\n      tag_130\n      jump\t// in\n    tag_129:\n      mload(0x40)\n      dup1\n      swap2\n      sub\n      swap1\n      log2\n        /* \"contracts/SimpleDEX.sol\":2433:3238  {... */\n      pop\n        /* \"@openzeppelin/contracts/utils/ReentrancyGuard.sol\":2542:2562  _nonReentrantAfter() */\n      tag_131\n        /* \"@openzeppelin/contracts/utils/ReentrancyGuard.sol\":2542:2560  _nonReentrantAfter */\n      tag_132\n        /* \"@openzeppelin/contracts/utils/ReentrancyGuard.sol\":2542:2562  _nonReentrantAfter() */\n      jump\t// in\n    tag_131:\n        /* \"contracts/SimpleDEX.sol\":2373:3238  function swapBforA(uint256 amountBIn) external nonReentrant {... */\n      pop\n      jump\t// out\n        /* \"@openzeppelin/contracts/access/Ownable.sol\":1638:1723  function owner() public view virtual returns (address) {... */\n    tag_47:\n        /* \"@openzeppelin/contracts/access/Ownable.sol\":1684:1691  address */\n      0x00\n        /* \"@openzeppelin/contracts/access/Ownable.sol\":1710:1716  _owner */\n      0x00\n      0x00\n      swap1\n      sload\n      swap1\n      0x0100\n      exp\n      swap1\n      div\n      0xffffffffffffffffffffffffffffffffffffffff\n      and\n        /* \"@openzeppelin/contracts/access/Ownable.sol\":1703:1716  return _owner */\n      swap1\n      pop\n        /* \"@openzeppelin/contracts/access/Ownable.sol\":1638:1723  function owner() public view virtual returns (address) {... */\n      swap1\n      jump\t// out\n        /* \"contracts/SimpleDEX.sol\":900:1415  function addLiquidity(uint256 amountA, uint256 amountB) external onlyOwner {... */\n    tag_53:\n        /* \"@openzeppelin/contracts/access/Ownable.sol\":1531:1544  _checkOwner() */\n      tag_135\n        /* \"@openzeppelin/contracts/access/Ownable.sol\":1531:1542  _checkOwner */\n      tag_91\n        /* \"@openzeppelin/contracts/access/Ownable.sol\":1531:1544  _checkOwner() */\n      jump\t// in\n    tag_135:\n        /* \"contracts/SimpleDEX.sol\":1004:1005  0 */\n      0x00\n        /* \"contracts/SimpleDEX.sol\":994:1001  amountA */\n      dup3\n        /* \"contracts/SimpleDEX.sol\":994:1005  amountA > 0 */\n      gt\n        /* \"contracts/SimpleDEX.sol\":994:1020  amountA > 0 && amountB > 0 */\n      dup1\n      iszero\n      tag_137\n      jumpi\n      pop\n        /* \"contracts/SimpleDEX.sol\":1019:1020  0 */\n      0x00\n        /* \"contracts/SimpleDEX.sol\":1009:1016  amountB */\n      dup2\n        /* \"contracts/SimpleDEX.sol\":1009:1020  amountB > 0 */\n      gt\n        /* \"contracts/SimpleDEX.sol\":994:1020  amountA > 0 && amountB > 0 */\n    tag_137:\n        /* \"contracts/SimpleDEX.sol\":986:1058  require(amountA > 0 && amountB > 0, \"Amounts must be greater than zero\") */\n      tag_138\n      jumpi\n      mload(0x40)\n      0x08c379a000000000000000000000000000000000000000000000000000000000\n      dup2\n      mstore\n      0x04\n      add\n      tag_139\n      swap1\n      tag_140\n      jump\t// in\n    tag_139:\n      mload(0x40)\n      dup1\n      swap2\n      sub\n      swap1\n      revert\n    tag_138:\n        /* \"contracts/SimpleDEX.sol\":1130:1136  tokenA */\n      0x02\n      0x00\n      swap1\n      sload\n      swap1\n      0x0100\n      exp\n      swap1\n      div\n      0xffffffffffffffffffffffffffffffffffffffff\n      and\n        /* \"contracts/SimpleDEX.sol\":1130:1149  tokenA.transferFrom */\n      0xffffffffffffffffffffffffffffffffffffffff\n      and\n      0x23b872dd\n        /* \"contracts/SimpleDEX.sol\":1150:1160  msg.sender */\n      caller\n        /* \"contracts/SimpleDEX.sol\":1170:1174  this */\n      address\n        /* \"contracts/SimpleDEX.sol\":1177:1184  amountA */\n      dup6\n        /* \"contracts/SimpleDEX.sol\":1130:1185  tokenA.transferFrom(msg.sender, address(this), amountA) */\n      mload(0x40)\n      dup5\n      0xffffffff\n      and\n      0xe0\n      shl\n      dup2\n      mstore\n      0x04\n      add\n      tag_141\n      swap4\n      swap3\n      swap2\n      swap1\n      tag_116\n      jump\t// in\n    tag_141:\n      0x20\n      mload(0x40)\n      dup1\n      dup4\n      sub\n      dup2\n      0x00\n      dup8\n      gas\n      call\n      iszero\n      dup1\n      iszero\n      tag_143\n      jumpi\n      returndatacopy(0x00, 0x00, returndatasize)\n      revert(0x00, returndatasize)\n    tag_143:\n      pop\n      pop\n      pop\n      pop\n      mload(0x40)\n      returndatasize\n      not(0x1f)\n      0x1f\n      dup3\n      add\n      and\n      dup3\n      add\n      dup1\n      0x40\n      mstore\n      pop\n      dup2\n      add\n      swap1\n      tag_144\n      swap2\n      swap1\n      tag_120\n      jump\t// in\n    tag_144:\n      pop\n        /* \"contracts/SimpleDEX.sol\":1196:1202  tokenB */\n      0x03\n      0x00\n      swap1\n      sload\n      swap1\n      0x0100\n      exp\n      swap1\n      div\n      0xffffffffffffffffffffffffffffffffffffffff\n      and\n        /* \"contracts/SimpleDEX.sol\":1196:1215  tokenB.transferFrom */\n      0xffffffffffffffffffffffffffffffffffffffff\n      and\n      0x23b872dd\n        /* \"contracts/SimpleDEX.sol\":1216:1226  msg.sender */\n      caller\n        /* \"contracts/SimpleDEX.sol\":1236:1240  this */\n      address\n        /* \"contracts/SimpleDEX.sol\":1243:1250  amountB */\n      dup5\n        /* \"contracts/SimpleDEX.sol\":1196:1251  tokenB.transferFrom(msg.sender, address(this), amountB) */\n      mload(0x40)\n      dup5\n      0xffffffff\n      and\n      0xe0\n      shl\n      dup2\n      mstore\n      0x04\n      add\n      tag_145\n      swap4\n      swap3\n      swap2\n      swap1\n      tag_116\n      jump\t// in\n    tag_145:\n      0x20\n      mload(0x40)\n      dup1\n      dup4\n      sub\n      dup2\n      0x00\n      dup8\n      gas\n      call\n      iszero\n      dup1\n      iszero\n      tag_147\n      jumpi\n      returndatacopy(0x00, 0x00, returndatasize)\n      revert(0x00, returndatasize)\n    tag_147:\n      pop\n      pop\n      pop\n      pop\n      mload(0x40)\n      returndatasize\n      not(0x1f)\n      0x1f\n      dup3\n      add\n      and\n      dup3\n      add\n      dup1\n      0x40\n      mstore\n      pop\n      dup2\n      add\n      swap1\n      tag_148\n      swap2\n      swap1\n      tag_120\n      jump\t// in\n    tag_148:\n      pop\n        /* \"contracts/SimpleDEX.sol\":1312:1319  amountA */\n      dup2\n        /* \"contracts/SimpleDEX.sol\":1300:1308  reserveA */\n      0x04\n      0x00\n        /* \"contracts/SimpleDEX.sol\":1300:1319  reserveA += amountA */\n      dup3\n      dup3\n      sload\n      tag_149\n      swap2\n      swap1\n      tag_107\n      jump\t// in\n    tag_149:\n      swap3\n      pop\n      pop\n      dup2\n      swap1\n      sstore\n      pop\n        /* \"contracts/SimpleDEX.sol\":1342:1349  amountB */\n      dup1\n        /* \"contracts/SimpleDEX.sol\":1330:1338  reserveB */\n      0x05\n      0x00\n        /* \"contracts/SimpleDEX.sol\":1330:1349  reserveB += amountB */\n      dup3\n      dup3\n      sload\n      tag_150\n      swap2\n      swap1\n      tag_107\n      jump\t// in\n    tag_150:\n      swap3\n      pop\n      pop\n      dup2\n      swap1\n      sstore\n      pop\n        /* \"contracts/SimpleDEX.sol\":1375:1407  LiquidityAdded(amountA, amountB) */\n      0x38f8a0c92f4c5b0b6877f878cb4c0c8d348a47b76d716c8e78f425043df9515b\n        /* \"contracts/SimpleDEX.sol\":1390:1397  amountA */\n      dup3\n        /* \"contracts/SimpleDEX.sol\":1399:1406  amountB */\n      dup3\n        /* \"contracts/SimpleDEX.sol\":1375:1407  LiquidityAdded(amountA, amountB) */\n      mload(0x40)\n      tag_151\n      swap3\n      swap2\n      swap1\n      tag_23\n      jump\t// in\n    tag_151:\n      mload(0x40)\n      dup1\n      swap2\n      sub\n      swap1\n      log1\n        /* \"contracts/SimpleDEX.sol\":900:1415  function addLiquidity(uint256 amountA, uint256 amountB) external onlyOwner {... */\n      pop\n      pop\n      jump\t// out\n        /* \"contracts/SimpleDEX.sol\":3250:3811  function removeLiquidity(uint256 amountA, uint256 amountB) external onlyOwner {... */\n    tag_56:\n        /* \"@openzeppelin/contracts/access/Ownable.sol\":1531:1544  _checkOwner() */\n      tag_153\n        /* \"@openzeppelin/contracts/access/Ownable.sol\":1531:1542  _checkOwner */\n      tag_91\n        /* \"@openzeppelin/contracts/access/Ownable.sol\":1531:1544  _checkOwner() */\n      jump\t// in\n    tag_153:\n        /* \"contracts/SimpleDEX.sol\":3358:3366  reserveA */\n      sload(0x04)\n        /* \"contracts/SimpleDEX.sol\":3347:3354  amountA */\n      dup3\n        /* \"contracts/SimpleDEX.sol\":3347:3366  amountA <= reserveA */\n      gt\n      iszero\n        /* \"contracts/SimpleDEX.sol\":3347:3389  amountA <= reserveA && amountB <= reserveB */\n      dup1\n      iszero\n      tag_155\n      jumpi\n      pop\n        /* \"contracts/SimpleDEX.sol\":3381:3389  reserveB */\n      sload(0x05)\n        /* \"contracts/SimpleDEX.sol\":3370:3377  amountB */\n      dup2\n        /* \"contracts/SimpleDEX.sol\":3370:3389  amountB <= reserveB */\n      gt\n      iszero\n        /* \"contracts/SimpleDEX.sol\":3347:3389  amountA <= reserveA && amountB <= reserveB */\n    tag_155:\n        /* \"contracts/SimpleDEX.sol\":3339:3416  require(amountA <= reserveA && amountB <= reserveB, \"Insufficient liquidity\") */\n      tag_156\n      jumpi\n      mload(0x40)\n      0x08c379a000000000000000000000000000000000000000000000000000000000\n      dup2\n      mstore\n      0x04\n      add\n      tag_157\n      swap1\n      tag_105\n      jump\t// in\n    tag_157:\n      mload(0x40)\n      dup1\n      swap2\n      sub\n      swap1\n      revert\n    tag_156:\n        /* \"contracts/SimpleDEX.sol\":3445:3446  0 */\n      0x00\n        /* \"contracts/SimpleDEX.sol\":3435:3442  amountA */\n      dup3\n        /* \"contracts/SimpleDEX.sol\":3435:3446  amountA > 0 */\n      gt\n        /* \"contracts/SimpleDEX.sol\":3435:3461  amountA > 0 && amountB > 0 */\n      dup1\n      iszero\n      tag_158\n      jumpi\n      pop\n        /* \"contracts/SimpleDEX.sol\":3460:3461  0 */\n      0x00\n        /* \"contracts/SimpleDEX.sol\":3450:3457  amountB */\n      dup2\n        /* \"contracts/SimpleDEX.sol\":3450:3461  amountB > 0 */\n      gt\n        /* \"contracts/SimpleDEX.sol\":3435:3461  amountA > 0 && amountB > 0 */\n    tag_158:\n        /* \"contracts/SimpleDEX.sol\":3427:3499  require(amountA > 0 && amountB > 0, \"Amounts must be greater than zero\") */\n      tag_159\n      jumpi\n      mload(0x40)\n      0x08c379a000000000000000000000000000000000000000000000000000000000\n      dup2\n      mstore\n      0x04\n      add\n      tag_160\n      swap1\n      tag_140\n      jump\t// in\n    tag_160:\n      mload(0x40)\n      dup1\n      swap2\n      sub\n      swap1\n      revert\n    tag_159:\n        /* \"contracts/SimpleDEX.sol\":3562:3568  tokenA */\n      0x02\n      0x00\n      swap1\n      sload\n      swap1\n      0x0100\n      exp\n      swap1\n      div\n      0xffffffffffffffffffffffffffffffffffffffff\n      and\n        /* \"contracts/SimpleDEX.sol\":3562:3577  tokenA.transfer */\n      0xffffffffffffffffffffffffffffffffffffffff\n      and\n      0xa9059cbb\n        /* \"contracts/SimpleDEX.sol\":3578:3588  msg.sender */\n      caller\n        /* \"contracts/SimpleDEX.sol\":3590:3597  amountA */\n      dup5\n        /* \"contracts/SimpleDEX.sol\":3562:3598  tokenA.transfer(msg.sender, amountA) */\n      mload(0x40)\n      dup4\n      0xffffffff\n      and\n      0xe0\n      shl\n      dup2\n      mstore\n      0x04\n      add\n      tag_161\n      swap3\n      swap2\n      swap1\n      tag_122\n      jump\t// in\n    tag_161:\n      0x20\n      mload(0x40)\n      dup1\n      dup4\n      sub\n      dup2\n      0x00\n      dup8\n      gas\n      call\n      iszero\n      dup1\n      iszero\n      tag_163\n      jumpi\n      returndatacopy(0x00, 0x00, returndatasize)\n      revert(0x00, returndatasize)\n    tag_163:\n      pop\n      pop\n      pop\n      pop\n      mload(0x40)\n      returndatasize\n      not(0x1f)\n      0x1f\n      dup3\n      add\n      and\n      dup3\n      add\n      dup1\n      0x40\n      mstore\n      pop\n      dup2\n      add\n      swap1\n      tag_164\n      swap2\n      swap1\n      tag_120\n      jump\t// in\n    tag_164:\n      pop\n        /* \"contracts/SimpleDEX.sol\":3609:3615  tokenB */\n      0x03\n      0x00\n      swap1\n      sload\n      swap1\n      0x0100\n      exp\n      swap1\n      div\n      0xffffffffffffffffffffffffffffffffffffffff\n      and\n        /* \"contracts/SimpleDEX.sol\":3609:3624  tokenB.transfer */\n      0xffffffffffffffffffffffffffffffffffffffff\n      and\n      0xa9059cbb\n        /* \"contracts/SimpleDEX.sol\":3625:3635  msg.sender */\n      caller\n        /* \"contracts/SimpleDEX.sol\":3637:3644  amountB */\n      dup4\n        /* \"contracts/SimpleDEX.sol\":3609:3645  tokenB.transfer(msg.sender, amountB) */\n      mload(0x40)\n      dup4\n      0xffffffff\n      and\n      0xe0\n      shl\n      dup2\n      mstore\n      0x04\n      add\n      tag_165\n      swap3\n      swap2\n      swap1\n      tag_122\n      jump\t// in\n    tag_165:\n      0x20\n      mload(0x40)\n      dup1\n      dup4\n      sub\n      dup2\n      0x00\n      dup8\n      gas\n      call\n      iszero\n      dup1\n      iszero\n      tag_167\n      jumpi\n      returndatacopy(0x00, 0x00, returndatasize)\n      revert(0x00, returndatasize)\n    tag_167:\n      pop\n      pop\n      pop\n      pop\n      mload(0x40)\n      returndatasize\n      not(0x1f)\n      0x1f\n      dup3\n      add\n      and\n      dup3\n      add\n      dup1\n      0x40\n      mstore\n      pop\n      dup2\n      add\n      swap1\n      tag_168\n      swap2\n      swap1\n      tag_120\n      jump\t// in\n    tag_168:\n      pop\n        /* \"contracts/SimpleDEX.sol\":3706:3713  amountA */\n      dup2\n        /* \"contracts/SimpleDEX.sol\":3694:3702  reserveA */\n      0x04\n      0x00\n        /* \"contracts/SimpleDEX.sol\":3694:3713  reserveA -= amountA */\n      dup3\n      dup3\n      sload\n      tag_169\n      swap2\n      swap1\n      tag_128\n      jump\t// in\n    tag_169:\n      swap3\n      pop\n      pop\n      dup2\n      swap1\n      sstore\n      pop\n        /* \"contracts/SimpleDEX.sol\":3736:3743  amountB */\n      dup1\n        /* \"contracts/SimpleDEX.sol\":3724:3732  reserveB */\n      0x05\n      0x00\n        /* \"contracts/SimpleDEX.sol\":3724:3743  reserveB -= amountB */\n      dup3\n      dup3\n      sload\n      tag_170\n      swap2\n      swap1\n      tag_128\n      jump\t// in\n    tag_170:\n      swap3\n      pop\n      pop\n      dup2\n      swap1\n      sstore\n      pop\n        /* \"contracts/SimpleDEX.sol\":3769:3803  LiquidityRemoved(amountA, amountB) */\n      0x6f0f96292ae0038c04f9b6bab30f185d9ca02c471d0983f563f2a4f674aef137\n        /* \"contracts/SimpleDEX.sol\":3786:3793  amountA */\n      dup3\n        /* \"contracts/SimpleDEX.sol\":3795:3802  amountB */\n      dup3\n        /* \"contracts/SimpleDEX.sol\":3769:3803  LiquidityRemoved(amountA, amountB) */\n      mload(0x40)\n      tag_171\n      swap3\n      swap2\n      swap1\n      tag_23\n      jump\t// in\n    tag_171:\n      mload(0x40)\n      dup1\n      swap2\n      sub\n      swap1\n      log1\n        /* \"contracts/SimpleDEX.sol\":3250:3811  function removeLiquidity(uint256 amountA, uint256 amountB) external onlyOwner {... */\n      pop\n      pop\n      jump\t// out\n        /* \"contracts/SimpleDEX.sol\":350:373  uint256 public reserveA */\n    tag_58:\n      sload(0x04)\n      dup2\n      jump\t// out\n        /* \"contracts/SimpleDEX.sol\":1427:2361  function swapAforB(uint256 amountAIn) external nonReentrant {... */\n    tag_62:\n        /* \"@openzeppelin/contracts/utils/ReentrancyGuard.sol\":2500:2521  _nonReentrantBefore() */\n      tag_173\n        /* \"@openzeppelin/contracts/utils/ReentrancyGuard.sol\":2500:2519  _nonReentrantBefore */\n      tag_97\n        /* \"@openzeppelin/contracts/utils/ReentrancyGuard.sol\":2500:2521  _nonReentrantBefore() */\n      jump\t// in\n    tag_173:\n        /* \"contracts/SimpleDEX.sol\":1518:1519  0 */\n      0x00\n        /* \"contracts/SimpleDEX.sol\":1506:1515  amountAIn */\n      dup2\n        /* \"contracts/SimpleDEX.sol\":1506:1519  amountAIn > 0 */\n      gt\n        /* \"contracts/SimpleDEX.sol\":1498:1556  require(amountAIn > 0, \"Amount must be greater than zero\") */\n      tag_175\n      jumpi\n      mload(0x40)\n      0x08c379a000000000000000000000000000000000000000000000000000000000\n      dup2\n      mstore\n      0x04\n      add\n      tag_176\n      swap1\n      tag_101\n      jump\t// in\n    tag_176:\n      mload(0x40)\n      dup1\n      swap2\n      sub\n      swap1\n      revert\n    tag_175:\n        /* \"contracts/SimpleDEX.sol\":1586:1587  0 */\n      0x00\n        /* \"contracts/SimpleDEX.sol\":1575:1583  reserveA */\n      sload(0x04)\n        /* \"contracts/SimpleDEX.sol\":1575:1587  reserveA > 0 */\n      gt\n        /* \"contracts/SimpleDEX.sol\":1575:1603  reserveA > 0 && reserveB > 0 */\n      dup1\n      iszero\n      tag_177\n      jumpi\n      pop\n        /* \"contracts/SimpleDEX.sol\":1602:1603  0 */\n      0x00\n        /* \"contracts/SimpleDEX.sol\":1591:1599  reserveB */\n      sload(0x05)\n        /* \"contracts/SimpleDEX.sol\":1591:1603  reserveB > 0 */\n      gt\n        /* \"contracts/SimpleDEX.sol\":1575:1603  reserveA > 0 && reserveB > 0 */\n    tag_177:\n        /* \"contracts/SimpleDEX.sol\":1567:1630  require(reserveA > 0 && reserveB > 0, \"Insufficient liquidity\") */\n      tag_178\n      jumpi\n      mload(0x40)\n      0x08c379a000000000000000000000000000000000000000000000000000000000\n      dup2\n      mstore\n      0x04\n      add\n      tag_179\n      swap1\n      tag_105\n      jump\t// in\n    tag_179:\n      mload(0x40)\n      dup1\n      swap2\n      sub\n      swap1\n      revert\n    tag_178:\n        /* \"contracts/SimpleDEX.sol\":1787:1805  uint256 amountBOut */\n      0x00\n        /* \"contracts/SimpleDEX.sol\":1845:1854  amountAIn */\n      dup2\n        /* \"contracts/SimpleDEX.sol\":1834:1842  reserveA */\n      sload(0x04)\n        /* \"contracts/SimpleDEX.sol\":1834:1854  reserveA + amountAIn */\n      tag_180\n      swap2\n      swap1\n      tag_107\n      jump\t// in\n    tag_180:\n        /* \"contracts/SimpleDEX.sol\":1820:1829  amountAIn */\n      dup3\n        /* \"contracts/SimpleDEX.sol\":1809:1817  reserveB */\n      sload(0x05)\n        /* \"contracts/SimpleDEX.sol\":1809:1829  reserveB * amountAIn */\n      tag_181\n      swap2\n      swap1\n      tag_83\n      jump\t// in\n    tag_181:\n        /* \"contracts/SimpleDEX.sol\":1808:1855  (reserveB * amountAIn) / (reserveA + amountAIn) */\n      tag_182\n      swap2\n      swap1\n      tag_85\n      jump\t// in\n    tag_182:\n        /* \"contracts/SimpleDEX.sol\":1787:1855  uint256 amountBOut = (reserveB * amountAIn) / (reserveA + amountAIn) */\n      swap1\n      pop\n        /* \"contracts/SimpleDEX.sol\":1887:1888  0 */\n      0x00\n        /* \"contracts/SimpleDEX.sol\":1874:1884  amountBOut */\n      dup2\n        /* \"contracts/SimpleDEX.sol\":1874:1888  amountBOut > 0 */\n      gt\n        /* \"contracts/SimpleDEX.sol\":1866:1919  require(amountBOut > 0, \"Insufficient output amount\") */\n      tag_183\n      jumpi\n      mload(0x40)\n      0x08c379a000000000000000000000000000000000000000000000000000000000\n      dup2\n      mstore\n      0x04\n      add\n      tag_184\n      swap1\n      tag_112\n      jump\t// in\n    tag_184:\n      mload(0x40)\n      dup1\n      swap2\n      sub\n      swap1\n      revert\n    tag_183:\n        /* \"contracts/SimpleDEX.sol\":1951:1959  reserveB */\n      sload(0x05)\n        /* \"contracts/SimpleDEX.sol\":1938:1948  amountBOut */\n      dup2\n        /* \"contracts/SimpleDEX.sol\":1938:1959  amountBOut < reserveB */\n      lt\n        /* \"contracts/SimpleDEX.sol\":1930:1986  require(amountBOut < reserveB, \"Insufficient liquidity\") */\n      tag_185\n      jumpi\n      mload(0x40)\n      0x08c379a000000000000000000000000000000000000000000000000000000000\n      dup2\n      mstore\n      0x04\n      add\n      tag_186\n      swap1\n      tag_105\n      jump\t// in\n    tag_186:\n      mload(0x40)\n      dup1\n      swap2\n      sub\n      swap1\n      revert\n    tag_185:\n        /* \"contracts/SimpleDEX.sol\":2035:2041  tokenA */\n      0x02\n      0x00\n      swap1\n      sload\n      swap1\n      0x0100\n      exp\n      swap1\n      div\n      0xffffffffffffffffffffffffffffffffffffffff\n      and\n        /* \"contracts/SimpleDEX.sol\":2035:2054  tokenA.transferFrom */\n      0xffffffffffffffffffffffffffffffffffffffff\n      and\n      0x23b872dd\n        /* \"contracts/SimpleDEX.sol\":2055:2065  msg.sender */\n      caller\n        /* \"contracts/SimpleDEX.sol\":2075:2079  this */\n      address\n        /* \"contracts/SimpleDEX.sol\":2082:2091  amountAIn */\n      dup6\n        /* \"contracts/SimpleDEX.sol\":2035:2092  tokenA.transferFrom(msg.sender, address(this), amountAIn) */\n      mload(0x40)\n      dup5\n      0xffffffff\n      and\n      0xe0\n      shl\n      dup2\n      mstore\n      0x04\n      add\n      tag_187\n      swap4\n      swap3\n      swap2\n      swap1\n      tag_116\n      jump\t// in\n    tag_187:\n      0x20\n      mload(0x40)\n      dup1\n      dup4\n      sub\n      dup2\n      0x00\n      dup8\n      gas\n      call\n      iszero\n      dup1\n      iszero\n      tag_189\n      jumpi\n      returndatacopy(0x00, 0x00, returndatasize)\n      revert(0x00, returndatasize)\n    tag_189:\n      pop\n      pop\n      pop\n      pop\n      mload(0x40)\n      returndatasize\n      not(0x1f)\n      0x1f\n      dup3\n      add\n      and\n      dup3\n      add\n      dup1\n      0x40\n      mstore\n      pop\n      dup2\n      add\n      swap1\n      tag_190\n      swap2\n      swap1\n      tag_120\n      jump\t// in\n    tag_190:\n      pop\n        /* \"contracts/SimpleDEX.sol\":2103:2109  tokenB */\n      0x03\n      0x00\n      swap1\n      sload\n      swap1\n      0x0100\n      exp\n      swap1\n      div\n      0xffffffffffffffffffffffffffffffffffffffff\n      and\n        /* \"contracts/SimpleDEX.sol\":2103:2118  tokenB.transfer */\n      0xffffffffffffffffffffffffffffffffffffffff\n      and\n      0xa9059cbb\n        /* \"contracts/SimpleDEX.sol\":2119:2129  msg.sender */\n      caller\n        /* \"contracts/SimpleDEX.sol\":2131:2141  amountBOut */\n      dup4\n        /* \"contracts/SimpleDEX.sol\":2103:2142  tokenB.transfer(msg.sender, amountBOut) */\n      mload(0x40)\n      dup4\n      0xffffffff\n      and\n      0xe0\n      shl\n      dup2\n      mstore\n      0x04\n      add\n      tag_191\n      swap3\n      swap2\n      swap1\n      tag_122\n      jump\t// in\n    tag_191:\n      0x20\n      mload(0x40)\n      dup1\n      dup4\n      sub\n      dup2\n      0x00\n      dup8\n      gas\n      call\n      iszero\n      dup1\n      iszero\n      tag_193\n      jumpi\n      returndatacopy(0x00, 0x00, returndatasize)\n      revert(0x00, returndatasize)\n    tag_193:\n      pop\n      pop\n      pop\n      pop\n      mload(0x40)\n      returndatasize\n      not(0x1f)\n      0x1f\n      dup3\n      add\n      and\n      dup3\n      add\n      dup1\n      0x40\n      mstore\n      pop\n      dup2\n      add\n      swap1\n      tag_194\n      swap2\n      swap1\n      tag_120\n      jump\t// in\n    tag_194:\n      pop\n        /* \"contracts/SimpleDEX.sol\":2203:2212  amountAIn */\n      dup2\n        /* \"contracts/SimpleDEX.sol\":2191:2199  reserveA */\n      0x04\n      0x00\n        /* \"contracts/SimpleDEX.sol\":2191:2212  reserveA += amountAIn */\n      dup3\n      dup3\n      sload\n      tag_195\n      swap2\n      swap1\n      tag_107\n      jump\t// in\n    tag_195:\n      swap3\n      pop\n      pop\n      dup2\n      swap1\n      sstore\n      pop\n        /* \"contracts/SimpleDEX.sol\":2235:2245  amountBOut */\n      dup1\n        /* \"contracts/SimpleDEX.sol\":2223:2231  reserveB */\n      0x05\n      0x00\n        /* \"contracts/SimpleDEX.sol\":2223:2245  reserveB -= amountBOut */\n      dup3\n      dup3\n      sload\n      tag_196\n      swap2\n      swap1\n      tag_128\n      jump\t// in\n    tag_196:\n      swap3\n      pop\n      pop\n      dup2\n      swap1\n      sstore\n      pop\n        /* \"contracts/SimpleDEX.sol\":2285:2295  msg.sender */\n      caller\n        /* \"contracts/SimpleDEX.sol\":2271:2353  TokensSwapped(msg.sender, address(tokenA), address(tokenB), amountAIn, amountBOut) */\n      0xffffffffffffffffffffffffffffffffffffffff\n      and\n      0xad56699d0f375866eb895ed27203058a36a713382aaded78eb6b67da266d4332\n        /* \"contracts/SimpleDEX.sol\":2305:2311  tokenA */\n      0x02\n      0x00\n      swap1\n      sload\n      swap1\n      0x0100\n      exp\n      swap1\n      div\n      0xffffffffffffffffffffffffffffffffffffffff\n      and\n        /* \"contracts/SimpleDEX.sol\":2322:2328  tokenB */\n      0x03\n      0x00\n      swap1\n      sload\n      swap1\n      0x0100\n      exp\n      swap1\n      div\n      0xffffffffffffffffffffffffffffffffffffffff\n      and\n        /* \"contracts/SimpleDEX.sol\":2331:2340  amountAIn */\n      dup6\n        /* \"contracts/SimpleDEX.sol\":2342:2352  amountBOut */\n      dup6\n        /* \"contracts/SimpleDEX.sol\":2271:2353  TokensSwapped(msg.sender, address(tokenA), address(tokenB), amountAIn, amountBOut) */\n      mload(0x40)\n      tag_197\n      swap5\n      swap4\n      swap3\n      swap2\n      swap1\n      tag_130\n      jump\t// in\n    tag_197:\n      mload(0x40)\n      dup1\n      swap2\n      sub\n      swap1\n      log2\n        /* \"contracts/SimpleDEX.sol\":1487:2361  {... */\n      pop\n        /* \"@openzeppelin/contracts/utils/ReentrancyGuard.sol\":2542:2562  _nonReentrantAfter() */\n      tag_198\n        /* \"@openzeppelin/contracts/utils/ReentrancyGuard.sol\":2542:2560  _nonReentrantAfter */\n      tag_132\n        /* \"@openzeppelin/contracts/utils/ReentrancyGuard.sol\":2542:2562  _nonReentrantAfter() */\n      jump\t// in\n    tag_198:\n        /* \"contracts/SimpleDEX.sol\":1427:2361  function swapAforB(uint256 amountAIn) external nonReentrant {... */\n      pop\n      jump\t// out\n        /* \"contracts/SimpleDEX.sol\":4506:5054  function getAmountOut(uint256 amountIn, address tokenIn) external view returns (uint256) {... */\n    tag_66:\n        /* \"contracts/SimpleDEX.sol\":4586:4593  uint256 */\n      0x00\n        /* \"contracts/SimpleDEX.sol\":4633:4639  tokenA */\n      0x02\n      0x00\n      swap1\n      sload\n      swap1\n      0x0100\n      exp\n      swap1\n      div\n      0xffffffffffffffffffffffffffffffffffffffff\n      and\n        /* \"contracts/SimpleDEX.sol\":4614:4640  tokenIn == address(tokenA) */\n      0xffffffffffffffffffffffffffffffffffffffff\n      and\n        /* \"contracts/SimpleDEX.sol\":4614:4621  tokenIn */\n      dup3\n        /* \"contracts/SimpleDEX.sol\":4614:4640  tokenIn == address(tokenA) */\n      0xffffffffffffffffffffffffffffffffffffffff\n      and\n      eq\n        /* \"contracts/SimpleDEX.sol\":4614:4670  tokenIn == address(tokenA) || tokenIn == address(tokenB) */\n      dup1\n      tag_200\n      jumpi\n      pop\n        /* \"contracts/SimpleDEX.sol\":4663:4669  tokenB */\n      0x03\n      0x00\n      swap1\n      sload\n      swap1\n      0x0100\n      exp\n      swap1\n      div\n      0xffffffffffffffffffffffffffffffffffffffff\n      and\n        /* \"contracts/SimpleDEX.sol\":4644:4670  tokenIn == address(tokenB) */\n      0xffffffffffffffffffffffffffffffffffffffff\n      and\n        /* \"contracts/SimpleDEX.sol\":4644:4651  tokenIn */\n      dup3\n        /* \"contracts/SimpleDEX.sol\":4644:4670  tokenIn == address(tokenB) */\n      0xffffffffffffffffffffffffffffffffffffffff\n      and\n      eq\n        /* \"contracts/SimpleDEX.sol\":4614:4670  tokenIn == address(tokenA) || tokenIn == address(tokenB) */\n    tag_200:\n        /* \"contracts/SimpleDEX.sol\":4606:4688  require(tokenIn == address(tokenA) || tokenIn == address(tokenB), \"Invalid token\") */\n      tag_201\n      jumpi\n      mload(0x40)\n      0x08c379a000000000000000000000000000000000000000000000000000000000\n      dup2\n      mstore\n      0x04\n      add\n      tag_202\n      swap1\n      tag_76\n      jump\t// in\n    tag_202:\n      mload(0x40)\n      dup1\n      swap2\n      sub\n      swap1\n      revert\n    tag_201:\n        /* \"contracts/SimpleDEX.sol\":4718:4719  0 */\n      0x00\n        /* \"contracts/SimpleDEX.sol\":4707:4715  amountIn */\n      dup4\n        /* \"contracts/SimpleDEX.sol\":4707:4719  amountIn > 0 */\n      gt\n        /* \"contracts/SimpleDEX.sol\":4699:4756  require(amountIn > 0, \"Amount must be greater than zero\") */\n      tag_203\n      jumpi\n      mload(0x40)\n      0x08c379a000000000000000000000000000000000000000000000000000000000\n      dup2\n      mstore\n      0x04\n      add\n      tag_204\n      swap1\n      tag_101\n      jump\t// in\n    tag_204:\n      mload(0x40)\n      dup1\n      swap2\n      sub\n      swap1\n      revert\n    tag_203:\n        /* \"contracts/SimpleDEX.sol\":4786:4787  0 */\n      0x00\n        /* \"contracts/SimpleDEX.sol\":4775:4783  reserveA */\n      sload(0x04)\n        /* \"contracts/SimpleDEX.sol\":4775:4787  reserveA > 0 */\n      gt\n        /* \"contracts/SimpleDEX.sol\":4775:4803  reserveA > 0 && reserveB > 0 */\n      dup1\n      iszero\n      tag_205\n      jumpi\n      pop\n        /* \"contracts/SimpleDEX.sol\":4802:4803  0 */\n      0x00\n        /* \"contracts/SimpleDEX.sol\":4791:4799  reserveB */\n      sload(0x05)\n        /* \"contracts/SimpleDEX.sol\":4791:4803  reserveB > 0 */\n      gt\n        /* \"contracts/SimpleDEX.sol\":4775:4803  reserveA > 0 && reserveB > 0 */\n    tag_205:\n        /* \"contracts/SimpleDEX.sol\":4767:4830  require(reserveA > 0 && reserveB > 0, \"Insufficient liquidity\") */\n      tag_206\n      jumpi\n      mload(0x40)\n      0x08c379a000000000000000000000000000000000000000000000000000000000\n      dup2\n      mstore\n      0x04\n      add\n      tag_207\n      swap1\n      tag_105\n      jump\t// in\n    tag_207:\n      mload(0x40)\n      dup1\n      swap2\n      sub\n      swap1\n      revert\n    tag_206:\n        /* \"contracts/SimpleDEX.sol\":4874:4880  tokenA */\n      0x02\n      0x00\n      swap1\n      sload\n      swap1\n      0x0100\n      exp\n      swap1\n      div\n      0xffffffffffffffffffffffffffffffffffffffff\n      and\n        /* \"contracts/SimpleDEX.sol\":4855:4881  tokenIn == address(tokenA) */\n      0xffffffffffffffffffffffffffffffffffffffff\n      and\n        /* \"contracts/SimpleDEX.sol\":4855:4862  tokenIn */\n      dup3\n        /* \"contracts/SimpleDEX.sol\":4855:4881  tokenIn == address(tokenA) */\n      0xffffffffffffffffffffffffffffffffffffffff\n      and\n      sub\n        /* \"contracts/SimpleDEX.sol\":4851:5047  if (tokenIn == address(tokenA)) {... */\n      tag_208\n      jumpi\n        /* \"contracts/SimpleDEX.sol\":4941:4949  amountIn */\n      dup3\n        /* \"contracts/SimpleDEX.sol\":4930:4938  reserveA */\n      sload(0x04)\n        /* \"contracts/SimpleDEX.sol\":4930:4949  reserveA + amountIn */\n      tag_209\n      swap2\n      swap1\n      tag_107\n      jump\t// in\n    tag_209:\n        /* \"contracts/SimpleDEX.sol\":4917:4925  amountIn */\n      dup4\n        /* \"contracts/SimpleDEX.sol\":4906:4914  reserveB */\n      sload(0x05)\n        /* \"contracts/SimpleDEX.sol\":4906:4925  reserveB * amountIn */\n      tag_210\n      swap2\n      swap1\n      tag_83\n      jump\t// in\n    tag_210:\n        /* \"contracts/SimpleDEX.sol\":4905:4950  (reserveB * amountIn) / (reserveA + amountIn) */\n      tag_211\n      swap2\n      swap1\n      tag_85\n      jump\t// in\n    tag_211:\n        /* \"contracts/SimpleDEX.sol\":4898:4950  return (reserveB * amountIn) / (reserveA + amountIn) */\n      swap1\n      pop\n      jump(tag_199)\n        /* \"contracts/SimpleDEX.sol\":4851:5047  if (tokenIn == address(tokenA)) {... */\n    tag_208:\n        /* \"contracts/SimpleDEX.sol\":5026:5034  amountIn */\n      dup3\n        /* \"contracts/SimpleDEX.sol\":5015:5023  reserveB */\n      sload(0x05)\n        /* \"contracts/SimpleDEX.sol\":5015:5034  reserveB + amountIn */\n      tag_213\n      swap2\n      swap1\n      tag_107\n      jump\t// in\n    tag_213:\n        /* \"contracts/SimpleDEX.sol\":5002:5010  amountIn */\n      dup4\n        /* \"contracts/SimpleDEX.sol\":4991:4999  reserveA */\n      sload(0x04)\n        /* \"contracts/SimpleDEX.sol\":4991:5010  reserveA * amountIn */\n      tag_214\n      swap2\n      swap1\n      tag_83\n      jump\t// in\n    tag_214:\n        /* \"contracts/SimpleDEX.sol\":4990:5035  (reserveA * amountIn) / (reserveB + amountIn) */\n      tag_215\n      swap2\n      swap1\n      tag_85\n      jump\t// in\n    tag_215:\n        /* \"contracts/SimpleDEX.sol\":4983:5035  return (reserveA * amountIn) / (reserveB + amountIn) */\n      swap1\n      pop\n        /* \"contracts/SimpleDEX.sol\":4506:5054  function getAmountOut(uint256 amountIn, address tokenIn) external view returns (uint256) {... */\n    tag_199:\n      swap3\n      swap2\n      pop\n      pop\n      jump\t// out\n        /* \"@openzeppelin/contracts/access/Ownable.sol\":2543:2758  function transferOwnership(address newOwner) public virtual onlyOwner {... */\n    tag_70:\n        /* \"@openzeppelin/contracts/access/Ownable.sol\":1531:1544  _checkOwner() */\n      tag_217\n        /* \"@openzeppelin/contracts/access/Ownable.sol\":1531:1542  _checkOwner */\n      tag_91\n        /* \"@openzeppelin/contracts/access/Ownable.sol\":1531:1544  _checkOwner() */\n      jump\t// in\n    tag_217:\n        /* \"@openzeppelin/contracts/access/Ownable.sol\":2647:2648  0 */\n      0x00\n        /* \"@openzeppelin/contracts/access/Ownable.sol\":2627:2649  newOwner == address(0) */\n      0xffffffffffffffffffffffffffffffffffffffff\n      and\n        /* \"@openzeppelin/contracts/access/Ownable.sol\":2627:2635  newOwner */\n      dup2\n        /* \"@openzeppelin/contracts/access/Ownable.sol\":2627:2649  newOwner == address(0) */\n      0xffffffffffffffffffffffffffffffffffffffff\n      and\n      sub\n        /* \"@openzeppelin/contracts/access/Ownable.sol\":2623:2714  if (newOwner == address(0)) {... */\n      tag_219\n      jumpi\n        /* \"@openzeppelin/contracts/access/Ownable.sol\":2700:2701  0 */\n      0x00\n        /* \"@openzeppelin/contracts/access/Ownable.sol\":2672:2703  OwnableInvalidOwner(address(0)) */\n      mload(0x40)\n      0x1e4fbdf700000000000000000000000000000000000000000000000000000000\n      dup2\n      mstore\n      0x04\n      add\n      tag_220\n      swap2\n      swap1\n      tag_49\n      jump\t// in\n    tag_220:\n      mload(0x40)\n      dup1\n      swap2\n      sub\n      swap1\n      revert\n        /* \"@openzeppelin/contracts/access/Ownable.sol\":2623:2714  if (newOwner == address(0)) {... */\n    tag_219:\n        /* \"@openzeppelin/contracts/access/Ownable.sol\":2723:2751  _transferOwnership(newOwner) */\n      tag_221\n        /* \"@openzeppelin/contracts/access/Ownable.sol\":2742:2750  newOwner */\n      dup2\n        /* \"@openzeppelin/contracts/access/Ownable.sol\":2723:2741  _transferOwnership */\n      tag_94\n        /* \"@openzeppelin/contracts/access/Ownable.sol\":2723:2751  _transferOwnership(newOwner) */\n      jump\t// in\n    tag_221:\n        /* \"@openzeppelin/contracts/access/Ownable.sol\":2543:2758  function transferOwnership(address newOwner) public virtual onlyOwner {... */\n      pop\n      jump\t// out\n        /* \"@openzeppelin/contracts/access/Ownable.sol\":1796:1958  function _checkOwner() internal view virtual {... */\n    tag_91:\n        /* \"@openzeppelin/contracts/access/Ownable.sol\":1866:1878  _msgSender() */\n      tag_223\n        /* \"@openzeppelin/contracts/access/Ownable.sol\":1866:1876  _msgSender */\n      tag_224\n        /* \"@openzeppelin/contracts/access/Ownable.sol\":1866:1878  _msgSender() */\n      jump\t// in\n    tag_223:\n        /* \"@openzeppelin/contracts/access/Ownable.sol\":1855:1878  owner() != _msgSender() */\n      0xffffffffffffffffffffffffffffffffffffffff\n      and\n        /* \"@openzeppelin/contracts/access/Ownable.sol\":1855:1862  owner() */\n      tag_225\n        /* \"@openzeppelin/contracts/access/Ownable.sol\":1855:1860  owner */\n      tag_47\n        /* \"@openzeppelin/contracts/access/Ownable.sol\":1855:1862  owner() */\n      jump\t// in\n    tag_225:\n        /* \"@openzeppelin/contracts/access/Ownable.sol\":1855:1878  owner() != _msgSender() */\n      0xffffffffffffffffffffffffffffffffffffffff\n      and\n      eq\n        /* \"@openzeppelin/contracts/access/Ownable.sol\":1851:1952  if (owner() != _msgSender()) {... */\n      tag_226\n      jumpi\n        /* \"@openzeppelin/contracts/access/Ownable.sol\":1928:1940  _msgSender() */\n      tag_227\n        /* \"@openzeppelin/contracts/access/Ownable.sol\":1928:1938  _msgSender */\n      tag_224\n        /* \"@openzeppelin/contracts/access/Ownable.sol\":1928:1940  _msgSender() */\n      jump\t// in\n    tag_227:\n        /* \"@openzeppelin/contracts/access/Ownable.sol\":1901:1941  OwnableUnauthorizedAccount(_msgSender()) */\n      mload(0x40)\n      0x118cdaa700000000000000000000000000000000000000000000000000000000\n      dup2\n      mstore\n      0x04\n      add\n      tag_228\n      swap2\n      swap1\n      tag_49\n      jump\t// in\n    tag_228:\n      mload(0x40)\n      dup1\n      swap2\n      sub\n      swap1\n      revert\n        /* \"@openzeppelin/contracts/access/Ownable.sol\":1851:1952  if (owner() != _msgSender()) {... */\n    tag_226:\n        /* \"@openzeppelin/contracts/access/Ownable.sol\":1796:1958  function _checkOwner() internal view virtual {... */\n      jump\t// out\n        /* \"@openzeppelin/contracts/access/Ownable.sol\":2912:3099  function _transferOwnership(address newOwner) internal virtual {... */\n    tag_94:\n        /* \"@openzeppelin/contracts/access/Ownable.sol\":2985:3001  address oldOwner */\n      0x00\n        /* \"@openzeppelin/contracts/access/Ownable.sol\":3004:3010  _owner */\n      0x00\n      0x00\n      swap1\n      sload\n      swap1\n      0x0100\n      exp\n      swap1\n      div\n      0xffffffffffffffffffffffffffffffffffffffff\n      and\n        /* \"@openzeppelin/contracts/access/Ownable.sol\":2985:3010  address oldOwner = _owner */\n      swap1\n      pop\n        /* \"@openzeppelin/contracts/access/Ownable.sol\":3029:3037  newOwner */\n      dup2\n        /* \"@openzeppelin/contracts/access/Ownable.sol\":3020:3026  _owner */\n      0x00\n      0x00\n        /* \"@openzeppelin/contracts/access/Ownable.sol\":3020:3037  _owner = newOwner */\n      0x0100\n      exp\n      dup2\n      sload\n      dup2\n      0xffffffffffffffffffffffffffffffffffffffff\n      mul\n      not\n      and\n      swap1\n      dup4\n      0xffffffffffffffffffffffffffffffffffffffff\n      and\n      mul\n      or\n      swap1\n      sstore\n      pop\n        /* \"@openzeppelin/contracts/access/Ownable.sol\":3083:3091  newOwner */\n      dup2\n        /* \"@openzeppelin/contracts/access/Ownable.sol\":3052:3092  OwnershipTransferred(oldOwner, newOwner) */\n      0xffffffffffffffffffffffffffffffffffffffff\n      and\n        /* \"@openzeppelin/contracts/access/Ownable.sol\":3073:3081  oldOwner */\n      dup2\n        /* \"@openzeppelin/contracts/access/Ownable.sol\":3052:3092  OwnershipTransferred(oldOwner, newOwner) */\n      0xffffffffffffffffffffffffffffffffffffffff\n      and\n      0x8be0079c531659141344cd1fd0a4f28419497f9722a3daafe3b4186f6b6457e0\n      mload(0x40)\n      mload(0x40)\n      dup1\n      swap2\n      sub\n      swap1\n      log3\n        /* \"@openzeppelin/contracts/access/Ownable.sol\":2975:3099  {... */\n      pop\n        /* \"@openzeppelin/contracts/access/Ownable.sol\":2912:3099  function _transferOwnership(address newOwner) internal virtual {... */\n      pop\n      jump\t// out\n        /* \"@openzeppelin/contracts/utils/ReentrancyGuard.sol\":2575:2882  function _nonReentrantBefore() private {... */\n    tag_97:\n        /* \"@openzeppelin/contracts/utils/ReentrancyGuard.sol\":1899:1900  2 */\n      0x02\n        /* \"@openzeppelin/contracts/utils/ReentrancyGuard.sol\":2702:2709  _status */\n      sload(0x01)\n        /* \"@openzeppelin/contracts/utils/ReentrancyGuard.sol\":2702:2720  _status == ENTERED */\n      sub\n        /* \"@openzeppelin/contracts/utils/ReentrancyGuard.sol\":2698:2784  if (_status == ENTERED) {... */\n      tag_231\n      jumpi\n        /* \"@openzeppelin/contracts/utils/ReentrancyGuard.sol\":2743:2773  ReentrancyGuardReentrantCall() */\n      mload(0x40)\n      0x3ee5aeb500000000000000000000000000000000000000000000000000000000\n      dup2\n      mstore\n      0x04\n      add\n      mload(0x40)\n      dup1\n      swap2\n      sub\n      swap1\n      revert\n        /* \"@openzeppelin/contracts/utils/ReentrancyGuard.sol\":2698:2784  if (_status == ENTERED) {... */\n    tag_231:\n        /* \"@openzeppelin/contracts/utils/ReentrancyGuard.sol\":1899:1900  2 */\n      0x02\n        /* \"@openzeppelin/contracts/utils/ReentrancyGuard.sol\":2858:2865  _status */\n      0x01\n        /* \"@openzeppelin/contracts/utils/ReentrancyGuard.sol\":2858:2875  _status = ENTERED */\n      dup2\n      swap1\n      sstore\n      pop\n        /* \"@openzeppelin/contracts/utils/ReentrancyGuard.sol\":2575:2882  function _nonReentrantBefore() private {... */\n      jump\t// out\n        /* \"@openzeppelin/contracts/utils/ReentrancyGuard.sol\":2888:3096  function _nonReentrantAfter() private {... */\n    tag_132:\n        /* \"@openzeppelin/contracts/utils/ReentrancyGuard.sol\":1857:1858  1 */\n      0x01\n        /* \"@openzeppelin/contracts/utils/ReentrancyGuard.sol\":3068:3075  _status */\n      dup1\n        /* \"@openzeppelin/contracts/utils/ReentrancyGuard.sol\":3068:3089  _status = NOT_ENTERED */\n      dup2\n      swap1\n      sstore\n      pop\n        /* \"@openzeppelin/contracts/utils/ReentrancyGuard.sol\":2888:3096  function _nonReentrantAfter() private {... */\n      jump\t// out\n        /* \"@openzeppelin/contracts/utils/Context.sol\":656:752  function _msgSender() internal view virtual returns (address) {... */\n    tag_224:\n        /* \"@openzeppelin/contracts/utils/Context.sol\":709:716  address */\n      0x00\n        /* \"@openzeppelin/contracts/utils/Context.sol\":735:745  msg.sender */\n      caller\n        /* \"@openzeppelin/contracts/utils/Context.sol\":728:745  return msg.sender */\n      swap1\n      pop\n        /* \"@openzeppelin/contracts/utils/Context.sol\":656:752  function _msgSender() internal view virtual returns (address) {... */\n      swap1\n      jump\t// out\n        /* \"#utility.yul\":7:84   */\n    tag_234:\n        /* \"#utility.yul\":44:51   */\n      0x00\n        /* \"#utility.yul\":73:78   */\n      dup2\n        /* \"#utility.yul\":62:78   */\n      swap1\n      pop\n        /* \"#utility.yul\":7:84   */\n      swap2\n      swap1\n      pop\n      jump\t// out\n        /* \"#utility.yul\":90:208   */\n    tag_235:\n        /* \"#utility.yul\":177:201   */\n      tag_272\n        /* \"#utility.yul\":195:200   */\n      dup2\n        /* \"#utility.yul\":177:201   */\n      tag_234\n      jump\t// in\n    tag_272:\n        /* \"#utility.yul\":172:175   */\n      dup3\n        /* \"#utility.yul\":165:202   */\n      mstore\n        /* \"#utility.yul\":90:208   */\n      pop\n      pop\n      jump\t// out\n        /* \"#utility.yul\":214:546   */\n    tag_23:\n        /* \"#utility.yul\":335:339   */\n      0x00\n        /* \"#utility.yul\":373:375   */\n      0x40\n        /* \"#utility.yul\":362:371   */\n      dup3\n        /* \"#utility.yul\":358:376   */\n      add\n        /* \"#utility.yul\":350:376   */\n      swap1\n      pop\n        /* \"#utility.yul\":386:457   */\n      tag_274\n        /* \"#utility.yul\":454:455   */\n      0x00\n        /* \"#utility.yul\":443:452   */\n      dup4\n        /* \"#utility.yul\":439:456   */\n      add\n        /* \"#utility.yul\":430:436   */\n      dup6\n        /* \"#utility.yul\":386:457   */\n      tag_235\n      jump\t// in\n    tag_274:\n        /* \"#utility.yul\":467:539   */\n      tag_275\n        /* \"#utility.yul\":535:537   */\n      0x20\n        /* \"#utility.yul\":524:533   */\n      dup4\n        /* \"#utility.yul\":520:538   */\n      add\n        /* \"#utility.yul\":511:517   */\n      dup5\n        /* \"#utility.yul\":467:539   */\n      tag_235\n      jump\t// in\n    tag_275:\n        /* \"#utility.yul\":214:546   */\n      swap4\n      swap3\n      pop\n      pop\n      pop\n      jump\t// out\n        /* \"#utility.yul\":552:678   */\n    tag_236:\n        /* \"#utility.yul\":589:596   */\n      0x00\n        /* \"#utility.yul\":629:671   */\n      0xffffffffffffffffffffffffffffffffffffffff\n        /* \"#utility.yul\":622:627   */\n      dup3\n        /* \"#utility.yul\":618:672   */\n      and\n        /* \"#utility.yul\":607:672   */\n      swap1\n      pop\n        /* \"#utility.yul\":552:678   */\n      swap2\n      swap1\n      pop\n      jump\t// out\n        /* \"#utility.yul\":684:744   */\n    tag_237:\n        /* \"#utility.yul\":712:715   */\n      0x00\n        /* \"#utility.yul\":733:738   */\n      dup2\n        /* \"#utility.yul\":726:738   */\n      swap1\n      pop\n        /* \"#utility.yul\":684:744   */\n      swap2\n      swap1\n      pop\n      jump\t// out\n        /* \"#utility.yul\":750:892   */\n    tag_238:\n        /* \"#utility.yul\":800:809   */\n      0x00\n        /* \"#utility.yul\":833:886   */\n      tag_279\n        /* \"#utility.yul\":851:885   */\n      tag_280\n        /* \"#utility.yul\":860:884   */\n      tag_281\n        /* \"#utility.yul\":878:883   */\n      dup5\n        /* \"#utility.yul\":860:884   */\n      tag_236\n      jump\t// in\n    tag_281:\n        /* \"#utility.yul\":851:885   */\n      tag_237\n      jump\t// in\n    tag_280:\n        /* \"#utility.yul\":833:886   */\n      tag_236\n      jump\t// in\n    tag_279:\n        /* \"#utility.yul\":820:886   */\n      swap1\n      pop\n        /* \"#utility.yul\":750:892   */\n      swap2\n      swap1\n      pop\n      jump\t// out\n        /* \"#utility.yul\":898:1024   */\n    tag_239:\n        /* \"#utility.yul\":948:957   */\n      0x00\n        /* \"#utility.yul\":981:1018   */\n      tag_283\n        /* \"#utility.yul\":1012:1017   */\n      dup3\n        /* \"#utility.yul\":981:1018   */\n      tag_238\n      jump\t// in\n    tag_283:\n        /* \"#utility.yul\":968:1018   */\n      swap1\n      pop\n        /* \"#utility.yul\":898:1024   */\n      swap2\n      swap1\n      pop\n      jump\t// out\n        /* \"#utility.yul\":1030:1170   */\n    tag_240:\n        /* \"#utility.yul\":1094:1103   */\n      0x00\n        /* \"#utility.yul\":1127:1164   */\n      tag_285\n        /* \"#utility.yul\":1158:1163   */\n      dup3\n        /* \"#utility.yul\":1127:1164   */\n      tag_239\n      jump\t// in\n    tag_285:\n        /* \"#utility.yul\":1114:1164   */\n      swap1\n      pop\n        /* \"#utility.yul\":1030:1170   */\n      swap2\n      swap1\n      pop\n      jump\t// out\n        /* \"#utility.yul\":1176:1335   */\n    tag_241:\n        /* \"#utility.yul\":1277:1328   */\n      tag_287\n        /* \"#utility.yul\":1322:1327   */\n      dup2\n        /* \"#utility.yul\":1277:1328   */\n      tag_240\n      jump\t// in\n    tag_287:\n        /* \"#utility.yul\":1272:1275   */\n      dup3\n        /* \"#utility.yul\":1265:1329   */\n      mstore\n        /* \"#utility.yul\":1176:1335   */\n      pop\n      pop\n      jump\t// out\n        /* \"#utility.yul\":1341:1591   */\n    tag_27:\n        /* \"#utility.yul\":1448:1452   */\n      0x00\n        /* \"#utility.yul\":1486:1488   */\n      0x20\n        /* \"#utility.yul\":1475:1484   */\n      dup3\n        /* \"#utility.yul\":1471:1489   */\n      add\n        /* \"#utility.yul\":1463:1489   */\n      swap1\n      pop\n        /* \"#utility.yul\":1499:1584   */\n      tag_289\n        /* \"#utility.yul\":1581:1582   */\n      0x00\n        /* \"#utility.yul\":1570:1579   */\n      dup4\n        /* \"#utility.yul\":1566:1583   */\n      add\n        /* \"#utility.yul\":1557:1563   */\n      dup5\n        /* \"#utility.yul\":1499:1584   */\n      tag_241\n      jump\t// in\n    tag_289:\n        /* \"#utility.yul\":1341:1591   */\n      swap3\n      swap2\n      pop\n      pop\n      jump\t// out\n        /* \"#utility.yul\":1597:1819   */\n    tag_31:\n        /* \"#utility.yul\":1690:1694   */\n      0x00\n        /* \"#utility.yul\":1728:1730   */\n      0x20\n        /* \"#utility.yul\":1717:1726   */\n      dup3\n        /* \"#utility.yul\":1713:1731   */\n      add\n        /* \"#utility.yul\":1705:1731   */\n      swap1\n      pop\n        /* \"#utility.yul\":1741:1812   */\n      tag_291\n        /* \"#utility.yul\":1809:1810   */\n      0x00\n        /* \"#utility.yul\":1798:1807   */\n      dup4\n        /* \"#utility.yul\":1794:1811   */\n      add\n        /* \"#utility.yul\":1785:1791   */\n      dup5\n        /* \"#utility.yul\":1741:1812   */\n      tag_235\n      jump\t// in\n    tag_291:\n        /* \"#utility.yul\":1597:1819   */\n      swap3\n      swap2\n      pop\n      pop\n      jump\t// out\n        /* \"#utility.yul\":1906:2023   */\n    tag_243:\n        /* \"#utility.yul\":2015:2016   */\n      0x00\n        /* \"#utility.yul\":2012:2013   */\n      0x00\n        /* \"#utility.yul\":2005:2017   */\n      revert\n        /* \"#utility.yul\":2152:2248   */\n    tag_245:\n        /* \"#utility.yul\":2189:2196   */\n      0x00\n        /* \"#utility.yul\":2218:2242   */\n      tag_296\n        /* \"#utility.yul\":2236:2241   */\n      dup3\n        /* \"#utility.yul\":2218:2242   */\n      tag_236\n      jump\t// in\n    tag_296:\n        /* \"#utility.yul\":2207:2242   */\n      swap1\n      pop\n        /* \"#utility.yul\":2152:2248   */\n      swap2\n      swap1\n      pop\n      jump\t// out\n        /* \"#utility.yul\":2254:2376   */\n    tag_246:\n        /* \"#utility.yul\":2327:2351   */\n      tag_298\n        /* \"#utility.yul\":2345:2350   */\n      dup2\n        /* \"#utility.yul\":2327:2351   */\n      tag_245\n      jump\t// in\n    tag_298:\n        /* \"#utility.yul\":2320:2325   */\n      dup2\n        /* \"#utility.yul\":2317:2352   */\n      eq\n        /* \"#utility.yul\":2307:2370   */\n      tag_299\n      jumpi\n        /* \"#utility.yul\":2366:2367   */\n      0x00\n        /* \"#utility.yul\":2363:2364   */\n      0x00\n        /* \"#utility.yul\":2356:2368   */\n      revert\n        /* \"#utility.yul\":2307:2370   */\n    tag_299:\n        /* \"#utility.yul\":2254:2376   */\n      pop\n      jump\t// out\n        /* \"#utility.yul\":2382:2521   */\n    tag_247:\n        /* \"#utility.yul\":2428:2433   */\n      0x00\n        /* \"#utility.yul\":2466:2472   */\n      dup2\n        /* \"#utility.yul\":2453:2473   */\n      calldataload\n        /* \"#utility.yul\":2444:2473   */\n      swap1\n      pop\n        /* \"#utility.yul\":2482:2515   */\n      tag_301\n        /* \"#utility.yul\":2509:2514   */\n      dup2\n        /* \"#utility.yul\":2482:2515   */\n      tag_246\n      jump\t// in\n    tag_301:\n        /* \"#utility.yul\":2382:2521   */\n      swap3\n      swap2\n      pop\n      pop\n      jump\t// out\n        /* \"#utility.yul\":2527:2856   */\n    tag_34:\n        /* \"#utility.yul\":2586:2592   */\n      0x00\n        /* \"#utility.yul\":2635:2637   */\n      0x20\n        /* \"#utility.yul\":2623:2632   */\n      dup3\n        /* \"#utility.yul\":2614:2621   */\n      dup5\n        /* \"#utility.yul\":2610:2633   */\n      sub\n        /* \"#utility.yul\":2606:2638   */\n      slt\n        /* \"#utility.yul\":2603:2722   */\n      iszero\n      tag_303\n      jumpi\n        /* \"#utility.yul\":2641:2720   */\n      tag_304\n      tag_243\n      jump\t// in\n    tag_304:\n        /* \"#utility.yul\":2603:2722   */\n    tag_303:\n        /* \"#utility.yul\":2761:2762   */\n      0x00\n        /* \"#utility.yul\":2786:2839   */\n      tag_305\n        /* \"#utility.yul\":2831:2838   */\n      dup5\n        /* \"#utility.yul\":2822:2828   */\n      dup3\n        /* \"#utility.yul\":2811:2820   */\n      dup6\n        /* \"#utility.yul\":2807:2829   */\n      add\n        /* \"#utility.yul\":2786:2839   */\n      tag_247\n      jump\t// in\n    tag_305:\n        /* \"#utility.yul\":2776:2839   */\n      swap2\n      pop\n        /* \"#utility.yul\":2732:2849   */\n      pop\n        /* \"#utility.yul\":2527:2856   */\n      swap3\n      swap2\n      pop\n      pop\n      jump\t// out\n        /* \"#utility.yul\":2862:2984   */\n    tag_248:\n        /* \"#utility.yul\":2935:2959   */\n      tag_307\n        /* \"#utility.yul\":2953:2958   */\n      dup2\n        /* \"#utility.yul\":2935:2959   */\n      tag_234\n      jump\t// in\n    tag_307:\n        /* \"#utility.yul\":2928:2933   */\n      dup2\n        /* \"#utility.yul\":2925:2960   */\n      eq\n        /* \"#utility.yul\":2915:2978   */\n      tag_308\n      jumpi\n        /* \"#utility.yul\":2974:2975   */\n      0x00\n        /* \"#utility.yul\":2971:2972   */\n      0x00\n        /* \"#utility.yul\":2964:2976   */\n      revert\n        /* \"#utility.yul\":2915:2978   */\n    tag_308:\n        /* \"#utility.yul\":2862:2984   */\n      pop\n      jump\t// out\n        /* \"#utility.yul\":2990:3129   */\n    tag_249:\n        /* \"#utility.yul\":3036:3041   */\n      0x00\n        /* \"#utility.yul\":3074:3080   */\n      dup2\n        /* \"#utility.yul\":3061:3081   */\n      calldataload\n        /* \"#utility.yul\":3052:3081   */\n      swap1\n      pop\n        /* \"#utility.yul\":3090:3123   */\n      tag_310\n        /* \"#utility.yul\":3117:3122   */\n      dup2\n        /* \"#utility.yul\":3090:3123   */\n      tag_248\n      jump\t// in\n    tag_310:\n        /* \"#utility.yul\":2990:3129   */\n      swap3\n      swap2\n      pop\n      pop\n      jump\t// out\n        /* \"#utility.yul\":3135:3464   */\n    tag_44:\n        /* \"#utility.yul\":3194:3200   */\n      0x00\n        /* \"#utility.yul\":3243:3245   */\n      0x20\n        /* \"#utility.yul\":3231:3240   */\n      dup3\n        /* \"#utility.yul\":3222:3229   */\n      dup5\n        /* \"#utility.yul\":3218:3241   */\n      sub\n        /* \"#utility.yul\":3214:3246   */\n      slt\n        /* \"#utility.yul\":3211:3330   */\n      iszero\n      tag_312\n      jumpi\n        /* \"#utility.yul\":3249:3328   */\n      tag_313\n      tag_243\n      jump\t// in\n    tag_313:\n        /* \"#utility.yul\":3211:3330   */\n    tag_312:\n        /* \"#utility.yul\":3369:3370   */\n      0x00\n        /* \"#utility.yul\":3394:3447   */\n      tag_314\n        /* \"#utility.yul\":3439:3446   */\n      dup5\n        /* \"#utility.yul\":3430:3436   */\n      dup3\n        /* \"#utility.yul\":3419:3428   */\n      dup6\n        /* \"#utility.yul\":3415:3437   */\n      add\n        /* \"#utility.yul\":3394:3447   */\n      tag_249\n      jump\t// in\n    tag_314:\n        /* \"#utility.yul\":3384:3447   */\n      swap2\n      pop\n        /* \"#utility.yul\":3340:3457   */\n      pop\n        /* \"#utility.yul\":3135:3464   */\n      swap3\n      swap2\n      pop\n      pop\n      jump\t// out\n        /* \"#utility.yul\":3470:3588   */\n    tag_250:\n        /* \"#utility.yul\":3557:3581   */\n      tag_316\n        /* \"#utility.yul\":3575:3580   */\n      dup2\n        /* \"#utility.yul\":3557:3581   */\n      tag_245\n      jump\t// in\n    tag_316:\n        /* \"#utility.yul\":3552:3555   */\n      dup3\n        /* \"#utility.yul\":3545:3582   */\n      mstore\n        /* \"#utility.yul\":3470:3588   */\n      pop\n      pop\n      jump\t// out\n        /* \"#utility.yul\":3594:3816   */\n    tag_49:\n        /* \"#utility.yul\":3687:3691   */\n      0x00\n        /* \"#utility.yul\":3725:3727   */\n      0x20\n        /* \"#utility.yul\":3714:3723   */\n      dup3\n        /* \"#utility.yul\":3710:3728   */\n      add\n        /* \"#utility.yul\":3702:3728   */\n      swap1\n      pop\n        /* \"#utility.yul\":3738:3809   */\n      tag_318\n        /* \"#utility.yul\":3806:3807   */\n      0x00\n        /* \"#utility.yul\":3795:3804   */\n      dup4\n        /* \"#utility.yul\":3791:3808   */\n      add\n        /* \"#utility.yul\":3782:3788   */\n      dup5\n        /* \"#utility.yul\":3738:3809   */\n      tag_250\n      jump\t// in\n    tag_318:\n        /* \"#utility.yul\":3594:3816   */\n      swap3\n      swap2\n      pop\n      pop\n      jump\t// out\n        /* \"#utility.yul\":3822:4296   */\n    tag_52:\n        /* \"#utility.yul\":3890:3896   */\n      0x00\n        /* \"#utility.yul\":3898:3904   */\n      0x00\n        /* \"#utility.yul\":3947:3949   */\n      0x40\n        /* \"#utility.yul\":3935:3944   */\n      dup4\n        /* \"#utility.yul\":3926:3933   */\n      dup6\n        /* \"#utility.yul\":3922:3945   */\n      sub\n        /* \"#utility.yul\":3918:3950   */\n      slt\n        /* \"#utility.yul\":3915:4034   */\n      iszero\n      tag_320\n      jumpi\n        /* \"#utility.yul\":3953:4032   */\n      tag_321\n      tag_243\n      jump\t// in\n    tag_321:\n        /* \"#utility.yul\":3915:4034   */\n    tag_320:\n        /* \"#utility.yul\":4073:4074   */\n      0x00\n        /* \"#utility.yul\":4098:4151   */\n      tag_322\n        /* \"#utility.yul\":4143:4150   */\n      dup6\n        /* \"#utility.yul\":4134:4140   */\n      dup3\n        /* \"#utility.yul\":4123:4132   */\n      dup7\n        /* \"#utility.yul\":4119:4141   */\n      add\n        /* \"#utility.yul\":4098:4151   */\n      tag_249\n      jump\t// in\n    tag_322:\n        /* \"#utility.yul\":4088:4151   */\n      swap3\n      pop\n        /* \"#utility.yul\":4044:4161   */\n      pop\n        /* \"#utility.yul\":4200:4202   */\n      0x20\n        /* \"#utility.yul\":4226:4279   */\n      tag_323\n        /* \"#utility.yul\":4271:4278   */\n      dup6\n        /* \"#utility.yul\":4262:4268   */\n      dup3\n        /* \"#utility.yul\":4251:4260   */\n      dup7\n        /* \"#utility.yul\":4247:4269   */\n      add\n        /* \"#utility.yul\":4226:4279   */\n      tag_249\n      jump\t// in\n    tag_323:\n        /* \"#utility.yul\":4216:4279   */\n      swap2\n      pop\n        /* \"#utility.yul\":4171:4289   */\n      pop\n        /* \"#utility.yul\":3822:4296   */\n      swap3\n      pop\n      swap3\n      swap1\n      pop\n      jump\t// out\n        /* \"#utility.yul\":4302:4776   */\n    tag_65:\n        /* \"#utility.yul\":4370:4376   */\n      0x00\n        /* \"#utility.yul\":4378:4384   */\n      0x00\n        /* \"#utility.yul\":4427:4429   */\n      0x40\n        /* \"#utility.yul\":4415:4424   */\n      dup4\n        /* \"#utility.yul\":4406:4413   */\n      dup6\n        /* \"#utility.yul\":4402:4425   */\n      sub\n        /* \"#utility.yul\":4398:4430   */\n      slt\n        /* \"#utility.yul\":4395:4514   */\n      iszero\n      tag_325\n      jumpi\n        /* \"#utility.yul\":4433:4512   */\n      tag_326\n      tag_243\n      jump\t// in\n    tag_326:\n        /* \"#utility.yul\":4395:4514   */\n    tag_325:\n        /* \"#utility.yul\":4553:4554   */\n      0x00\n        /* \"#utility.yul\":4578:4631   */\n      tag_327\n        /* \"#utility.yul\":4623:4630   */\n      dup6\n        /* \"#utility.yul\":4614:4620   */\n      dup3\n        /* \"#utility.yul\":4603:4612   */\n      dup7\n        /* \"#utility.yul\":4599:4621   */\n      add\n        /* \"#utility.yul\":4578:4631   */\n      tag_249\n      jump\t// in\n    tag_327:\n        /* \"#utility.yul\":4568:4631   */\n      swap3\n      pop\n        /* \"#utility.yul\":4524:4641   */\n      pop\n        /* \"#utility.yul\":4680:4682   */\n      0x20\n        /* \"#utility.yul\":4706:4759   */\n      tag_328\n        /* \"#utility.yul\":4751:4758   */\n      dup6\n        /* \"#utility.yul\":4742:4748   */\n      dup3\n        /* \"#utility.yul\":4731:4740   */\n      dup7\n        /* \"#utility.yul\":4727:4749   */\n      add\n        /* \"#utility.yul\":4706:4759   */\n      tag_247\n      jump\t// in\n    tag_328:\n        /* \"#utility.yul\":4696:4759   */\n      swap2\n      pop\n        /* \"#utility.yul\":4651:4769   */\n      pop\n        /* \"#utility.yul\":4302:4776   */\n      swap3\n      pop\n      swap3\n      swap1\n      pop\n      jump\t// out\n        /* \"#utility.yul\":4782:4951   */\n    tag_251:\n        /* \"#utility.yul\":4866:4877   */\n      0x00\n        /* \"#utility.yul\":4900:4906   */\n      dup3\n        /* \"#utility.yul\":4895:4898   */\n      dup3\n        /* \"#utility.yul\":4888:4907   */\n      mstore\n        /* \"#utility.yul\":4940:4944   */\n      0x20\n        /* \"#utility.yul\":4935:4938   */\n      dup3\n        /* \"#utility.yul\":4931:4945   */\n      add\n        /* \"#utility.yul\":4916:4945   */\n      swap1\n      pop\n        /* \"#utility.yul\":4782:4951   */\n      swap3\n      swap2\n      pop\n      pop\n      jump\t// out\n        /* \"#utility.yul\":4957:5120   */\n    tag_252:\n        /* \"#utility.yul\":5097:5112   */\n      0x496e76616c696420746f6b656e00000000000000000000000000000000000000\n        /* \"#utility.yul\":5093:5094   */\n      0x00\n        /* \"#utility.yul\":5085:5091   */\n      dup3\n        /* \"#utility.yul\":5081:5095   */\n      add\n        /* \"#utility.yul\":5074:5113   */\n      mstore\n        /* \"#utility.yul\":4957:5120   */\n      pop\n      jump\t// out\n        /* \"#utility.yul\":5126:5492   */\n    tag_253:\n        /* \"#utility.yul\":5268:5271   */\n      0x00\n        /* \"#utility.yul\":5289:5356   */\n      tag_332\n        /* \"#utility.yul\":5353:5355   */\n      0x0d\n        /* \"#utility.yul\":5348:5351   */\n      dup4\n        /* \"#utility.yul\":5289:5356   */\n      tag_251\n      jump\t// in\n    tag_332:\n        /* \"#utility.yul\":5282:5356   */\n      swap2\n      pop\n        /* \"#utility.yul\":5365:5458   */\n      tag_333\n        /* \"#utility.yul\":5454:5457   */\n      dup3\n        /* \"#utility.yul\":5365:5458   */\n      tag_252\n      jump\t// in\n    tag_333:\n        /* \"#utility.yul\":5483:5485   */\n      0x20\n        /* \"#utility.yul\":5478:5481   */\n      dup3\n        /* \"#utility.yul\":5474:5486   */\n      add\n        /* \"#utility.yul\":5467:5486   */\n      swap1\n      pop\n        /* \"#utility.yul\":5126:5492   */\n      swap2\n      swap1\n      pop\n      jump\t// out\n        /* \"#utility.yul\":5498:5917   */\n    tag_76:\n        /* \"#utility.yul\":5664:5668   */\n      0x00\n        /* \"#utility.yul\":5702:5704   */\n      0x20\n        /* \"#utility.yul\":5691:5700   */\n      dup3\n        /* \"#utility.yul\":5687:5705   */\n      add\n        /* \"#utility.yul\":5679:5705   */\n      swap1\n      pop\n        /* \"#utility.yul\":5751:5760   */\n      dup2\n        /* \"#utility.yul\":5745:5749   */\n      dup2\n        /* \"#utility.yul\":5741:5761   */\n      sub\n        /* \"#utility.yul\":5737:5738   */\n      0x00\n        /* \"#utility.yul\":5726:5735   */\n      dup4\n        /* \"#utility.yul\":5722:5739   */\n      add\n        /* \"#utility.yul\":5715:5762   */\n      mstore\n        /* \"#utility.yul\":5779:5910   */\n      tag_335\n        /* \"#utility.yul\":5905:5909   */\n      dup2\n        /* \"#utility.yul\":5779:5910   */\n      tag_253\n      jump\t// in\n    tag_335:\n        /* \"#utility.yul\":5771:5910   */\n      swap1\n      pop\n        /* \"#utility.yul\":5498:5917   */\n      swap2\n      swap1\n      pop\n      jump\t// out\n        /* \"#utility.yul\":5923:6085   */\n    tag_254:\n        /* \"#utility.yul\":6063:6077   */\n      0x4e6f206c69717569646974790000000000000000000000000000000000000000\n        /* \"#utility.yul\":6059:6060   */\n      0x00\n        /* \"#utility.yul\":6051:6057   */\n      dup3\n        /* \"#utility.yul\":6047:6061   */\n      add\n        /* \"#utility.yul\":6040:6078   */\n      mstore\n        /* \"#utility.yul\":5923:6085   */\n      pop\n      jump\t// out\n        /* \"#utility.yul\":6091:6457   */\n    tag_255:\n        /* \"#utility.yul\":6233:6236   */\n      0x00\n        /* \"#utility.yul\":6254:6321   */\n      tag_338\n        /* \"#utility.yul\":6318:6320   */\n      0x0c\n        /* \"#utility.yul\":6313:6316   */\n      dup4\n        /* \"#utility.yul\":6254:6321   */\n      tag_251\n      jump\t// in\n    tag_338:\n        /* \"#utility.yul\":6247:6321   */\n      swap2\n      pop\n        /* \"#utility.yul\":6330:6423   */\n      tag_339\n        /* \"#utility.yul\":6419:6422   */\n      dup3\n        /* \"#utility.yul\":6330:6423   */\n      tag_254\n      jump\t// in\n    tag_339:\n        /* \"#utility.yul\":6448:6450   */\n      0x20\n        /* \"#utility.yul\":6443:6446   */\n      dup3\n        /* \"#utility.yul\":6439:6451   */\n      add\n        /* \"#utility.yul\":6432:6451   */\n      swap1\n      pop\n        /* \"#utility.yul\":6091:6457   */\n      swap2\n      swap1\n      pop\n      jump\t// out\n        /* \"#utility.yul\":6463:6882   */\n    tag_80:\n        /* \"#utility.yul\":6629:6633   */\n      0x00\n        /* \"#utility.yul\":6667:6669   */\n      0x20\n        /* \"#utility.yul\":6656:6665   */\n      dup3\n        /* \"#utility.yul\":6652:6670   */\n      add\n        /* \"#utility.yul\":6644:6670   */\n      swap1\n      pop\n        /* \"#utility.yul\":6716:6725   */\n      dup2\n        /* \"#utility.yul\":6710:6714   */\n      dup2\n        /* \"#utility.yul\":6706:6726   */\n      sub\n        /* \"#utility.yul\":6702:6703   */\n      0x00\n        /* \"#utility.yul\":6691:6700   */\n      dup4\n        /* \"#utility.yul\":6687:6704   */\n      add\n        /* \"#utility.yul\":6680:6727   */\n      mstore\n        /* \"#utility.yul\":6744:6875   */\n      tag_341\n        /* \"#utility.yul\":6870:6874   */\n      dup2\n        /* \"#utility.yul\":6744:6875   */\n      tag_255\n      jump\t// in\n    tag_341:\n        /* \"#utility.yul\":6736:6875   */\n      swap1\n      pop\n        /* \"#utility.yul\":6463:6882   */\n      swap2\n      swap1\n      pop\n      jump\t// out\n        /* \"#utility.yul\":6888:7068   */\n    tag_256:\n        /* \"#utility.yul\":6936:7013   */\n      0x4e487b7100000000000000000000000000000000000000000000000000000000\n        /* \"#utility.yul\":6933:6934   */\n      0x00\n        /* \"#utility.yul\":6926:7014   */\n      mstore\n        /* \"#utility.yul\":7033:7037   */\n      0x11\n        /* \"#utility.yul\":7030:7031   */\n      0x04\n        /* \"#utility.yul\":7023:7038   */\n      mstore\n        /* \"#utility.yul\":7057:7061   */\n      0x24\n        /* \"#utility.yul\":7054:7055   */\n      0x00\n        /* \"#utility.yul\":7047:7062   */\n      revert\n        /* \"#utility.yul\":7074:7484   */\n    tag_83:\n        /* \"#utility.yul\":7114:7121   */\n      0x00\n        /* \"#utility.yul\":7137:7157   */\n      tag_344\n        /* \"#utility.yul\":7155:7156   */\n      dup3\n        /* \"#utility.yul\":7137:7157   */\n      tag_234\n      jump\t// in\n    tag_344:\n        /* \"#utility.yul\":7132:7157   */\n      swap2\n      pop\n        /* \"#utility.yul\":7171:7191   */\n      tag_345\n        /* \"#utility.yul\":7189:7190   */\n      dup4\n        /* \"#utility.yul\":7171:7191   */\n      tag_234\n      jump\t// in\n    tag_345:\n        /* \"#utility.yul\":7166:7191   */\n      swap3\n      pop\n        /* \"#utility.yul\":7226:7227   */\n      dup3\n        /* \"#utility.yul\":7223:7224   */\n      dup3\n        /* \"#utility.yul\":7219:7228   */\n      mul\n        /* \"#utility.yul\":7248:7278   */\n      tag_346\n        /* \"#utility.yul\":7266:7277   */\n      dup2\n        /* \"#utility.yul\":7248:7278   */\n      tag_234\n      jump\t// in\n    tag_346:\n        /* \"#utility.yul\":7237:7278   */\n      swap2\n      pop\n        /* \"#utility.yul\":7427:7428   */\n      dup3\n        /* \"#utility.yul\":7418:7425   */\n      dup3\n        /* \"#utility.yul\":7414:7429   */\n      div\n        /* \"#utility.yul\":7411:7412   */\n      dup5\n        /* \"#utility.yul\":7408:7430   */\n      eq\n        /* \"#utility.yul\":7388:7389   */\n      dup4\n        /* \"#utility.yul\":7381:7390   */\n      iszero\n        /* \"#utility.yul\":7361:7444   */\n      or\n        /* \"#utility.yul\":7338:7477   */\n      tag_347\n      jumpi\n        /* \"#utility.yul\":7457:7475   */\n      tag_348\n      tag_256\n      jump\t// in\n    tag_348:\n        /* \"#utility.yul\":7338:7477   */\n    tag_347:\n        /* \"#utility.yul\":7122:7484   */\n      pop\n        /* \"#utility.yul\":7074:7484   */\n      swap3\n      swap2\n      pop\n      pop\n      jump\t// out\n        /* \"#utility.yul\":7490:7670   */\n    tag_257:\n        /* \"#utility.yul\":7538:7615   */\n      0x4e487b7100000000000000000000000000000000000000000000000000000000\n        /* \"#utility.yul\":7535:7536   */\n      0x00\n        /* \"#utility.yul\":7528:7616   */\n      mstore\n        /* \"#utility.yul\":7635:7639   */\n      0x12\n        /* \"#utility.yul\":7632:7633   */\n      0x04\n        /* \"#utility.yul\":7625:7640   */\n      mstore\n        /* \"#utility.yul\":7659:7663   */\n      0x24\n        /* \"#utility.yul\":7656:7657   */\n      0x00\n        /* \"#utility.yul\":7649:7664   */\n      revert\n        /* \"#utility.yul\":7676:7861   */\n    tag_85:\n        /* \"#utility.yul\":7716:7717   */\n      0x00\n        /* \"#utility.yul\":7733:7753   */\n      tag_351\n        /* \"#utility.yul\":7751:7752   */\n      dup3\n        /* \"#utility.yul\":7733:7753   */\n      tag_234\n      jump\t// in\n    tag_351:\n        /* \"#utility.yul\":7728:7753   */\n      swap2\n      pop\n        /* \"#utility.yul\":7767:7787   */\n      tag_352\n        /* \"#utility.yul\":7785:7786   */\n      dup4\n        /* \"#utility.yul\":7767:7787   */\n      tag_234\n      jump\t// in\n    tag_352:\n        /* \"#utility.yul\":7762:7787   */\n      swap3\n      pop\n        /* \"#utility.yul\":7806:7807   */\n      dup3\n        /* \"#utility.yul\":7796:7831   */\n      tag_353\n      jumpi\n        /* \"#utility.yul\":7811:7829   */\n      tag_354\n      tag_257\n      jump\t// in\n    tag_354:\n        /* \"#utility.yul\":7796:7831   */\n    tag_353:\n        /* \"#utility.yul\":7853:7854   */\n      dup3\n        /* \"#utility.yul\":7850:7851   */\n      dup3\n        /* \"#utility.yul\":7846:7855   */\n      div\n        /* \"#utility.yul\":7841:7855   */\n      swap1\n      pop\n        /* \"#utility.yul\":7676:7861   */\n      swap3\n      swap2\n      pop\n      pop\n      jump\t// out\n        /* \"#utility.yul\":7867:8049   */\n    tag_258:\n        /* \"#utility.yul\":8007:8041   */\n      0x416d6f756e74206d7573742062652067726561746572207468616e207a65726f\n        /* \"#utility.yul\":8003:8004   */\n      0x00\n        /* \"#utility.yul\":7995:8001   */\n      dup3\n        /* \"#utility.yul\":7991:8005   */\n      add\n        /* \"#utility.yul\":7984:8042   */\n      mstore\n        /* \"#utility.yul\":7867:8049   */\n      pop\n      jump\t// out\n        /* \"#utility.yul\":8055:8421   */\n    tag_259:\n        /* \"#utility.yul\":8197:8200   */\n      0x00\n        /* \"#utility.yul\":8218:8285   */\n      tag_357\n        /* \"#utility.yul\":8282:8284   */\n      0x20\n        /* \"#utility.yul\":8277:8280   */\n      dup4\n        /* \"#utility.yul\":8218:8285   */\n      tag_251\n      jump\t// in\n    tag_357:\n        /* \"#utility.yul\":8211:8285   */\n      swap2\n      pop\n        /* \"#utility.yul\":8294:8387   */\n      tag_358\n        /* \"#utility.yul\":8383:8386   */\n      dup3\n        /* \"#utility.yul\":8294:8387   */\n      tag_258\n      jump\t// in\n    tag_358:\n        /* \"#utility.yul\":8412:8414   */\n      0x20\n        /* \"#utility.yul\":8407:8410   */\n      dup3\n        /* \"#utility.yul\":8403:8415   */\n      add\n        /* \"#utility.yul\":8396:8415   */\n      swap1\n      pop\n        /* \"#utility.yul\":8055:8421   */\n      swap2\n      swap1\n      pop\n      jump\t// out\n        /* \"#utility.yul\":8427:8846   */\n    tag_101:\n        /* \"#utility.yul\":8593:8597   */\n      0x00\n        /* \"#utility.yul\":8631:8633   */\n      0x20\n        /* \"#utility.yul\":8620:8629   */\n      dup3\n        /* \"#utility.yul\":8616:8634   */\n      add\n        /* \"#utility.yul\":8608:8634   */\n      swap1\n      pop\n        /* \"#utility.yul\":8680:8689   */\n      dup2\n        /* \"#utility.yul\":8674:8678   */\n      dup2\n        /* \"#utility.yul\":8670:8690   */\n      sub\n        /* \"#utility.yul\":8666:8667   */\n      0x00\n        /* \"#utility.yul\":8655:8664   */\n      dup4\n        /* \"#utility.yul\":8651:8668   */\n      add\n        /* \"#utility.yul\":8644:8691   */\n      mstore\n        /* \"#utility.yul\":8708:8839   */\n      tag_360\n        /* \"#utility.yul\":8834:8838   */\n      dup2\n        /* \"#utility.yul\":8708:8839   */\n      tag_259\n      jump\t// in\n    tag_360:\n        /* \"#utility.yul\":8700:8839   */\n      swap1\n      pop\n        /* \"#utility.yul\":8427:8846   */\n      swap2\n      swap1\n      pop\n      jump\t// out\n        /* \"#utility.yul\":8852:9024   */\n    tag_260:\n        /* \"#utility.yul\":8992:9016   */\n      0x496e73756666696369656e74206c697175696469747900000000000000000000\n        /* \"#utility.yul\":8988:8989   */\n      0x00\n        /* \"#utility.yul\":8980:8986   */\n      dup3\n        /* \"#utility.yul\":8976:8990   */\n      add\n        /* \"#utility.yul\":8969:9017   */\n      mstore\n        /* \"#utility.yul\":8852:9024   */\n      pop\n      jump\t// out\n        /* \"#utility.yul\":9030:9396   */\n    tag_261:\n        /* \"#utility.yul\":9172:9175   */\n      0x00\n        /* \"#utility.yul\":9193:9260   */\n      tag_363\n        /* \"#utility.yul\":9257:9259   */\n      0x16\n        /* \"#utility.yul\":9252:9255   */\n      dup4\n        /* \"#utility.yul\":9193:9260   */\n      tag_251\n      jump\t// in\n    tag_363:\n        /* \"#utility.yul\":9186:9260   */\n      swap2\n      pop\n        /* \"#utility.yul\":9269:9362   */\n      tag_364\n        /* \"#utility.yul\":9358:9361   */\n      dup3\n        /* \"#utility.yul\":9269:9362   */\n      tag_260\n      jump\t// in\n    tag_364:\n        /* \"#utility.yul\":9387:9389   */\n      0x20\n        /* \"#utility.yul\":9382:9385   */\n      dup3\n        /* \"#utility.yul\":9378:9390   */\n      add\n        /* \"#utility.yul\":9371:9390   */\n      swap1\n      pop\n        /* \"#utility.yul\":9030:9396   */\n      swap2\n      swap1\n      pop\n      jump\t// out\n        /* \"#utility.yul\":9402:9821   */\n    tag_105:\n        /* \"#utility.yul\":9568:9572   */\n      0x00\n        /* \"#utility.yul\":9606:9608   */\n      0x20\n        /* \"#utility.yul\":9595:9604   */\n      dup3\n        /* \"#utility.yul\":9591:9609   */\n      add\n        /* \"#utility.yul\":9583:9609   */\n      swap1\n      pop\n        /* \"#utility.yul\":9655:9664   */\n      dup2\n        /* \"#utility.yul\":9649:9653   */\n      dup2\n        /* \"#utility.yul\":9645:9665   */\n      sub\n        /* \"#utility.yul\":9641:9642   */\n      0x00\n        /* \"#utility.yul\":9630:9639   */\n      dup4\n        /* \"#utility.yul\":9626:9643   */\n      add\n        /* \"#utility.yul\":9619:9666   */\n      mstore\n        /* \"#utility.yul\":9683:9814   */\n      tag_366\n        /* \"#utility.yul\":9809:9813   */\n      dup2\n        /* \"#utility.yul\":9683:9814   */\n      tag_261\n      jump\t// in\n    tag_366:\n        /* \"#utility.yul\":9675:9814   */\n      swap1\n      pop\n        /* \"#utility.yul\":9402:9821   */\n      swap2\n      swap1\n      pop\n      jump\t// out\n        /* \"#utility.yul\":9827:10018   */\n    tag_107:\n        /* \"#utility.yul\":9867:9870   */\n      0x00\n        /* \"#utility.yul\":9886:9906   */\n      tag_368\n        /* \"#utility.yul\":9904:9905   */\n      dup3\n        /* \"#utility.yul\":9886:9906   */\n      tag_234\n      jump\t// in\n    tag_368:\n        /* \"#utility.yul\":9881:9906   */\n      swap2\n      pop\n        /* \"#utility.yul\":9920:9940   */\n      tag_369\n        /* \"#utility.yul\":9938:9939   */\n      dup4\n        /* \"#utility.yul\":9920:9940   */\n      tag_234\n      jump\t// in\n    tag_369:\n        /* \"#utility.yul\":9915:9940   */\n      swap3\n      pop\n        /* \"#utility.yul\":9963:9964   */\n      dup3\n        /* \"#utility.yul\":9960:9961   */\n      dup3\n        /* \"#utility.yul\":9956:9965   */\n      add\n        /* \"#utility.yul\":9949:9965   */\n      swap1\n      pop\n        /* \"#utility.yul\":9984:9987   */\n      dup1\n        /* \"#utility.yul\":9981:9982   */\n      dup3\n        /* \"#utility.yul\":9978:9988   */\n      gt\n        /* \"#utility.yul\":9975:10011   */\n      iszero\n      tag_370\n      jumpi\n        /* \"#utility.yul\":9991:10009   */\n      tag_371\n      tag_256\n      jump\t// in\n    tag_371:\n        /* \"#utility.yul\":9975:10011   */\n    tag_370:\n        /* \"#utility.yul\":9827:10018   */\n      swap3\n      swap2\n      pop\n      pop\n      jump\t// out\n        /* \"#utility.yul\":10024:10200   */\n    tag_262:\n        /* \"#utility.yul\":10164:10192   */\n      0x496e73756666696369656e74206f757470757420616d6f756e74000000000000\n        /* \"#utility.yul\":10160:10161   */\n      0x00\n        /* \"#utility.yul\":10152:10158   */\n      dup3\n        /* \"#utility.yul\":10148:10162   */\n      add\n        /* \"#utility.yul\":10141:10193   */\n      mstore\n        /* \"#utility.yul\":10024:10200   */\n      pop\n      jump\t// out\n        /* \"#utility.yul\":10206:10572   */\n    tag_263:\n        /* \"#utility.yul\":10348:10351   */\n      0x00\n        /* \"#utility.yul\":10369:10436   */\n      tag_374\n        /* \"#utility.yul\":10433:10435   */\n      0x1a\n        /* \"#utility.yul\":10428:10431   */\n      dup4\n        /* \"#utility.yul\":10369:10436   */\n      tag_251\n      jump\t// in\n    tag_374:\n        /* \"#utility.yul\":10362:10436   */\n      swap2\n      pop\n        /* \"#utility.yul\":10445:10538   */\n      tag_375\n        /* \"#utility.yul\":10534:10537   */\n      dup3\n        /* \"#utility.yul\":10445:10538   */\n      tag_262\n      jump\t// in\n    tag_375:\n        /* \"#utility.yul\":10563:10565   */\n      0x20\n        /* \"#utility.yul\":10558:10561   */\n      dup3\n        /* \"#utility.yul\":10554:10566   */\n      add\n        /* \"#utility.yul\":10547:10566   */\n      swap1\n      pop\n        /* \"#utility.yul\":10206:10572   */\n      swap2\n      swap1\n      pop\n      jump\t// out\n        /* \"#utility.yul\":10578:10997   */\n    tag_112:\n        /* \"#utility.yul\":10744:10748   */\n      0x00\n        /* \"#utility.yul\":10782:10784   */\n      0x20\n        /* \"#utility.yul\":10771:10780   */\n      dup3\n        /* \"#utility.yul\":10767:10785   */\n      add\n        /* \"#utility.yul\":10759:10785   */\n      swap1\n      pop\n        /* \"#utility.yul\":10831:10840   */\n      dup2\n        /* \"#utility.yul\":10825:10829   */\n      dup2\n        /* \"#utility.yul\":10821:10841   */\n      sub\n        /* \"#utility.yul\":10817:10818   */\n      0x00\n        /* \"#utility.yul\":10806:10815   */\n      dup4\n        /* \"#utility.yul\":10802:10819   */\n      add\n        /* \"#utility.yul\":10795:10842   */\n      mstore\n        /* \"#utility.yul\":10859:10990   */\n      tag_377\n        /* \"#utility.yul\":10985:10989   */\n      dup2\n        /* \"#utility.yul\":10859:10990   */\n      tag_263\n      jump\t// in\n    tag_377:\n        /* \"#utility.yul\":10851:10990   */\n      swap1\n      pop\n        /* \"#utility.yul\":10578:10997   */\n      swap2\n      swap1\n      pop\n      jump\t// out\n        /* \"#utility.yul\":11003:11445   */\n    tag_116:\n        /* \"#utility.yul\":11152:11156   */\n      0x00\n        /* \"#utility.yul\":11190:11192   */\n      0x60\n        /* \"#utility.yul\":11179:11188   */\n      dup3\n        /* \"#utility.yul\":11175:11193   */\n      add\n        /* \"#utility.yul\":11167:11193   */\n      swap1\n      pop\n        /* \"#utility.yul\":11203:11274   */\n      tag_379\n        /* \"#utility.yul\":11271:11272   */\n      0x00\n        /* \"#utility.yul\":11260:11269   */\n      dup4\n        /* \"#utility.yul\":11256:11273   */\n      add\n        /* \"#utility.yul\":11247:11253   */\n      dup7\n        /* \"#utility.yul\":11203:11274   */\n      tag_250\n      jump\t// in\n    tag_379:\n        /* \"#utility.yul\":11284:11356   */\n      tag_380\n        /* \"#utility.yul\":11352:11354   */\n      0x20\n        /* \"#utility.yul\":11341:11350   */\n      dup4\n        /* \"#utility.yul\":11337:11355   */\n      add\n        /* \"#utility.yul\":11328:11334   */\n      dup6\n        /* \"#utility.yul\":11284:11356   */\n      tag_250\n      jump\t// in\n    tag_380:\n        /* \"#utility.yul\":11366:11438   */\n      tag_381\n        /* \"#utility.yul\":11434:11436   */\n      0x40\n        /* \"#utility.yul\":11423:11432   */\n      dup4\n        /* \"#utility.yul\":11419:11437   */\n      add\n        /* \"#utility.yul\":11410:11416   */\n      dup5\n        /* \"#utility.yul\":11366:11438   */\n      tag_235\n      jump\t// in\n    tag_381:\n        /* \"#utility.yul\":11003:11445   */\n      swap5\n      swap4\n      pop\n      pop\n      pop\n      pop\n      jump\t// out\n        /* \"#utility.yul\":11451:11541   */\n    tag_264:\n        /* \"#utility.yul\":11485:11492   */\n      0x00\n        /* \"#utility.yul\":11528:11533   */\n      dup2\n        /* \"#utility.yul\":11521:11534   */\n      iszero\n        /* \"#utility.yul\":11514:11535   */\n      iszero\n        /* \"#utility.yul\":11503:11535   */\n      swap1\n      pop\n        /* \"#utility.yul\":11451:11541   */\n      swap2\n      swap1\n      pop\n      jump\t// out\n        /* \"#utility.yul\":11547:11663   */\n    tag_265:\n        /* \"#utility.yul\":11617:11638   */\n      tag_384\n        /* \"#utility.yul\":11632:11637   */\n      dup2\n        /* \"#utility.yul\":11617:11638   */\n      tag_264\n      jump\t// in\n    tag_384:\n        /* \"#utility.yul\":11610:11615   */\n      dup2\n        /* \"#utility.yul\":11607:11639   */\n      eq\n        /* \"#utility.yul\":11597:11657   */\n      tag_385\n      jumpi\n        /* \"#utility.yul\":11653:11654   */\n      0x00\n        /* \"#utility.yul\":11650:11651   */\n      0x00\n        /* \"#utility.yul\":11643:11655   */\n      revert\n        /* \"#utility.yul\":11597:11657   */\n    tag_385:\n        /* \"#utility.yul\":11547:11663   */\n      pop\n      jump\t// out\n        /* \"#utility.yul\":11669:11806   */\n    tag_266:\n        /* \"#utility.yul\":11723:11728   */\n      0x00\n        /* \"#utility.yul\":11754:11760   */\n      dup2\n        /* \"#utility.yul\":11748:11761   */\n      mload\n        /* \"#utility.yul\":11739:11761   */\n      swap1\n      pop\n        /* \"#utility.yul\":11770:11800   */\n      tag_387\n        /* \"#utility.yul\":11794:11799   */\n      dup2\n        /* \"#utility.yul\":11770:11800   */\n      tag_265\n      jump\t// in\n    tag_387:\n        /* \"#utility.yul\":11669:11806   */\n      swap3\n      swap2\n      pop\n      pop\n      jump\t// out\n        /* \"#utility.yul\":11812:12157   */\n    tag_120:\n        /* \"#utility.yul\":11879:11885   */\n      0x00\n        /* \"#utility.yul\":11928:11930   */\n      0x20\n        /* \"#utility.yul\":11916:11925   */\n      dup3\n        /* \"#utility.yul\":11907:11914   */\n      dup5\n        /* \"#utility.yul\":11903:11926   */\n      sub\n        /* \"#utility.yul\":11899:11931   */\n      slt\n        /* \"#utility.yul\":11896:12015   */\n      iszero\n      tag_389\n      jumpi\n        /* \"#utility.yul\":11934:12013   */\n      tag_390\n      tag_243\n      jump\t// in\n    tag_390:\n        /* \"#utility.yul\":11896:12015   */\n    tag_389:\n        /* \"#utility.yul\":12054:12055   */\n      0x00\n        /* \"#utility.yul\":12079:12140   */\n      tag_391\n        /* \"#utility.yul\":12132:12139   */\n      dup5\n        /* \"#utility.yul\":12123:12129   */\n      dup3\n        /* \"#utility.yul\":12112:12121   */\n      dup6\n        /* \"#utility.yul\":12108:12130   */\n      add\n        /* \"#utility.yul\":12079:12140   */\n      tag_266\n      jump\t// in\n    tag_391:\n        /* \"#utility.yul\":12069:12140   */\n      swap2\n      pop\n        /* \"#utility.yul\":12025:12150   */\n      pop\n        /* \"#utility.yul\":11812:12157   */\n      swap3\n      swap2\n      pop\n      pop\n      jump\t// out\n        /* \"#utility.yul\":12163:12495   */\n    tag_122:\n        /* \"#utility.yul\":12284:12288   */\n      0x00\n        /* \"#utility.yul\":12322:12324   */\n      0x40\n        /* \"#utility.yul\":12311:12320   */\n      dup3\n        /* \"#utility.yul\":12307:12325   */\n      add\n        /* \"#utility.yul\":12299:12325   */\n      swap1\n      pop\n        /* \"#utility.yul\":12335:12406   */\n      tag_393\n        /* \"#utility.yul\":12403:12404   */\n      0x00\n        /* \"#utility.yul\":12392:12401   */\n      dup4\n        /* \"#utility.yul\":12388:12405   */\n      add\n        /* \"#utility.yul\":12379:12385   */\n      dup6\n        /* \"#utility.yul\":12335:12406   */\n      tag_250\n      jump\t// in\n    tag_393:\n        /* \"#utility.yul\":12416:12488   */\n      tag_394\n        /* \"#utility.yul\":12484:12486   */\n      0x20\n        /* \"#utility.yul\":12473:12482   */\n      dup4\n        /* \"#utility.yul\":12469:12487   */\n      add\n        /* \"#utility.yul\":12460:12466   */\n      dup5\n        /* \"#utility.yul\":12416:12488   */\n      tag_235\n      jump\t// in\n    tag_394:\n        /* \"#utility.yul\":12163:12495   */\n      swap4\n      swap3\n      pop\n      pop\n      pop\n      jump\t// out\n        /* \"#utility.yul\":12501:12695   */\n    tag_128:\n        /* \"#utility.yul\":12541:12545   */\n      0x00\n        /* \"#utility.yul\":12561:12581   */\n      tag_396\n        /* \"#utility.yul\":12579:12580   */\n      dup3\n        /* \"#utility.yul\":12561:12581   */\n      tag_234\n      jump\t// in\n    tag_396:\n        /* \"#utility.yul\":12556:12581   */\n      swap2\n      pop\n        /* \"#utility.yul\":12595:12615   */\n      tag_397\n        /* \"#utility.yul\":12613:12614   */\n      dup4\n        /* \"#utility.yul\":12595:12615   */\n      tag_234\n      jump\t// in\n    tag_397:\n        /* \"#utility.yul\":12590:12615   */\n      swap3\n      pop\n        /* \"#utility.yul\":12639:12640   */\n      dup3\n        /* \"#utility.yul\":12636:12637   */\n      dup3\n        /* \"#utility.yul\":12632:12641   */\n      sub\n        /* \"#utility.yul\":12624:12641   */\n      swap1\n      pop\n        /* \"#utility.yul\":12663:12664   */\n      dup2\n        /* \"#utility.yul\":12657:12661   */\n      dup2\n        /* \"#utility.yul\":12654:12665   */\n      gt\n        /* \"#utility.yul\":12651:12688   */\n      iszero\n      tag_398\n      jumpi\n        /* \"#utility.yul\":12668:12686   */\n      tag_399\n      tag_256\n      jump\t// in\n    tag_399:\n        /* \"#utility.yul\":12651:12688   */\n    tag_398:\n        /* \"#utility.yul\":12501:12695   */\n      swap3\n      swap2\n      pop\n      pop\n      jump\t// out\n        /* \"#utility.yul\":12701:13254   */\n    tag_130:\n        /* \"#utility.yul\":12878:12882   */\n      0x00\n        /* \"#utility.yul\":12916:12919   */\n      0x80\n        /* \"#utility.yul\":12905:12914   */\n      dup3\n        /* \"#utility.yul\":12901:12920   */\n      add\n        /* \"#utility.yul\":12893:12920   */\n      swap1\n      pop\n        /* \"#utility.yul\":12930:13001   */\n      tag_401\n        /* \"#utility.yul\":12998:12999   */\n      0x00\n        /* \"#utility.yul\":12987:12996   */\n      dup4\n        /* \"#utility.yul\":12983:13000   */\n      add\n        /* \"#utility.yul\":12974:12980   */\n      dup8\n        /* \"#utility.yul\":12930:13001   */\n      tag_250\n      jump\t// in\n    tag_401:\n        /* \"#utility.yul\":13011:13083   */\n      tag_402\n        /* \"#utility.yul\":13079:13081   */\n      0x20\n        /* \"#utility.yul\":13068:13077   */\n      dup4\n        /* \"#utility.yul\":13064:13082   */\n      add\n        /* \"#utility.yul\":13055:13061   */\n      dup7\n        /* \"#utility.yul\":13011:13083   */\n      tag_250\n      jump\t// in\n    tag_402:\n        /* \"#utility.yul\":13093:13165   */\n      tag_403\n        /* \"#utility.yul\":13161:13163   */\n      0x40\n        /* \"#utility.yul\":13150:13159   */\n      dup4\n        /* \"#utility.yul\":13146:13164   */\n      add\n        /* \"#utility.yul\":13137:13143   */\n      dup6\n        /* \"#utility.yul\":13093:13165   */\n      tag_235\n      jump\t// in\n    tag_403:\n        /* \"#utility.yul\":13175:13247   */\n      tag_404\n        /* \"#utility.yul\":13243:13245   */\n      0x60\n        /* \"#utility.yul\":13232:13241   */\n      dup4\n        /* \"#utility.yul\":13228:13246   */\n      add\n        /* \"#utility.yul\":13219:13225   */\n      dup5\n        /* \"#utility.yul\":13175:13247   */\n      tag_235\n      jump\t// in\n    tag_404:\n        /* \"#utility.yul\":12701:13254   */\n      swap6\n      swap5\n      pop\n      pop\n      pop\n      pop\n      pop\n      jump\t// out\n        /* \"#utility.yul\":13260:13480   */\n    tag_267:\n        /* \"#utility.yul\":13400:13434   */\n      0x416d6f756e7473206d7573742062652067726561746572207468616e207a6572\n        /* \"#utility.yul\":13396:13397   */\n      0x00\n        /* \"#utility.yul\":13388:13394   */\n      dup3\n        /* \"#utility.yul\":13384:13398   */\n      add\n        /* \"#utility.yul\":13377:13435   */\n      mstore\n        /* \"#utility.yul\":13469:13472   */\n      0x6f00000000000000000000000000000000000000000000000000000000000000\n        /* \"#utility.yul\":13464:13466   */\n      0x20\n        /* \"#utility.yul\":13456:13462   */\n      dup3\n        /* \"#utility.yul\":13452:13467   */\n      add\n        /* \"#utility.yul\":13445:13473   */\n      mstore\n        /* \"#utility.yul\":13260:13480   */\n      pop\n      jump\t// out\n        /* \"#utility.yul\":13486:13852   */\n    tag_268:\n        /* \"#utility.yul\":13628:13631   */\n      0x00\n        /* \"#utility.yul\":13649:13716   */\n      tag_407\n        /* \"#utility.yul\":13713:13715   */\n      0x21\n        /* \"#utility.yul\":13708:13711   */\n      dup4\n        /* \"#utility.yul\":13649:13716   */\n      tag_251\n      jump\t// in\n    tag_407:\n        /* \"#utility.yul\":13642:13716   */\n      swap2\n      pop\n        /* \"#utility.yul\":13725:13818   */\n      tag_408\n        /* \"#utility.yul\":13814:13817   */\n      dup3\n        /* \"#utility.yul\":13725:13818   */\n      tag_267\n      jump\t// in\n    tag_408:\n        /* \"#utility.yul\":13843:13845   */\n      0x40\n        /* \"#utility.yul\":13838:13841   */\n      dup3\n        /* \"#utility.yul\":13834:13846   */\n      add\n        /* \"#utility.yul\":13827:13846   */\n      swap1\n      pop\n        /* \"#utility.yul\":13486:13852   */\n      swap2\n      swap1\n      pop\n      jump\t// out\n        /* \"#utility.yul\":13858:14277   */\n    tag_140:\n        /* \"#utility.yul\":14024:14028   */\n      0x00\n        /* \"#utility.yul\":14062:14064   */\n      0x20\n        /* \"#utility.yul\":14051:14060   */\n      dup3\n        /* \"#utility.yul\":14047:14065   */\n      add\n        /* \"#utility.yul\":14039:14065   */\n      swap1\n      pop\n        /* \"#utility.yul\":14111:14120   */\n      dup2\n        /* \"#utility.yul\":14105:14109   */\n      dup2\n        /* \"#utility.yul\":14101:14121   */\n      sub\n        /* \"#utility.yul\":14097:14098   */\n      0x00\n        /* \"#utility.yul\":14086:14095   */\n      dup4\n        /* \"#utility.yul\":14082:14099   */\n      add\n        /* \"#utility.yul\":14075:14122   */\n      mstore\n        /* \"#utility.yul\":14139:14270   */\n      tag_410\n        /* \"#utility.yul\":14265:14269   */\n      dup2\n        /* \"#utility.yul\":14139:14270   */\n      tag_268\n      jump\t// in\n    tag_410:\n        /* \"#utility.yul\":14131:14270   */\n      swap1\n      pop\n        /* \"#utility.yul\":13858:14277   */\n      swap2\n      swap1\n      pop\n      jump\t// out\n\n    auxdata: 0xa2646970667358221220709f4e950518df80153aa957d5f9c0f2371bdfb611606c756844a5add653d15764736f6c634300081e0033\n}\n",
				"bytecode": {
					"linkReferences": {},
					"object": "608060405234801561000f575f5ffd5b50604051611e8f380380611e8f8339818101604052810190610031919061025f565b335f73ffffffffffffffffffffffffffffffffffffffff168173ffffffffffffffffffffffffffffffffffffffff16036100a2575f6040517f1e4fbdf700000000000000000000000000000000000000000000000000000000815260040161009991906102ac565b60405180910390fd5b6100b18161014060201b60201c565b50600180819055508160025f6101000a81548173ffffffffffffffffffffffffffffffffffffffff021916908373ffffffffffffffffffffffffffffffffffffffff1602179055508060035f6101000a81548173ffffffffffffffffffffffffffffffffffffffff021916908373ffffffffffffffffffffffffffffffffffffffff16021790555050506102c5565b5f5f5f9054906101000a900473ffffffffffffffffffffffffffffffffffffffff169050815f5f6101000a81548173ffffffffffffffffffffffffffffffffffffffff021916908373ffffffffffffffffffffffffffffffffffffffff1602179055508173ffffffffffffffffffffffffffffffffffffffff168173ffffffffffffffffffffffffffffffffffffffff167f8be0079c531659141344cd1fd0a4f28419497f9722a3daafe3b4186f6b6457e060405160405180910390a35050565b5f5ffd5b5f73ffffffffffffffffffffffffffffffffffffffff82169050919050565b5f61022e82610205565b9050919050565b61023e81610224565b8114610248575f5ffd5b50565b5f8151905061025981610235565b92915050565b5f5f6040838503121561027557610274610201565b5b5f6102828582860161024b565b92505060206102938582860161024b565b9150509250929050565b6102a681610224565b82525050565b5f6020820190506102bf5f83018461029d565b92915050565b611bbd806102d25f395ff3fe608060405234801561000f575f5ffd5b50600436106100e8575f3560e01c80638da5cb5b1161008a578063dc5fa6c511610064578063dc5fa6c514610211578063e4f1f70a1461022f578063f140a35a1461024b578063f2fde38b1461027b576100e8565b80638da5cb5b146101bb5780639cd441da146101d95780639d7de6b3146101f5576100e8565b806341976e09116100c657806341976e09146101475780635f64b55b14610177578063715018a6146101955780638014a7aa1461019f576100e8565b80630902f1ac146100ec5780630fc63d101461010b57806319e36f3b14610129575b5f5ffd5b6100f4610297565b60405161010292919061147b565b60405180910390f35b6101136102a7565b604051610120919061151c565b60405180910390f35b6101316102cc565b60405161013e9190611535565b60405180910390f35b610161600480360381019061015c919061158d565b6102d2565b60405161016e9190611535565b60405180910390f35b61017f6104b3565b60405161018c919061151c565b60405180910390f35b61019d6104d8565b005b6101b960048036038101906101b491906115e2565b6104eb565b005b6101c3610843565b6040516101d0919061161c565b60405180910390f35b6101f360048036038101906101ee9190611635565b61086a565b005b61020f600480360381019061020a9190611635565b610a6a565b005b610219610cb9565b6040516102269190611535565b60405180910390f35b610249600480360381019061024491906115e2565b610cbf565b005b61026560048036038101906102609190611673565b611017565b6040516102729190611535565b60405180910390f35b6102956004803603810190610290919061158d565b611241565b005b5f5f600454600554915091509091565b60025f9054906101000a900473ffffffffffffffffffffffffffffffffffffffff1681565b60055481565b5f60025f9054906101000a900473ffffffffffffffffffffffffffffffffffffffff1673ffffffffffffffffffffffffffffffffffffffff168273ffffffffffffffffffffffffffffffffffffffff16148061037a575060035f9054906101000a900473ffffffffffffffffffffffffffffffffffffffff1673ffffffffffffffffffffffffffffffffffffffff168273ffffffffffffffffffffffffffffffffffffffff16145b6103b9576040517f08c379a00000000000000000000000000000000000000000000000000000000081526004016103b09061170b565b60405180910390fd5b5f6004541180156103cb57505f600554115b61040a576040517f08c379a000000000000000000000000000000000000000000000000000000000815260040161040190611773565b60405180910390fd5b60025f9054906101000a900473ffffffffffffffffffffffffffffffffffffffff1673ffffffffffffffffffffffffffffffffffffffff168273ffffffffffffffffffffffffffffffffffffffff160361048857600454670de0b6b3a764000060055461047791906117be565b610481919061182c565b90506104ae565b600554670de0b6b3a76400006004546104a191906117be565b6104ab919061182c565b90505b919050565b60035f9054906101000a900473ffffffffffffffffffffffffffffffffffffffff1681565b6104e06112c5565b6104e95f61134c565b565b6104f361140d565b5f8111610535576040517f08c379a000000000000000000000000000000000000000000000000000000000815260040161052c906118a6565b60405180910390fd5b5f60045411801561054757505f600554115b610586576040517f08c379a000000000000000000000000000000000000000000000000000000000815260040161057d9061190e565b60405180910390fd5b5f81600554610595919061192c565b826004546105a391906117be565b6105ad919061182c565b90505f81116105f1576040517f08c379a00000000000000000000000000000000000000000000000000000000081526004016105e8906119a9565b60405180910390fd5b6004548110610635576040517f08c379a000000000000000000000000000000000000000000000000000000000815260040161062c9061190e565b60405180910390fd5b60035f9054906101000a900473ffffffffffffffffffffffffffffffffffffffff1673ffffffffffffffffffffffffffffffffffffffff166323b872dd3330856040518463ffffffff1660e01b8152600401610693939291906119c7565b6020604051808303815f875af11580156106af573d5f5f3e3d5ffd5b505050506040513d601f19601f820116820180604052508101906106d39190611a31565b5060025f9054906101000a900473ffffffffffffffffffffffffffffffffffffffff1673ffffffffffffffffffffffffffffffffffffffff1663a9059cbb33836040518363ffffffff1660e01b8152600401610730929190611a5c565b6020604051808303815f875af115801561074c573d5f5f3e3d5ffd5b505050506040513d601f19601f820116820180604052508101906107709190611a31565b508160055f828254610782919061192c565b925050819055508060045f82825461079a9190611a83565b925050819055503373ffffffffffffffffffffffffffffffffffffffff167fad56699d0f375866eb895ed27203058a36a713382aaded78eb6b67da266d433260035f9054906101000a900473ffffffffffffffffffffffffffffffffffffffff1660025f9054906101000a900473ffffffffffffffffffffffffffffffffffffffff16858560405161082f9493929190611ab6565b60405180910390a250610840611453565b50565b5f5f5f9054906101000a900473ffffffffffffffffffffffffffffffffffffffff16905090565b6108726112c5565b5f8211801561088057505f81115b6108bf576040517f08c379a00000000000000000000000000000000000000000000000000000000081526004016108b690611b69565b60405180910390fd5b60025f9054906101000a900473ffffffffffffffffffffffffffffffffffffffff1673ffffffffffffffffffffffffffffffffffffffff166323b872dd3330856040518463ffffffff1660e01b815260040161091d939291906119c7565b6020604051808303815f875af1158015610939573d5f5f3e3d5ffd5b505050506040513d601f19601f8201168201806040525081019061095d9190611a31565b5060035f9054906101000a900473ffffffffffffffffffffffffffffffffffffffff1673ffffffffffffffffffffffffffffffffffffffff166323b872dd3330846040518463ffffffff1660e01b81526004016109bc939291906119c7565b6020604051808303815f875af11580156109d8573d5f5f3e3d5ffd5b505050506040513d601f19601f820116820180604052508101906109fc9190611a31565b508160045f828254610a0e919061192c565b925050819055508060055f828254610a26919061192c565b925050819055507f38f8a0c92f4c5b0b6877f878cb4c0c8d348a47b76d716c8e78f425043df9515b8282604051610a5e92919061147b565b60405180910390a15050565b610a726112c5565b6004548211158015610a8657506005548111155b610ac5576040517f08c379a0000000000000000000000000000000000000000000000000000000008152600401610abc9061190e565b60405180910390fd5b5f82118015610ad357505f81115b610b12576040517f08c379a0000000000000000000000000000000000000000000000000000000008152600401610b0990611b69565b60405180910390fd5b60025f9054906101000a900473ffffffffffffffffffffffffffffffffffffffff1673ffffffffffffffffffffffffffffffffffffffff1663a9059cbb33846040518363ffffffff1660e01b8152600401610b6e929190611a5c565b6020604051808303815f875af1158015610b8a573d5f5f3e3d5ffd5b505050506040513d601f19601f82011682018060405250810190610bae9190611a31565b5060035f9054906101000a900473ffffffffffffffffffffffffffffffffffffffff1673ffffffffffffffffffffffffffffffffffffffff1663a9059cbb33836040518363ffffffff1660e01b8152600401610c0b929190611a5c565b6020604051808303815f875af1158015610c27573d5f5f3e3d5ffd5b505050506040513d601f19601f82011682018060405250810190610c4b9190611a31565b508160045f828254610c5d9190611a83565b925050819055508060055f828254610c759190611a83565b925050819055507f6f0f96292ae0038c04f9b6bab30f185d9ca02c471d0983f563f2a4f674aef1378282604051610cad92919061147b565b60405180910390a15050565b60045481565b610cc761140d565b5f8111610d09576040517f08c379a0000000000000000000000000000000000000000000000000000000008152600401610d00906118a6565b60405180910390fd5b5f600454118015610d1b57505f600554115b610d5a576040517f08c379a0000000000000000000000000000000000000000000000000000000008152600401610d519061190e565b60405180910390fd5b5f81600454610d69919061192c565b82600554610d7791906117be565b610d81919061182c565b90505f8111610dc5576040517f08c379a0000000000000000000000000000000000000000000000000000000008152600401610dbc906119a9565b60405180910390fd5b6005548110610e09576040517f08c379a0000000000000000000000000000000000000000000000000000000008152600401610e009061190e565b60405180910390fd5b60025f9054906101000a900473ffffffffffffffffffffffffffffffffffffffff1673ffffffffffffffffffffffffffffffffffffffff166323b872dd3330856040518463ffffffff1660e01b8152600401610e67939291906119c7565b6020604051808303815f875af1158015610e83573d5f5f3e3d5ffd5b505050506040513d601f19601f82011682018060405250810190610ea79190611a31565b5060035f9054906101000a900473ffffffffffffffffffffffffffffffffffffffff1673ffffffffffffffffffffffffffffffffffffffff1663a9059cbb33836040518363ffffffff1660e01b8152600401610f04929190611a5c565b6020604051808303815f875af1158015610f20573d5f5f3e3d5ffd5b505050506040513d601f19601f82011682018060405250810190610f449190611a31565b508160045f828254610f56919061192c565b925050819055508060055f828254610f6e9190611a83565b925050819055503373ffffffffffffffffffffffffffffffffffffffff167fad56699d0f375866eb895ed27203058a36a713382aaded78eb6b67da266d433260025f9054906101000a900473ffffffffffffffffffffffffffffffffffffffff1660035f9054906101000a900473ffffffffffffffffffffffffffffffffffffffff1685856040516110039493929190611ab6565b60405180910390a250611014611453565b50565b5f60025f9054906101000a900473ffffffffffffffffffffffffffffffffffffffff1673ffffffffffffffffffffffffffffffffffffffff168273ffffffffffffffffffffffffffffffffffffffff1614806110bf575060035f9054906101000a900473ffffffffffffffffffffffffffffffffffffffff1673ffffffffffffffffffffffffffffffffffffffff168273ffffffffffffffffffffffffffffffffffffffff16145b6110fe576040517f08c379a00000000000000000000000000000000000000000000000000000000081526004016110f59061170b565b60405180910390fd5b5f8311611140576040517f08c379a0000000000000000000000000000000000000000000000000000000008152600401611137906118a6565b60405180910390fd5b5f60045411801561115257505f600554115b611191576040517f08c379a00000000000000000000000000000000000000000000000000000000081526004016111889061190e565b60405180910390fd5b60025f9054906101000a900473ffffffffffffffffffffffffffffffffffffffff1673ffffffffffffffffffffffffffffffffffffffff168273ffffffffffffffffffffffffffffffffffffffff160361121257826004546111f3919061192c565b8360055461120191906117be565b61120b919061182c565b905061123b565b82600554611220919061192c565b8360045461122e91906117be565b611238919061182c565b90505b92915050565b6112496112c5565b5f73ffffffffffffffffffffffffffffffffffffffff168173ffffffffffffffffffffffffffffffffffffffff16036112b9575f6040517f1e4fbdf70000000000000000000000000000000000000000000000000000000081526004016112b0919061161c565b60405180910390fd5b6112c28161134c565b50565b6112cd61145c565b73ffffffffffffffffffffffffffffffffffffffff166112eb610843565b73ffffffffffffffffffffffffffffffffffffffff161461134a5761130e61145c565b6040517f118cdaa7000000000000000000000000000000000000000000000000000000008152600401611341919061161c565b60405180910390fd5b565b5f5f5f9054906101000a900473ffffffffffffffffffffffffffffffffffffffff169050815f5f6101000a81548173ffffffffffffffffffffffffffffffffffffffff021916908373ffffffffffffffffffffffffffffffffffffffff1602179055508173ffffffffffffffffffffffffffffffffffffffff168173ffffffffffffffffffffffffffffffffffffffff167f8be0079c531659141344cd1fd0a4f28419497f9722a3daafe3b4186f6b6457e060405160405180910390a35050565b600260015403611449576040517f3ee5aeb500000000000000000000000000000000000000000000000000000000815260040160405180910390fd5b6002600181905550565b60018081905550565b5f33905090565b5f819050919050565b61147581611463565b82525050565b5f60408201905061148e5f83018561146c565b61149b602083018461146c565b9392505050565b5f73ffffffffffffffffffffffffffffffffffffffff82169050919050565b5f819050919050565b5f6114e46114df6114da846114a2565b6114c1565b6114a2565b9050919050565b5f6114f5826114ca565b9050919050565b5f611506826114eb565b9050919050565b611516816114fc565b82525050565b5f60208201905061152f5f83018461150d565b92915050565b5f6020820190506115485f83018461146c565b92915050565b5f5ffd5b5f61155c826114a2565b9050919050565b61156c81611552565b8114611576575f5ffd5b50565b5f8135905061158781611563565b92915050565b5f602082840312156115a2576115a161154e565b5b5f6115af84828501611579565b91505092915050565b6115c181611463565b81146115cb575f5ffd5b50565b5f813590506115dc816115b8565b92915050565b5f602082840312156115f7576115f661154e565b5b5f611604848285016115ce565b91505092915050565b61161681611552565b82525050565b5f60208201905061162f5f83018461160d565b92915050565b5f5f6040838503121561164b5761164a61154e565b5b5f611658858286016115ce565b9250506020611669858286016115ce565b9150509250929050565b5f5f604083850312156116895761168861154e565b5b5f611696858286016115ce565b92505060206116a785828601611579565b9150509250929050565b5f82825260208201905092915050565b7f496e76616c696420746f6b656e000000000000000000000000000000000000005f82015250565b5f6116f5600d836116b1565b9150611700826116c1565b602082019050919050565b5f6020820190508181035f830152611722816116e9565b9050919050565b7f4e6f206c697175696469747900000000000000000000000000000000000000005f82015250565b5f61175d600c836116b1565b915061176882611729565b602082019050919050565b5f6020820190508181035f83015261178a81611751565b9050919050565b7f4e487b71000000000000000000000000000000000000000000000000000000005f52601160045260245ffd5b5f6117c882611463565b91506117d383611463565b92508282026117e181611463565b915082820484148315176117f8576117f7611791565b5b5092915050565b7f4e487b71000000000000000000000000000000000000000000000000000000005f52601260045260245ffd5b5f61183682611463565b915061184183611463565b925082611851576118506117ff565b5b828204905092915050565b7f416d6f756e74206d7573742062652067726561746572207468616e207a65726f5f82015250565b5f6118906020836116b1565b915061189b8261185c565b602082019050919050565b5f6020820190508181035f8301526118bd81611884565b9050919050565b7f496e73756666696369656e74206c6971756964697479000000000000000000005f82015250565b5f6118f86016836116b1565b9150611903826118c4565b602082019050919050565b5f6020820190508181035f830152611925816118ec565b9050919050565b5f61193682611463565b915061194183611463565b925082820190508082111561195957611958611791565b5b92915050565b7f496e73756666696369656e74206f757470757420616d6f756e740000000000005f82015250565b5f611993601a836116b1565b915061199e8261195f565b602082019050919050565b5f6020820190508181035f8301526119c081611987565b9050919050565b5f6060820190506119da5f83018661160d565b6119e7602083018561160d565b6119f4604083018461146c565b949350505050565b5f8115159050919050565b611a10816119fc565b8114611a1a575f5ffd5b50565b5f81519050611a2b81611a07565b92915050565b5f60208284031215611a4657611a4561154e565b5b5f611a5384828501611a1d565b91505092915050565b5f604082019050611a6f5f83018561160d565b611a7c602083018461146c565b9392505050565b5f611a8d82611463565b9150611a9883611463565b9250828203905081811115611ab057611aaf611791565b5b92915050565b5f608082019050611ac95f83018761160d565b611ad6602083018661160d565b611ae3604083018561146c565b611af0606083018461146c565b95945050505050565b7f416d6f756e7473206d7573742062652067726561746572207468616e207a65725f8201527f6f00000000000000000000000000000000000000000000000000000000000000602082015250565b5f611b536021836116b1565b9150611b5e82611af9565b604082019050919050565b5f6020820190508181035f830152611b8081611b47565b905091905056fea2646970667358221220709f4e950518df80153aa957d5f9c0f2371bdfb611606c756844a5add653d15764736f6c634300081e0033",
					"opcodes": "PUSH1 0x80 PUSH1 0x40 MSTORE CALLVALUE DUP1 ISZERO PUSH2 0xF JUMPI PUSH0 PUSH0 REVERT JUMPDEST POP PUSH1 0x40 MLOAD PUSH2 0x1E8F CODESIZE SUB DUP1 PUSH2 0x1E8F DUP4 CODECOPY DUP2 DUP2 ADD PUSH1 0x40 MSTORE DUP2 ADD SWAP1 PUSH2 0x31 SWAP2 SWAP1 PUSH2 0x25F JUMP JUMPDEST CALLER PUSH0 PUSH20 0xFFFFFFFFFFFFFFFFFFFFFFFFFFFFFFFFFFFFFFFF AND DUP2 PUSH20 0xFFFFFFFFFFFFFFFFFFFFFFFFFFFFFFFFFFFFFFFF AND SUB PUSH2 0xA2 JUMPI PUSH0 PUSH1 0x40 MLOAD PUSH32 0x1E4FBDF700000000000000000000000000000000000000000000000000000000 DUP2 MSTORE PUSH1 0x4 ADD PUSH2 0x99 SWAP2 SWAP1 PUSH2 0x2AC JUMP JUMPDEST PUSH1 0x40 MLOAD DUP1 SWAP2 SUB SWAP1 REVERT JUMPDEST PUSH2 0xB1 DUP2 PUSH2 0x140 PUSH1 0x20 SHL PUSH1 0x20 SHR JUMP JUMPDEST POP PUSH1 0x1 DUP1 DUP2 SWAP1 SSTORE POP DUP2 PUSH1 0x2 PUSH0 PUSH2 0x100 EXP DUP2 SLOAD DUP2 PUSH20 0xFFFFFFFFFFFFFFFFFFFFFFFFFFFFFFFFFFFFFFFF MUL NOT AND SWAP1 DUP4 PUSH20 0xFFFFFFFFFFFFFFFFFFFFFFFFFFFFFFFFFFFFFFFF AND MUL OR SWAP1 SSTORE POP DUP1 PUSH1 0x3 PUSH0 PUSH2 0x100 EXP DUP2 SLOAD DUP2 PUSH20 0xFFFFFFFFFFFFFFFFFFFFFFFFFFFFFFFFFFFFFFFF MUL NOT AND SWAP1 DUP4 PUSH20 0xFFFFFFFFFFFFFFFFFFFFFFFFFFFFFFFFFFFFFFFF AND MUL OR SWAP1 SSTORE POP POP POP PUSH2 0x2C5 JUMP JUMPDEST PUSH0 PUSH0 PUSH0 SWAP1 SLOAD SWAP1 PUSH2 0x100 EXP SWAP1 DIV PUSH20 0xFFFFFFFFFFFFFFFFFFFFFFFFFFFFFFFFFFFFFFFF AND SWAP1 POP DUP2 PUSH0 PUSH0 PUSH2 0x100 EXP DUP2 SLOAD DUP2 PUSH20 0xFFFFFFFFFFFFFFFFFFFFFFFFFFFFFFFFFFFFFFFF MUL NOT AND SWAP1 DUP4 PUSH20 0xFFFFFFFFFFFFFFFFFFFFFFFFFFFFFFFFFFFFFFFF AND MUL OR SWAP1 SSTORE POP DUP2 PUSH20 0xFFFFFFFFFFFFFFFFFFFFFFFFFFFFFFFFFFFFFFFF AND DUP2 PUSH20 0xFFFFFFFFFFFFFFFFFFFFFFFFFFFFFFFFFFFFFFFF AND PUSH32 0x8BE0079C531659141344CD1FD0A4F28419497F9722A3DAAFE3B4186F6B6457E0 PUSH1 0x40 MLOAD PUSH1 0x40 MLOAD DUP1 SWAP2 SUB SWAP1 LOG3 POP POP JUMP JUMPDEST PUSH0 PUSH0 REVERT JUMPDEST PUSH0 PUSH20 0xFFFFFFFFFFFFFFFFFFFFFFFFFFFFFFFFFFFFFFFF DUP3 AND SWAP1 POP SWAP2 SWAP1 POP JUMP JUMPDEST PUSH0 PUSH2 0x22E DUP3 PUSH2 0x205 JUMP JUMPDEST SWAP1 POP SWAP2 SWAP1 POP JUMP JUMPDEST PUSH2 0x23E DUP2 PUSH2 0x224 JUMP JUMPDEST DUP2 EQ PUSH2 0x248 JUMPI PUSH0 PUSH0 REVERT JUMPDEST POP JUMP JUMPDEST PUSH0 DUP2 MLOAD SWAP1 POP PUSH2 0x259 DUP2 PUSH2 0x235 JUMP JUMPDEST SWAP3 SWAP2 POP POP JUMP JUMPDEST PUSH0 PUSH0 PUSH1 0x40 DUP4 DUP6 SUB SLT ISZERO PUSH2 0x275 JUMPI PUSH2 0x274 PUSH2 0x201 JUMP JUMPDEST JUMPDEST PUSH0 PUSH2 0x282 DUP6 DUP3 DUP7 ADD PUSH2 0x24B JUMP JUMPDEST SWAP3 POP POP PUSH1 0x20 PUSH2 0x293 DUP6 DUP3 DUP7 ADD PUSH2 0x24B JUMP JUMPDEST SWAP2 POP POP SWAP3 POP SWAP3 SWAP1 POP JUMP JUMPDEST PUSH2 0x2A6 DUP2 PUSH2 0x224 JUMP JUMPDEST DUP3 MSTORE POP POP JUMP JUMPDEST PUSH0 PUSH1 0x20 DUP3 ADD SWAP1 POP PUSH2 0x2BF PUSH0 DUP4 ADD DUP5 PUSH2 0x29D JUMP JUMPDEST SWAP3 SWAP2 POP POP JUMP JUMPDEST PUSH2 0x1BBD DUP1 PUSH2 0x2D2 PUSH0 CODECOPY PUSH0 RETURN INVALID PUSH1 0x80 PUSH1 0x40 MSTORE CALLVALUE DUP1 ISZERO PUSH2 0xF JUMPI PUSH0 PUSH0 REVERT JUMPDEST POP PUSH1 0x4 CALLDATASIZE LT PUSH2 0xE8 JUMPI PUSH0 CALLDATALOAD PUSH1 0xE0 SHR DUP1 PUSH4 0x8DA5CB5B GT PUSH2 0x8A JUMPI DUP1 PUSH4 0xDC5FA6C5 GT PUSH2 0x64 JUMPI DUP1 PUSH4 0xDC5FA6C5 EQ PUSH2 0x211 JUMPI DUP1 PUSH4 0xE4F1F70A EQ PUSH2 0x22F JUMPI DUP1 PUSH4 0xF140A35A EQ PUSH2 0x24B JUMPI DUP1 PUSH4 0xF2FDE38B EQ PUSH2 0x27B JUMPI PUSH2 0xE8 JUMP JUMPDEST DUP1 PUSH4 0x8DA5CB5B EQ PUSH2 0x1BB JUMPI DUP1 PUSH4 0x9CD441DA EQ PUSH2 0x1D9 JUMPI DUP1 PUSH4 0x9D7DE6B3 EQ PUSH2 0x1F5 JUMPI PUSH2 0xE8 JUMP JUMPDEST DUP1 PUSH4 0x41976E09 GT PUSH2 0xC6 JUMPI DUP1 PUSH4 0x41976E09 EQ PUSH2 0x147 JUMPI DUP1 PUSH4 0x5F64B55B EQ PUSH2 0x177 JUMPI DUP1 PUSH4 0x715018A6 EQ PUSH2 0x195 JUMPI DUP1 PUSH4 0x8014A7AA EQ PUSH2 0x19F JUMPI PUSH2 0xE8 JUMP JUMPDEST DUP1 PUSH4 0x902F1AC EQ PUSH2 0xEC JUMPI DUP1 PUSH4 0xFC63D10 EQ PUSH2 0x10B JUMPI DUP1 PUSH4 0x19E36F3B EQ PUSH2 0x129 JUMPI JUMPDEST PUSH0 PUSH0 REVERT JUMPDEST PUSH2 0xF4 PUSH2 0x297 JUMP JUMPDEST PUSH1 0x40 MLOAD PUSH2 0x102 SWAP3 SWAP2 SWAP1 PUSH2 0x147B JUMP JUMPDEST PUSH1 0x40 MLOAD DUP1 SWAP2 SUB SWAP1 RETURN JUMPDEST PUSH2 0x113 PUSH2 0x2A7 JUMP JUMPDEST PUSH1 0x40 MLOAD PUSH2 0x120 SWAP2 SWAP1 PUSH2 0x151C JUMP JUMPDEST PUSH1 0x40 MLOAD DUP1 SWAP2 SUB SWAP1 RETURN JUMPDEST PUSH2 0x131 PUSH2 0x2CC JUMP JUMPDEST PUSH1 0x40 MLOAD PUSH2 0x13E SWAP2 SWAP1 PUSH2 0x1535 JUMP JUMPDEST PUSH1 0x40 MLOAD DUP1 SWAP2 SUB SWAP1 RETURN JUMPDEST PUSH2 0x161 PUSH1 0x4 DUP1 CALLDATASIZE SUB DUP2 ADD SWAP1 PUSH2 0x15C SWAP2 SWAP1 PUSH2 0x158D JUMP JUMPDEST PUSH2 0x2D2 JUMP JUMPDEST PUSH1 0x40 MLOAD PUSH2 0x16E SWAP2 SWAP1 PUSH2 0x1535 JUMP JUMPDEST PUSH1 0x40 MLOAD DUP1 SWAP2 SUB SWAP1 RETURN JUMPDEST PUSH2 0x17F PUSH2 0x4B3 JUMP JUMPDEST PUSH1 0x40 MLOAD PUSH2 0x18C SWAP2 SWAP1 PUSH2 0x151C JUMP JUMPDEST PUSH1 0x40 MLOAD DUP1 SWAP2 SUB SWAP1 RETURN JUMPDEST PUSH2 0x19D PUSH2 0x4D8 JUMP JUMPDEST STOP JUMPDEST PUSH2 0x1B9 PUSH1 0x4 DUP1 CALLDATASIZE SUB DUP2 ADD SWAP1 PUSH2 0x1B4 SWAP2 SWAP1 PUSH2 0x15E2 JUMP JUMPDEST PUSH2 0x4EB JUMP JUMPDEST STOP JUMPDEST PUSH2 0x1C3 PUSH2 0x843 JUMP JUMPDEST PUSH1 0x40 MLOAD PUSH2 0x1D0 SWAP2 SWAP1 PUSH2 0x161C JUMP JUMPDEST PUSH1 0x40 MLOAD DUP1 SWAP2 SUB SWAP1 RETURN JUMPDEST PUSH2 0x1F3 PUSH1 0x4 DUP1 CALLDATASIZE SUB DUP2 ADD SWAP1 PUSH2 0x1EE SWAP2 SWAP1 PUSH2 0x1635 JUMP JUMPDEST PUSH2 0x86A JUMP JUMPDEST STOP JUMPDEST PUSH2 0x20F PUSH1 0x4 DUP1 CALLDATASIZE SUB DUP2 ADD SWAP1 PUSH2 0x20A SWAP2 SWAP1 PUSH2 0x1635 JUMP JUMPDEST PUSH2 0xA6A JUMP JUMPDEST STOP JUMPDEST PUSH2 0x219 PUSH2 0xCB9 JUMP JUMPDEST PUSH1 0x40 MLOAD PUSH2 0x226 SWAP2 SWAP1 PUSH2 0x1535 JUMP JUMPDEST PUSH1 0x40 MLOAD DUP1 SWAP2 SUB SWAP1 RETURN JUMPDEST PUSH2 0x249 PUSH1 0x4 DUP1 CALLDATASIZE SUB DUP2 ADD SWAP1 PUSH2 0x244 SWAP2 SWAP1 PUSH2 0x15E2 JUMP JUMPDEST PUSH2 0xCBF JUMP JUMPDEST STOP JUMPDEST PUSH2 0x265 PUSH1 0x4 DUP1 CALLDATASIZE SUB DUP2 ADD SWAP1 PUSH2 0x260 SWAP2 SWAP1 PUSH2 0x1673 JUMP JUMPDEST PUSH2 0x1017 JUMP JUMPDEST PUSH1 0x40 MLOAD PUSH2 0x272 SWAP2 SWAP1 PUSH2 0x1535 JUMP JUMPDEST PUSH1 0x40 MLOAD DUP1 SWAP2 SUB SWAP1 RETURN JUMPDEST PUSH2 0x295 PUSH1 0x4 DUP1 CALLDATASIZE SUB DUP2 ADD SWAP1 PUSH2 0x290 SWAP2 SWAP1 PUSH2 0x158D JUMP JUMPDEST PUSH2 0x1241 JUMP JUMPDEST STOP JUMPDEST PUSH0 PUSH0 PUSH1 0x4 SLOAD PUSH1 0x5 SLOAD SWAP2 POP SWAP2 POP SWAP1 SWAP2 JUMP JUMPDEST PUSH1 0x2 PUSH0 SWAP1 SLOAD SWAP1 PUSH2 0x100 EXP SWAP1 DIV PUSH20 0xFFFFFFFFFFFFFFFFFFFFFFFFFFFFFFFFFFFFFFFF AND DUP2 JUMP JUMPDEST PUSH1 0x5 SLOAD DUP2 JUMP JUMPDEST PUSH0 PUSH1 0x2 PUSH0 SWAP1 SLOAD SWAP1 PUSH2 0x100 EXP SWAP1 DIV PUSH20 0xFFFFFFFFFFFFFFFFFFFFFFFFFFFFFFFFFFFFFFFF AND PUSH20 0xFFFFFFFFFFFFFFFFFFFFFFFFFFFFFFFFFFFFFFFF AND DUP3 PUSH20 0xFFFFFFFFFFFFFFFFFFFFFFFFFFFFFFFFFFFFFFFF AND EQ DUP1 PUSH2 0x37A JUMPI POP PUSH1 0x3 PUSH0 SWAP1 SLOAD SWAP1 PUSH2 0x100 EXP SWAP1 DIV PUSH20 0xFFFFFFFFFFFFFFFFFFFFFFFFFFFFFFFFFFFFFFFF AND PUSH20 0xFFFFFFFFFFFFFFFFFFFFFFFFFFFFFFFFFFFFFFFF AND DUP3 PUSH20 0xFFFFFFFFFFFFFFFFFFFFFFFFFFFFFFFFFFFFFFFF AND EQ JUMPDEST PUSH2 0x3B9 JUMPI PUSH1 0x40 MLOAD PUSH32 0x8C379A000000000000000000000000000000000000000000000000000000000 DUP2 MSTORE PUSH1 0x4 ADD PUSH2 0x3B0 SWAP1 PUSH2 0x170B JUMP JUMPDEST PUSH1 0x40 MLOAD DUP1 SWAP2 SUB SWAP1 REVERT JUMPDEST PUSH0 PUSH1 0x4 SLOAD GT DUP1 ISZERO PUSH2 0x3CB JUMPI POP PUSH0 PUSH1 0x5 SLOAD GT JUMPDEST PUSH2 0x40A JUMPI PUSH1 0x40 MLOAD PUSH32 0x8C379A000000000000000000000000000000000000000000000000000000000 DUP2 MSTORE PUSH1 0x4 ADD PUSH2 0x401 SWAP1 PUSH2 0x1773 JUMP JUMPDEST PUSH1 0x40 MLOAD DUP1 SWAP2 SUB SWAP1 REVERT JUMPDEST PUSH1 0x2 PUSH0 SWAP1 SLOAD SWAP1 PUSH2 0x100 EXP SWAP1 DIV PUSH20 0xFFFFFFFFFFFFFFFFFFFFFFFFFFFFFFFFFFFFFFFF AND PUSH20 0xFFFFFFFFFFFFFFFFFFFFFFFFFFFFFFFFFFFFFFFF AND DUP3 PUSH20 0xFFFFFFFFFFFFFFFFFFFFFFFFFFFFFFFFFFFFFFFF AND SUB PUSH2 0x488 JUMPI PUSH1 0x4 SLOAD PUSH8 0xDE0B6B3A7640000 PUSH1 0x5 SLOAD PUSH2 0x477 SWAP2 SWAP1 PUSH2 0x17BE JUMP JUMPDEST PUSH2 0x481 SWAP2 SWAP1 PUSH2 0x182C JUMP JUMPDEST SWAP1 POP PUSH2 0x4AE JUMP JUMPDEST PUSH1 0x5 SLOAD PUSH8 0xDE0B6B3A7640000 PUSH1 0x4 SLOAD PUSH2 0x4A1 SWAP2 SWAP1 PUSH2 0x17BE JUMP JUMPDEST PUSH2 0x4AB SWAP2 SWAP1 PUSH2 0x182C JUMP JUMPDEST SWAP1 POP JUMPDEST SWAP2 SWAP1 POP JUMP JUMPDEST PUSH1 0x3 PUSH0 SWAP1 SLOAD SWAP1 PUSH2 0x100 EXP SWAP1 DIV PUSH20 0xFFFFFFFFFFFFFFFFFFFFFFFFFFFFFFFFFFFFFFFF AND DUP2 JUMP JUMPDEST PUSH2 0x4E0 PUSH2 0x12C5 JUMP JUMPDEST PUSH2 0x4E9 PUSH0 PUSH2 0x134C JUMP JUMPDEST JUMP JUMPDEST PUSH2 0x4F3 PUSH2 0x140D JUMP JUMPDEST PUSH0 DUP2 GT PUSH2 0x535 JUMPI PUSH1 0x40 MLOAD PUSH32 0x8C379A000000000000000000000000000000000000000000000000000000000 DUP2 MSTORE PUSH1 0x4 ADD PUSH2 0x52C SWAP1 PUSH2 0x18A6 JUMP JUMPDEST PUSH1 0x40 MLOAD DUP1 SWAP2 SUB SWAP1 REVERT JUMPDEST PUSH0 PUSH1 0x4 SLOAD GT DUP1 ISZERO PUSH2 0x547 JUMPI POP PUSH0 PUSH1 0x5 SLOAD GT JUMPDEST PUSH2 0x586 JUMPI PUSH1 0x40 MLOAD PUSH32 0x8C379A000000000000000000000000000000000000000000000000000000000 DUP2 MSTORE PUSH1 0x4 ADD PUSH2 0x57D SWAP1 PUSH2 0x190E JUMP JUMPDEST PUSH1 0x40 MLOAD DUP1 SWAP2 SUB SWAP1 REVERT JUMPDEST PUSH0 DUP2 PUSH1 0x5 SLOAD PUSH2 0x595 SWAP2 SWAP1 PUSH2 0x192C JUMP JUMPDEST DUP3 PUSH1 0x4 SLOAD PUSH2 0x5A3 SWAP2 SWAP1 PUSH2 0x17BE JUMP JUMPDEST PUSH2 0x5AD SWAP2 SWAP1 PUSH2 0x182C JUMP JUMPDEST SWAP1 POP PUSH0 DUP2 GT PUSH2 0x5F1 JUMPI PUSH1 0x40 MLOAD PUSH32 0x8C379A000000000000000000000000000000000000000000000000000000000 DUP2 MSTORE PUSH1 0x4 ADD PUSH2 0x5E8 SWAP1 PUSH2 0x19A9 JUMP JUMPDEST PUSH1 0x40 MLOAD DUP1 SWAP2 SUB SWAP1 REVERT JUMPDEST PUSH1 0x4 SLOAD DUP2 LT PUSH2 0x635 JUMPI PUSH1 0x40 MLOAD PUSH32 0x8C379A000000000000000000000000000000000000000000000000000000000 DUP2 MSTORE PUSH1 0x4 ADD PUSH2 0x62C SWAP1 PUSH2 0x190E JUMP JUMPDEST PUSH1 0x40 MLOAD DUP1 SWAP2 SUB SWAP1 REVERT JUMPDEST PUSH1 0x3 PUSH0 SWAP1 SLOAD SWAP1 PUSH2 0x100 EXP SWAP1 DIV PUSH20 0xFFFFFFFFFFFFFFFFFFFFFFFFFFFFFFFFFFFFFFFF AND PUSH20 0xFFFFFFFFFFFFFFFFFFFFFFFFFFFFFFFFFFFFFFFF AND PUSH4 0x23B872DD CALLER ADDRESS DUP6 PUSH1 0x40 MLOAD DUP5 PUSH4 0xFFFFFFFF AND PUSH1 0xE0 SHL DUP2 MSTORE PUSH1 0x4 ADD PUSH2 0x693 SWAP4 SWAP3 SWAP2 SWAP1 PUSH2 0x19C7 JUMP JUMPDEST PUSH1 0x20 PUSH1 0x40 MLOAD DUP1 DUP4 SUB DUP2 PUSH0 DUP8 GAS CALL ISZERO DUP1 ISZERO PUSH2 0x6AF JUMPI RETURNDATASIZE PUSH0 PUSH0 RETURNDATACOPY RETURNDATASIZE PUSH0 REVERT JUMPDEST POP POP POP POP PUSH1 0x40 MLOAD RETURNDATASIZE PUSH1 0x1F NOT PUSH1 0x1F DUP3 ADD AND DUP3 ADD DUP1 PUSH1 0x40 MSTORE POP DUP2 ADD SWAP1 PUSH2 0x6D3 SWAP2 SWAP1 PUSH2 0x1A31 JUMP JUMPDEST POP PUSH1 0x2 PUSH0 SWAP1 SLOAD SWAP1 PUSH2 0x100 EXP SWAP1 DIV PUSH20 0xFFFFFFFFFFFFFFFFFFFFFFFFFFFFFFFFFFFFFFFF AND PUSH20 0xFFFFFFFFFFFFFFFFFFFFFFFFFFFFFFFFFFFFFFFF AND PUSH4 0xA9059CBB CALLER DUP4 PUSH1 0x40 MLOAD DUP4 PUSH4 0xFFFFFFFF AND PUSH1 0xE0 SHL DUP2 MSTORE PUSH1 0x4 ADD PUSH2 0x730 SWAP3 SWAP2 SWAP1 PUSH2 0x1A5C JUMP JUMPDEST PUSH1 0x20 PUSH1 0x40 MLOAD DUP1 DUP4 SUB DUP2 PUSH0 DUP8 GAS CALL ISZERO DUP1 ISZERO PUSH2 0x74C JUMPI RETURNDATASIZE PUSH0 PUSH0 RETURNDATACOPY RETURNDATASIZE PUSH0 REVERT JUMPDEST POP POP POP POP PUSH1 0x40 MLOAD RETURNDATASIZE PUSH1 0x1F NOT PUSH1 0x1F DUP3 ADD AND DUP3 ADD DUP1 PUSH1 0x40 MSTORE POP DUP2 ADD SWAP1 PUSH2 0x770 SWAP2 SWAP1 PUSH2 0x1A31 JUMP JUMPDEST POP DUP2 PUSH1 0x5 PUSH0 DUP3 DUP3 SLOAD PUSH2 0x782 SWAP2 SWAP1 PUSH2 0x192C JUMP JUMPDEST SWAP3 POP POP DUP2 SWAP1 SSTORE POP DUP1 PUSH1 0x4 PUSH0 DUP3 DUP3 SLOAD PUSH2 0x79A SWAP2 SWAP1 PUSH2 0x1A83 JUMP JUMPDEST SWAP3 POP POP DUP2 SWAP1 SSTORE POP CALLER PUSH20 0xFFFFFFFFFFFFFFFFFFFFFFFFFFFFFFFFFFFFFFFF AND PUSH32 0xAD56699D0F375866EB895ED27203058A36A713382AADED78EB6B67DA266D4332 PUSH1 0x3 PUSH0 SWAP1 SLOAD SWAP1 PUSH2 0x100 EXP SWAP1 DIV PUSH20 0xFFFFFFFFFFFFFFFFFFFFFFFFFFFFFFFFFFFFFFFF AND PUSH1 0x2 PUSH0 SWAP1 SLOAD SWAP1 PUSH2 0x100 EXP SWAP1 DIV PUSH20 0xFFFFFFFFFFFFFFFFFFFFFFFFFFFFFFFFFFFFFFFF AND DUP6 DUP6 PUSH1 0x40 MLOAD PUSH2 0x82F SWAP5 SWAP4 SWAP3 SWAP2 SWAP1 PUSH2 0x1AB6 JUMP JUMPDEST PUSH1 0x40 MLOAD DUP1 SWAP2 SUB SWAP1 LOG2 POP PUSH2 0x840 PUSH2 0x1453 JUMP JUMPDEST POP JUMP JUMPDEST PUSH0 PUSH0 PUSH0 SWAP1 SLOAD SWAP1 PUSH2 0x100 EXP SWAP1 DIV PUSH20 0xFFFFFFFFFFFFFFFFFFFFFFFFFFFFFFFFFFFFFFFF AND SWAP1 POP SWAP1 JUMP JUMPDEST PUSH2 0x872 PUSH2 0x12C5 JUMP JUMPDEST PUSH0 DUP3 GT DUP1 ISZERO PUSH2 0x880 JUMPI POP PUSH0 DUP2 GT JUMPDEST PUSH2 0x8BF JUMPI PUSH1 0x40 MLOAD PUSH32 0x8C379A000000000000000000000000000000000000000000000000000000000 DUP2 MSTORE PUSH1 0x4 ADD PUSH2 0x8B6 SWAP1 PUSH2 0x1B69 JUMP JUMPDEST PUSH1 0x40 MLOAD DUP1 SWAP2 SUB SWAP1 REVERT JUMPDEST PUSH1 0x2 PUSH0 SWAP1 SLOAD SWAP1 PUSH2 0x100 EXP SWAP1 DIV PUSH20 0xFFFFFFFFFFFFFFFFFFFFFFFFFFFFFFFFFFFFFFFF AND PUSH20 0xFFFFFFFFFFFFFFFFFFFFFFFFFFFFFFFFFFFFFFFF AND PUSH4 0x23B872DD CALLER ADDRESS DUP6 PUSH1 0x40 MLOAD DUP5 PUSH4 0xFFFFFFFF AND PUSH1 0xE0 SHL DUP2 MSTORE PUSH1 0x4 ADD PUSH2 0x91D SWAP4 SWAP3 SWAP2 SWAP1 PUSH2 0x19C7 JUMP JUMPDEST PUSH1 0x20 PUSH1 0x40 MLOAD DUP1 DUP4 SUB DUP2 PUSH0 DUP8 GAS CALL ISZERO DUP1 ISZERO PUSH2 0x939 JUMPI RETURNDATASIZE PUSH0 PUSH0 RETURNDATACOPY RETURNDATASIZE PUSH0 REVERT JUMPDEST POP POP POP POP PUSH1 0x40 MLOAD RETURNDATASIZE PUSH1 0x1F NOT PUSH1 0x1F DUP3 ADD AND DUP3 ADD DUP1 PUSH1 0x40 MSTORE POP DUP2 ADD SWAP1 PUSH2 0x95D SWAP2 SWAP1 PUSH2 0x1A31 JUMP JUMPDEST POP PUSH1 0x3 PUSH0 SWAP1 SLOAD SWAP1 PUSH2 0x100 EXP SWAP1 DIV PUSH20 0xFFFFFFFFFFFFFFFFFFFFFFFFFFFFFFFFFFFFFFFF AND PUSH20 0xFFFFFFFFFFFFFFFFFFFFFFFFFFFFFFFFFFFFFFFF AND PUSH4 0x23B872DD CALLER ADDRESS DUP5 PUSH1 0x40 MLOAD DUP5 PUSH4 0xFFFFFFFF AND PUSH1 0xE0 SHL DUP2 MSTORE PUSH1 0x4 ADD PUSH2 0x9BC SWAP4 SWAP3 SWAP2 SWAP1 PUSH2 0x19C7 JUMP JUMPDEST PUSH1 0x20 PUSH1 0x40 MLOAD DUP1 DUP4 SUB DUP2 PUSH0 DUP8 GAS CALL ISZERO DUP1 ISZERO PUSH2 0x9D8 JUMPI RETURNDATASIZE PUSH0 PUSH0 RETURNDATACOPY RETURNDATASIZE PUSH0 REVERT JUMPDEST POP POP POP POP PUSH1 0x40 MLOAD RETURNDATASIZE PUSH1 0x1F NOT PUSH1 0x1F DUP3 ADD AND DUP3 ADD DUP1 PUSH1 0x40 MSTORE POP DUP2 ADD SWAP1 PUSH2 0x9FC SWAP2 SWAP1 PUSH2 0x1A31 JUMP JUMPDEST POP DUP2 PUSH1 0x4 PUSH0 DUP3 DUP3 SLOAD PUSH2 0xA0E SWAP2 SWAP1 PUSH2 0x192C JUMP JUMPDEST SWAP3 POP POP DUP2 SWAP1 SSTORE POP DUP1 PUSH1 0x5 PUSH0 DUP3 DUP3 SLOAD PUSH2 0xA26 SWAP2 SWAP1 PUSH2 0x192C JUMP JUMPDEST SWAP3 POP POP DUP2 SWAP1 SSTORE POP PUSH32 0x38F8A0C92F4C5B0B6877F878CB4C0C8D348A47B76D716C8E78F425043DF9515B DUP3 DUP3 PUSH1 0x40 MLOAD PUSH2 0xA5E SWAP3 SWAP2 SWAP1 PUSH2 0x147B JUMP JUMPDEST PUSH1 0x40 MLOAD DUP1 SWAP2 SUB SWAP1 LOG1 POP POP JUMP JUMPDEST PUSH2 0xA72 PUSH2 0x12C5 JUMP JUMPDEST PUSH1 0x4 SLOAD DUP3 GT ISZERO DUP1 ISZERO PUSH2 0xA86 JUMPI POP PUSH1 0x5 SLOAD DUP2 GT ISZERO JUMPDEST PUSH2 0xAC5 JUMPI PUSH1 0x40 MLOAD PUSH32 0x8C379A000000000000000000000000000000000000000000000000000000000 DUP2 MSTORE PUSH1 0x4 ADD PUSH2 0xABC SWAP1 PUSH2 0x190E JUMP JUMPDEST PUSH1 0x40 MLOAD DUP1 SWAP2 SUB SWAP1 REVERT JUMPDEST PUSH0 DUP3 GT DUP1 ISZERO PUSH2 0xAD3 JUMPI POP PUSH0 DUP2 GT JUMPDEST PUSH2 0xB12 JUMPI PUSH1 0x40 MLOAD PUSH32 0x8C379A000000000000000000000000000000000000000000000000000000000 DUP2 MSTORE PUSH1 0x4 ADD PUSH2 0xB09 SWAP1 PUSH2 0x1B69 JUMP JUMPDEST PUSH1 0x40 MLOAD DUP1 SWAP2 SUB SWAP1 REVERT JUMPDEST PUSH1 0x2 PUSH0 SWAP1 SLOAD SWAP1 PUSH2 0x100 EXP SWAP1 DIV PUSH20 0xFFFFFFFFFFFFFFFFFFFFFFFFFFFFFFFFFFFFFFFF AND PUSH20 0xFFFFFFFFFFFFFFFFFFFFFFFFFFFFFFFFFFFFFFFF AND PUSH4 0xA9059CBB CALLER DUP5 PUSH1 0x40 MLOAD DUP4 PUSH4 0xFFFFFFFF AND PUSH1 0xE0 SHL DUP2 MSTORE PUSH1 0x4 ADD PUSH2 0xB6E SWAP3 SWAP2 SWAP1 PUSH2 0x1A5C JUMP JUMPDEST PUSH1 0x20 PUSH1 0x40 MLOAD DUP1 DUP4 SUB DUP2 PUSH0 DUP8 GAS CALL ISZERO DUP1 ISZERO PUSH2 0xB8A JUMPI RETURNDATASIZE PUSH0 PUSH0 RETURNDATACOPY RETURNDATASIZE PUSH0 REVERT JUMPDEST POP POP POP POP PUSH1 0x40 MLOAD RETURNDATASIZE PUSH1 0x1F NOT PUSH1 0x1F DUP3 ADD AND DUP3 ADD DUP1 PUSH1 0x40 MSTORE POP DUP2 ADD SWAP1 PUSH2 0xBAE SWAP2 SWAP1 PUSH2 0x1A31 JUMP JUMPDEST POP PUSH1 0x3 PUSH0 SWAP1 SLOAD SWAP1 PUSH2 0x100 EXP SWAP1 DIV PUSH20 0xFFFFFFFFFFFFFFFFFFFFFFFFFFFFFFFFFFFFFFFF AND PUSH20 0xFFFFFFFFFFFFFFFFFFFFFFFFFFFFFFFFFFFFFFFF AND PUSH4 0xA9059CBB CALLER DUP4 PUSH1 0x40 MLOAD DUP4 PUSH4 0xFFFFFFFF AND PUSH1 0xE0 SHL DUP2 MSTORE PUSH1 0x4 ADD PUSH2 0xC0B SWAP3 SWAP2 SWAP1 PUSH2 0x1A5C JUMP JUMPDEST PUSH1 0x20 PUSH1 0x40 MLOAD DUP1 DUP4 SUB DUP2 PUSH0 DUP8 GAS CALL ISZERO DUP1 ISZERO PUSH2 0xC27 JUMPI RETURNDATASIZE PUSH0 PUSH0 RETURNDATACOPY RETURNDATASIZE PUSH0 REVERT JUMPDEST POP POP POP POP PUSH1 0x40 MLOAD RETURNDATASIZE PUSH1 0x1F NOT PUSH1 0x1F DUP3 ADD AND DUP3 ADD DUP1 PUSH1 0x40 MSTORE POP DUP2 ADD SWAP1 PUSH2 0xC4B SWAP2 SWAP1 PUSH2 0x1A31 JUMP JUMPDEST POP DUP2 PUSH1 0x4 PUSH0 DUP3 DUP3 SLOAD PUSH2 0xC5D SWAP2 SWAP1 PUSH2 0x1A83 JUMP JUMPDEST SWAP3 POP POP DUP2 SWAP1 SSTORE POP DUP1 PUSH1 0x5 PUSH0 DUP3 DUP3 SLOAD PUSH2 0xC75 SWAP2 SWAP1 PUSH2 0x1A83 JUMP JUMPDEST SWAP3 POP POP DUP2 SWAP1 SSTORE POP PUSH32 0x6F0F96292AE0038C04F9B6BAB30F185D9CA02C471D0983F563F2A4F674AEF137 DUP3 DUP3 PUSH1 0x40 MLOAD PUSH2 0xCAD SWAP3 SWAP2 SWAP1 PUSH2 0x147B JUMP JUMPDEST PUSH1 0x40 MLOAD DUP1 SWAP2 SUB SWAP1 LOG1 POP POP JUMP JUMPDEST PUSH1 0x4 SLOAD DUP2 JUMP JUMPDEST PUSH2 0xCC7 PUSH2 0x140D JUMP JUMPDEST PUSH0 DUP2 GT PUSH2 0xD09 JUMPI PUSH1 0x40 MLOAD PUSH32 0x8C379A000000000000000000000000000000000000000000000000000000000 DUP2 MSTORE PUSH1 0x4 ADD PUSH2 0xD00 SWAP1 PUSH2 0x18A6 JUMP JUMPDEST PUSH1 0x40 MLOAD DUP1 SWAP2 SUB SWAP1 REVERT JUMPDEST PUSH0 PUSH1 0x4 SLOAD GT DUP1 ISZERO PUSH2 0xD1B JUMPI POP PUSH0 PUSH1 0x5 SLOAD GT JUMPDEST PUSH2 0xD5A JUMPI PUSH1 0x40 MLOAD PUSH32 0x8C379A000000000000000000000000000000000000000000000000000000000 DUP2 MSTORE PUSH1 0x4 ADD PUSH2 0xD51 SWAP1 PUSH2 0x190E JUMP JUMPDEST PUSH1 0x40 MLOAD DUP1 SWAP2 SUB SWAP1 REVERT JUMPDEST PUSH0 DUP2 PUSH1 0x4 SLOAD PUSH2 0xD69 SWAP2 SWAP1 PUSH2 0x192C JUMP JUMPDEST DUP3 PUSH1 0x5 SLOAD PUSH2 0xD77 SWAP2 SWAP1 PUSH2 0x17BE JUMP JUMPDEST PUSH2 0xD81 SWAP2 SWAP1 PUSH2 0x182C JUMP JUMPDEST SWAP1 POP PUSH0 DUP2 GT PUSH2 0xDC5 JUMPI PUSH1 0x40 MLOAD PUSH32 0x8C379A000000000000000000000000000000000000000000000000000000000 DUP2 MSTORE PUSH1 0x4 ADD PUSH2 0xDBC SWAP1 PUSH2 0x19A9 JUMP JUMPDEST PUSH1 0x40 MLOAD DUP1 SWAP2 SUB SWAP1 REVERT JUMPDEST PUSH1 0x5 SLOAD DUP2 LT PUSH2 0xE09 JUMPI PUSH1 0x40 MLOAD PUSH32 0x8C379A000000000000000000000000000000000000000000000000000000000 DUP2 MSTORE PUSH1 0x4 ADD PUSH2 0xE00 SWAP1 PUSH2 0x190E JUMP JUMPDEST PUSH1 0x40 MLOAD DUP1 SWAP2 SUB SWAP1 REVERT JUMPDEST PUSH1 0x2 PUSH0 SWAP1 SLOAD SWAP1 PUSH2 0x100 EXP SWAP1 DIV PUSH20 0xFFFFFFFFFFFFFFFFFFFFFFFFFFFFFFFFFFFFFFFF AND PUSH20 0xFFFFFFFFFFFFFFFFFFFFFFFFFFFFFFFFFFFFFFFF AND PUSH4 0x23B872DD CALLER ADDRESS DUP6 PUSH1 0x40 MLOAD DUP5 PUSH4 0xFFFFFFFF AND PUSH1 0xE0 SHL DUP2 MSTORE PUSH1 0x4 ADD PUSH2 0xE67 SWAP4 SWAP3 SWAP2 SWAP1 PUSH2 0x19C7 JUMP JUMPDEST PUSH1 0x20 PUSH1 0x40 MLOAD DUP1 DUP4 SUB DUP2 PUSH0 DUP8 GAS CALL ISZERO DUP1 ISZERO PUSH2 0xE83 JUMPI RETURNDATASIZE PUSH0 PUSH0 RETURNDATACOPY RETURNDATASIZE PUSH0 REVERT JUMPDEST POP POP POP POP PUSH1 0x40 MLOAD RETURNDATASIZE PUSH1 0x1F NOT PUSH1 0x1F DUP3 ADD AND DUP3 ADD DUP1 PUSH1 0x40 MSTORE POP DUP2 ADD SWAP1 PUSH2 0xEA7 SWAP2 SWAP1 PUSH2 0x1A31 JUMP JUMPDEST POP PUSH1 0x3 PUSH0 SWAP1 SLOAD SWAP1 PUSH2 0x100 EXP SWAP1 DIV PUSH20 0xFFFFFFFFFFFFFFFFFFFFFFFFFFFFFFFFFFFFFFFF AND PUSH20 0xFFFFFFFFFFFFFFFFFFFFFFFFFFFFFFFFFFFFFFFF AND PUSH4 0xA9059CBB CALLER DUP4 PUSH1 0x40 MLOAD DUP4 PUSH4 0xFFFFFFFF AND PUSH1 0xE0 SHL DUP2 MSTORE PUSH1 0x4 ADD PUSH2 0xF04 SWAP3 SWAP2 SWAP1 PUSH2 0x1A5C JUMP JUMPDEST PUSH1 0x20 PUSH1 0x40 MLOAD DUP1 DUP4 SUB DUP2 PUSH0 DUP8 GAS CALL ISZERO DUP1 ISZERO PUSH2 0xF20 JUMPI RETURNDATASIZE PUSH0 PUSH0 RETURNDATACOPY RETURNDATASIZE PUSH0 REVERT JUMPDEST POP POP POP POP PUSH1 0x40 MLOAD RETURNDATASIZE PUSH1 0x1F NOT PUSH1 0x1F DUP3 ADD AND DUP3 ADD DUP1 PUSH1 0x40 MSTORE POP DUP2 ADD SWAP1 PUSH2 0xF44 SWAP2 SWAP1 PUSH2 0x1A31 JUMP JUMPDEST POP DUP2 PUSH1 0x4 PUSH0 DUP3 DUP3 SLOAD PUSH2 0xF56 SWAP2 SWAP1 PUSH2 0x192C JUMP JUMPDEST SWAP3 POP POP DUP2 SWAP1 SSTORE POP DUP1 PUSH1 0x5 PUSH0 DUP3 DUP3 SLOAD PUSH2 0xF6E SWAP2 SWAP1 PUSH2 0x1A83 JUMP JUMPDEST SWAP3 POP POP DUP2 SWAP1 SSTORE POP CALLER PUSH20 0xFFFFFFFFFFFFFFFFFFFFFFFFFFFFFFFFFFFFFFFF AND PUSH32 0xAD56699D0F375866EB895ED27203058A36A713382AADED78EB6B67DA266D4332 PUSH1 0x2 PUSH0 SWAP1 SLOAD SWAP1 PUSH2 0x100 EXP SWAP1 DIV PUSH20 0xFFFFFFFFFFFFFFFFFFFFFFFFFFFFFFFFFFFFFFFF AND PUSH1 0x3 PUSH0 SWAP1 SLOAD SWAP1 PUSH2 0x100 EXP SWAP1 DIV PUSH20 0xFFFFFFFFFFFFFFFFFFFFFFFFFFFFFFFFFFFFFFFF AND DUP6 DUP6 PUSH1 0x40 MLOAD PUSH2 0x1003 SWAP5 SWAP4 SWAP3 SWAP2 SWAP1 PUSH2 0x1AB6 JUMP JUMPDEST PUSH1 0x40 MLOAD DUP1 SWAP2 SUB SWAP1 LOG2 POP PUSH2 0x1014 PUSH2 0x1453 JUMP JUMPDEST POP JUMP JUMPDEST PUSH0 PUSH1 0x2 PUSH0 SWAP1 SLOAD SWAP1 PUSH2 0x100 EXP SWAP1 DIV PUSH20 0xFFFFFFFFFFFFFFFFFFFFFFFFFFFFFFFFFFFFFFFF AND PUSH20 0xFFFFFFFFFFFFFFFFFFFFFFFFFFFFFFFFFFFFFFFF AND DUP3 PUSH20 0xFFFFFFFFFFFFFFFFFFFFFFFFFFFFFFFFFFFFFFFF AND EQ DUP1 PUSH2 0x10BF JUMPI POP PUSH1 0x3 PUSH0 SWAP1 SLOAD SWAP1 PUSH2 0x100 EXP SWAP1 DIV PUSH20 0xFFFFFFFFFFFFFFFFFFFFFFFFFFFFFFFFFFFFFFFF AND PUSH20 0xFFFFFFFFFFFFFFFFFFFFFFFFFFFFFFFFFFFFFFFF AND DUP3 PUSH20 0xFFFFFFFFFFFFFFFFFFFFFFFFFFFFFFFFFFFFFFFF AND EQ JUMPDEST PUSH2 0x10FE JUMPI PUSH1 0x40 MLOAD PUSH32 0x8C379A000000000000000000000000000000000000000000000000000000000 DUP2 MSTORE PUSH1 0x4 ADD PUSH2 0x10F5 SWAP1 PUSH2 0x170B JUMP JUMPDEST PUSH1 0x40 MLOAD DUP1 SWAP2 SUB SWAP1 REVERT JUMPDEST PUSH0 DUP4 GT PUSH2 0x1140 JUMPI PUSH1 0x40 MLOAD PUSH32 0x8C379A000000000000000000000000000000000000000000000000000000000 DUP2 MSTORE PUSH1 0x4 ADD PUSH2 0x1137 SWAP1 PUSH2 0x18A6 JUMP JUMPDEST PUSH1 0x40 MLOAD DUP1 SWAP2 SUB SWAP1 REVERT JUMPDEST PUSH0 PUSH1 0x4 SLOAD GT DUP1 ISZERO PUSH2 0x1152 JUMPI POP PUSH0 PUSH1 0x5 SLOAD GT JUMPDEST PUSH2 0x1191 JUMPI PUSH1 0x40 MLOAD PUSH32 0x8C379A000000000000000000000000000000000000000000000000000000000 DUP2 MSTORE PUSH1 0x4 ADD PUSH2 0x1188 SWAP1 PUSH2 0x190E JUMP JUMPDEST PUSH1 0x40 MLOAD DUP1 SWAP2 SUB SWAP1 REVERT JUMPDEST PUSH1 0x2 PUSH0 SWAP1 SLOAD SWAP1 PUSH2 0x100 EXP SWAP1 DIV PUSH20 0xFFFFFFFFFFFFFFFFFFFFFFFFFFFFFFFFFFFFFFFF AND PUSH20 0xFFFFFFFFFFFFFFFFFFFFFFFFFFFFFFFFFFFFFFFF AND DUP3 PUSH20 0xFFFFFFFFFFFFFFFFFFFFFFFFFFFFFFFFFFFFFFFF AND SUB PUSH2 0x1212 JUMPI DUP3 PUSH1 0x4 SLOAD PUSH2 0x11F3 SWAP2 SWAP1 PUSH2 0x192C JUMP JUMPDEST DUP4 PUSH1 0x5 SLOAD PUSH2 0x1201 SWAP2 SWAP1 PUSH2 0x17BE JUMP JUMPDEST PUSH2 0x120B SWAP2 SWAP1 PUSH2 0x182C JUMP JUMPDEST SWAP1 POP PUSH2 0x123B JUMP JUMPDEST DUP3 PUSH1 0x5 SLOAD PUSH2 0x1220 SWAP2 SWAP1 PUSH2 0x192C JUMP JUMPDEST DUP4 PUSH1 0x4 SLOAD PUSH2 0x122E SWAP2 SWAP1 PUSH2 0x17BE JUMP JUMPDEST PUSH2 0x1238 SWAP2 SWAP1 PUSH2 0x182C JUMP JUMPDEST SWAP1 POP JUMPDEST SWAP3 SWAP2 POP POP JUMP JUMPDEST PUSH2 0x1249 PUSH2 0x12C5 JUMP JUMPDEST PUSH0 PUSH20 0xFFFFFFFFFFFFFFFFFFFFFFFFFFFFFFFFFFFFFFFF AND DUP2 PUSH20 0xFFFFFFFFFFFFFFFFFFFFFFFFFFFFFFFFFFFFFFFF AND SUB PUSH2 0x12B9 JUMPI PUSH0 PUSH1 0x40 MLOAD PUSH32 0x1E4FBDF700000000000000000000000000000000000000000000000000000000 DUP2 MSTORE PUSH1 0x4 ADD PUSH2 0x12B0 SWAP2 SWAP1 PUSH2 0x161C JUMP JUMPDEST PUSH1 0x40 MLOAD DUP1 SWAP2 SUB SWAP1 REVERT JUMPDEST PUSH2 0x12C2 DUP2 PUSH2 0x134C JUMP JUMPDEST POP JUMP JUMPDEST PUSH2 0x12CD PUSH2 0x145C JUMP JUMPDEST PUSH20 0xFFFFFFFFFFFFFFFFFFFFFFFFFFFFFFFFFFFFFFFF AND PUSH2 0x12EB PUSH2 0x843 JUMP JUMPDEST PUSH20 0xFFFFFFFFFFFFFFFFFFFFFFFFFFFFFFFFFFFFFFFF AND EQ PUSH2 0x134A JUMPI PUSH2 0x130E PUSH2 0x145C JUMP JUMPDEST PUSH1 0x40 MLOAD PUSH32 0x118CDAA700000000000000000000000000000000000000000000000000000000 DUP2 MSTORE PUSH1 0x4 ADD PUSH2 0x1341 SWAP2 SWAP1 PUSH2 0x161C JUMP JUMPDEST PUSH1 0x40 MLOAD DUP1 SWAP2 SUB SWAP1 REVERT JUMPDEST JUMP JUMPDEST PUSH0 PUSH0 PUSH0 SWAP1 SLOAD SWAP1 PUSH2 0x100 EXP SWAP1 DIV PUSH20 0xFFFFFFFFFFFFFFFFFFFFFFFFFFFFFFFFFFFFFFFF AND SWAP1 POP DUP2 PUSH0 PUSH0 PUSH2 0x100 EXP DUP2 SLOAD DUP2 PUSH20 0xFFFFFFFFFFFFFFFFFFFFFFFFFFFFFFFFFFFFFFFF MUL NOT AND SWAP1 DUP4 PUSH20 0xFFFFFFFFFFFFFFFFFFFFFFFFFFFFFFFFFFFFFFFF AND MUL OR SWAP1 SSTORE POP DUP2 PUSH20 0xFFFFFFFFFFFFFFFFFFFFFFFFFFFFFFFFFFFFFFFF AND DUP2 PUSH20 0xFFFFFFFFFFFFFFFFFFFFFFFFFFFFFFFFFFFFFFFF AND PUSH32 0x8BE0079C531659141344CD1FD0A4F28419497F9722A3DAAFE3B4186F6B6457E0 PUSH1 0x40 MLOAD PUSH1 0x40 MLOAD DUP1 SWAP2 SUB SWAP1 LOG3 POP POP JUMP JUMPDEST PUSH1 0x2 PUSH1 0x1 SLOAD SUB PUSH2 0x1449 JUMPI PUSH1 0x40 MLOAD PUSH32 0x3EE5AEB500000000000000000000000000000000000000000000000000000000 DUP2 MSTORE PUSH1 0x4 ADD PUSH1 0x40 MLOAD DUP1 SWAP2 SUB SWAP1 REVERT JUMPDEST PUSH1 0x2 PUSH1 0x1 DUP2 SWAP1 SSTORE POP JUMP JUMPDEST PUSH1 0x1 DUP1 DUP2 SWAP1 SSTORE POP JUMP JUMPDEST PUSH0 CALLER SWAP1 POP SWAP1 JUMP JUMPDEST PUSH0 DUP2 SWAP1 POP SWAP2 SWAP1 POP JUMP JUMPDEST PUSH2 0x1475 DUP2 PUSH2 0x1463 JUMP JUMPDEST DUP3 MSTORE POP POP JUMP JUMPDEST PUSH0 PUSH1 0x40 DUP3 ADD SWAP1 POP PUSH2 0x148E PUSH0 DUP4 ADD DUP6 PUSH2 0x146C JUMP JUMPDEST PUSH2 0x149B PUSH1 0x20 DUP4 ADD DUP5 PUSH2 0x146C JUMP JUMPDEST SWAP4 SWAP3 POP POP POP JUMP JUMPDEST PUSH0 PUSH20 0xFFFFFFFFFFFFFFFFFFFFFFFFFFFFFFFFFFFFFFFF DUP3 AND SWAP1 POP SWAP2 SWAP1 POP JUMP JUMPDEST PUSH0 DUP2 SWAP1 POP SWAP2 SWAP1 POP JUMP JUMPDEST PUSH0 PUSH2 0x14E4 PUSH2 0x14DF PUSH2 0x14DA DUP5 PUSH2 0x14A2 JUMP JUMPDEST PUSH2 0x14C1 JUMP JUMPDEST PUSH2 0x14A2 JUMP JUMPDEST SWAP1 POP SWAP2 SWAP1 POP JUMP JUMPDEST PUSH0 PUSH2 0x14F5 DUP3 PUSH2 0x14CA JUMP JUMPDEST SWAP1 POP SWAP2 SWAP1 POP JUMP JUMPDEST PUSH0 PUSH2 0x1506 DUP3 PUSH2 0x14EB JUMP JUMPDEST SWAP1 POP SWAP2 SWAP1 POP JUMP JUMPDEST PUSH2 0x1516 DUP2 PUSH2 0x14FC JUMP JUMPDEST DUP3 MSTORE POP POP JUMP JUMPDEST PUSH0 PUSH1 0x20 DUP3 ADD SWAP1 POP PUSH2 0x152F PUSH0 DUP4 ADD DUP5 PUSH2 0x150D JUMP JUMPDEST SWAP3 SWAP2 POP POP JUMP JUMPDEST PUSH0 PUSH1 0x20 DUP3 ADD SWAP1 POP PUSH2 0x1548 PUSH0 DUP4 ADD DUP5 PUSH2 0x146C JUMP JUMPDEST SWAP3 SWAP2 POP POP JUMP JUMPDEST PUSH0 PUSH0 REVERT JUMPDEST PUSH0 PUSH2 0x155C DUP3 PUSH2 0x14A2 JUMP JUMPDEST SWAP1 POP SWAP2 SWAP1 POP JUMP JUMPDEST PUSH2 0x156C DUP2 PUSH2 0x1552 JUMP JUMPDEST DUP2 EQ PUSH2 0x1576 JUMPI PUSH0 PUSH0 REVERT JUMPDEST POP JUMP JUMPDEST PUSH0 DUP2 CALLDATALOAD SWAP1 POP PUSH2 0x1587 DUP2 PUSH2 0x1563 JUMP JUMPDEST SWAP3 SWAP2 POP POP JUMP JUMPDEST PUSH0 PUSH1 0x20 DUP3 DUP5 SUB SLT ISZERO PUSH2 0x15A2 JUMPI PUSH2 0x15A1 PUSH2 0x154E JUMP JUMPDEST JUMPDEST PUSH0 PUSH2 0x15AF DUP5 DUP3 DUP6 ADD PUSH2 0x1579 JUMP JUMPDEST SWAP2 POP POP SWAP3 SWAP2 POP POP JUMP JUMPDEST PUSH2 0x15C1 DUP2 PUSH2 0x1463 JUMP JUMPDEST DUP2 EQ PUSH2 0x15CB JUMPI PUSH0 PUSH0 REVERT JUMPDEST POP JUMP JUMPDEST PUSH0 DUP2 CALLDATALOAD SWAP1 POP PUSH2 0x15DC DUP2 PUSH2 0x15B8 JUMP JUMPDEST SWAP3 SWAP2 POP POP JUMP JUMPDEST PUSH0 PUSH1 0x20 DUP3 DUP5 SUB SLT ISZERO PUSH2 0x15F7 JUMPI PUSH2 0x15F6 PUSH2 0x154E JUMP JUMPDEST JUMPDEST PUSH0 PUSH2 0x1604 DUP5 DUP3 DUP6 ADD PUSH2 0x15CE JUMP JUMPDEST SWAP2 POP POP SWAP3 SWAP2 POP POP JUMP JUMPDEST PUSH2 0x1616 DUP2 PUSH2 0x1552 JUMP JUMPDEST DUP3 MSTORE POP POP JUMP JUMPDEST PUSH0 PUSH1 0x20 DUP3 ADD SWAP1 POP PUSH2 0x162F PUSH0 DUP4 ADD DUP5 PUSH2 0x160D JUMP JUMPDEST SWAP3 SWAP2 POP POP JUMP JUMPDEST PUSH0 PUSH0 PUSH1 0x40 DUP4 DUP6 SUB SLT ISZERO PUSH2 0x164B JUMPI PUSH2 0x164A PUSH2 0x154E JUMP JUMPDEST JUMPDEST PUSH0 PUSH2 0x1658 DUP6 DUP3 DUP7 ADD PUSH2 0x15CE JUMP JUMPDEST SWAP3 POP POP PUSH1 0x20 PUSH2 0x1669 DUP6 DUP3 DUP7 ADD PUSH2 0x15CE JUMP JUMPDEST SWAP2 POP POP SWAP3 POP SWAP3 SWAP1 POP JUMP JUMPDEST PUSH0 PUSH0 PUSH1 0x40 DUP4 DUP6 SUB SLT ISZERO PUSH2 0x1689 JUMPI PUSH2 0x1688 PUSH2 0x154E JUMP JUMPDEST JUMPDEST PUSH0 PUSH2 0x1696 DUP6 DUP3 DUP7 ADD PUSH2 0x15CE JUMP JUMPDEST SWAP3 POP POP PUSH1 0x20 PUSH2 0x16A7 DUP6 DUP3 DUP7 ADD PUSH2 0x1579 JUMP JUMPDEST SWAP2 POP POP SWAP3 POP SWAP3 SWAP1 POP JUMP JUMPDEST PUSH0 DUP3 DUP3 MSTORE PUSH1 0x20 DUP3 ADD SWAP1 POP SWAP3 SWAP2 POP POP JUMP JUMPDEST PUSH32 0x496E76616C696420746F6B656E00000000000000000000000000000000000000 PUSH0 DUP3 ADD MSTORE POP JUMP JUMPDEST PUSH0 PUSH2 0x16F5 PUSH1 0xD DUP4 PUSH2 0x16B1 JUMP JUMPDEST SWAP2 POP PUSH2 0x1700 DUP3 PUSH2 0x16C1 JUMP JUMPDEST PUSH1 0x20 DUP3 ADD SWAP1 POP SWAP2 SWAP1 POP JUMP JUMPDEST PUSH0 PUSH1 0x20 DUP3 ADD SWAP1 POP DUP2 DUP2 SUB PUSH0 DUP4 ADD MSTORE PUSH2 0x1722 DUP2 PUSH2 0x16E9 JUMP JUMPDEST SWAP1 POP SWAP2 SWAP1 POP JUMP JUMPDEST PUSH32 0x4E6F206C69717569646974790000000000000000000000000000000000000000 PUSH0 DUP3 ADD MSTORE POP JUMP JUMPDEST PUSH0 PUSH2 0x175D PUSH1 0xC DUP4 PUSH2 0x16B1 JUMP JUMPDEST SWAP2 POP PUSH2 0x1768 DUP3 PUSH2 0x1729 JUMP JUMPDEST PUSH1 0x20 DUP3 ADD SWAP1 POP SWAP2 SWAP1 POP JUMP JUMPDEST PUSH0 PUSH1 0x20 DUP3 ADD SWAP1 POP DUP2 DUP2 SUB PUSH0 DUP4 ADD MSTORE PUSH2 0x178A DUP2 PUSH2 0x1751 JUMP JUMPDEST SWAP1 POP SWAP2 SWAP1 POP JUMP JUMPDEST PUSH32 0x4E487B7100000000000000000000000000000000000000000000000000000000 PUSH0 MSTORE PUSH1 0x11 PUSH1 0x4 MSTORE PUSH1 0x24 PUSH0 REVERT JUMPDEST PUSH0 PUSH2 0x17C8 DUP3 PUSH2 0x1463 JUMP JUMPDEST SWAP2 POP PUSH2 0x17D3 DUP4 PUSH2 0x1463 JUMP JUMPDEST SWAP3 POP DUP3 DUP3 MUL PUSH2 0x17E1 DUP2 PUSH2 0x1463 JUMP JUMPDEST SWAP2 POP DUP3 DUP3 DIV DUP5 EQ DUP4 ISZERO OR PUSH2 0x17F8 JUMPI PUSH2 0x17F7 PUSH2 0x1791 JUMP JUMPDEST JUMPDEST POP SWAP3 SWAP2 POP POP JUMP JUMPDEST PUSH32 0x4E487B7100000000000000000000000000000000000000000000000000000000 PUSH0 MSTORE PUSH1 0x12 PUSH1 0x4 MSTORE PUSH1 0x24 PUSH0 REVERT JUMPDEST PUSH0 PUSH2 0x1836 DUP3 PUSH2 0x1463 JUMP JUMPDEST SWAP2 POP PUSH2 0x1841 DUP4 PUSH2 0x1463 JUMP JUMPDEST SWAP3 POP DUP3 PUSH2 0x1851 JUMPI PUSH2 0x1850 PUSH2 0x17FF JUMP JUMPDEST JUMPDEST DUP3 DUP3 DIV SWAP1 POP SWAP3 SWAP2 POP POP JUMP JUMPDEST PUSH32 0x416D6F756E74206D7573742062652067726561746572207468616E207A65726F PUSH0 DUP3 ADD MSTORE POP JUMP JUMPDEST PUSH0 PUSH2 0x1890 PUSH1 0x20 DUP4 PUSH2 0x16B1 JUMP JUMPDEST SWAP2 POP PUSH2 0x189B DUP3 PUSH2 0x185C JUMP JUMPDEST PUSH1 0x20 DUP3 ADD SWAP1 POP SWAP2 SWAP1 POP JUMP JUMPDEST PUSH0 PUSH1 0x20 DUP3 ADD SWAP1 POP DUP2 DUP2 SUB PUSH0 DUP4 ADD MSTORE PUSH2 0x18BD DUP2 PUSH2 0x1884 JUMP JUMPDEST SWAP1 POP SWAP2 SWAP1 POP JUMP JUMPDEST PUSH32 0x496E73756666696369656E74206C697175696469747900000000000000000000 PUSH0 DUP3 ADD MSTORE POP JUMP JUMPDEST PUSH0 PUSH2 0x18F8 PUSH1 0x16 DUP4 PUSH2 0x16B1 JUMP JUMPDEST SWAP2 POP PUSH2 0x1903 DUP3 PUSH2 0x18C4 JUMP JUMPDEST PUSH1 0x20 DUP3 ADD SWAP1 POP SWAP2 SWAP1 POP JUMP JUMPDEST PUSH0 PUSH1 0x20 DUP3 ADD SWAP1 POP DUP2 DUP2 SUB PUSH0 DUP4 ADD MSTORE PUSH2 0x1925 DUP2 PUSH2 0x18EC JUMP JUMPDEST SWAP1 POP SWAP2 SWAP1 POP JUMP JUMPDEST PUSH0 PUSH2 0x1936 DUP3 PUSH2 0x1463 JUMP JUMPDEST SWAP2 POP PUSH2 0x1941 DUP4 PUSH2 0x1463 JUMP JUMPDEST SWAP3 POP DUP3 DUP3 ADD SWAP1 POP DUP1 DUP3 GT ISZERO PUSH2 0x1959 JUMPI PUSH2 0x1958 PUSH2 0x1791 JUMP JUMPDEST JUMPDEST SWAP3 SWAP2 POP POP JUMP JUMPDEST PUSH32 0x496E73756666696369656E74206F757470757420616D6F756E74000000000000 PUSH0 DUP3 ADD MSTORE POP JUMP JUMPDEST PUSH0 PUSH2 0x1993 PUSH1 0x1A DUP4 PUSH2 0x16B1 JUMP JUMPDEST SWAP2 POP PUSH2 0x199E DUP3 PUSH2 0x195F JUMP JUMPDEST PUSH1 0x20 DUP3 ADD SWAP1 POP SWAP2 SWAP1 POP JUMP JUMPDEST PUSH0 PUSH1 0x20 DUP3 ADD SWAP1 POP DUP2 DUP2 SUB PUSH0 DUP4 ADD MSTORE PUSH2 0x19C0 DUP2 PUSH2 0x1987 JUMP JUMPDEST SWAP1 POP SWAP2 SWAP1 POP JUMP JUMPDEST PUSH0 PUSH1 0x60 DUP3 ADD SWAP1 POP PUSH2 0x19DA PUSH0 DUP4 ADD DUP7 PUSH2 0x160D JUMP JUMPDEST PUSH2 0x19E7 PUSH1 0x20 DUP4 ADD DUP6 PUSH2 0x160D JUMP JUMPDEST PUSH2 0x19F4 PUSH1 0x40 DUP4 ADD DUP5 PUSH2 0x146C JUMP JUMPDEST SWAP5 SWAP4 POP POP POP POP JUMP JUMPDEST PUSH0 DUP2 ISZERO ISZERO SWAP1 POP SWAP2 SWAP1 POP JUMP JUMPDEST PUSH2 0x1A10 DUP2 PUSH2 0x19FC JUMP JUMPDEST DUP2 EQ PUSH2 0x1A1A JUMPI PUSH0 PUSH0 REVERT JUMPDEST POP JUMP JUMPDEST PUSH0 DUP2 MLOAD SWAP1 POP PUSH2 0x1A2B DUP2 PUSH2 0x1A07 JUMP JUMPDEST SWAP3 SWAP2 POP POP JUMP JUMPDEST PUSH0 PUSH1 0x20 DUP3 DUP5 SUB SLT ISZERO PUSH2 0x1A46 JUMPI PUSH2 0x1A45 PUSH2 0x154E JUMP JUMPDEST JUMPDEST PUSH0 PUSH2 0x1A53 DUP5 DUP3 DUP6 ADD PUSH2 0x1A1D JUMP JUMPDEST SWAP2 POP POP SWAP3 SWAP2 POP POP JUMP JUMPDEST PUSH0 PUSH1 0x40 DUP3 ADD SWAP1 POP PUSH2 0x1A6F PUSH0 DUP4 ADD DUP6 PUSH2 0x160D JUMP JUMPDEST PUSH2 0x1A7C PUSH1 0x20 DUP4 ADD DUP5 PUSH2 0x146C JUMP JUMPDEST SWAP4 SWAP3 POP POP POP JUMP JUMPDEST PUSH0 PUSH2 0x1A8D DUP3 PUSH2 0x1463 JUMP JUMPDEST SWAP2 POP PUSH2 0x1A98 DUP4 PUSH2 0x1463 JUMP JUMPDEST SWAP3 POP DUP3 DUP3 SUB SWAP1 POP DUP2 DUP2 GT ISZERO PUSH2 0x1AB0 JUMPI PUSH2 0x1AAF PUSH2 0x1791 JUMP JUMPDEST JUMPDEST SWAP3 SWAP2 POP POP JUMP JUMPDEST PUSH0 PUSH1 0x80 DUP3 ADD SWAP1 POP PUSH2 0x1AC9 PUSH0 DUP4 ADD DUP8 PUSH2 0x160D JUMP JUMPDEST PUSH2 0x1AD6 PUSH1 0x20 DUP4 ADD DUP7 PUSH2 0x160D JUMP JUMPDEST PUSH2 0x1AE3 PUSH1 0x40 DUP4 ADD DUP6 PUSH2 0x146C JUMP JUMPDEST PUSH2 0x1AF0 PUSH1 0x60 DUP4 ADD DUP5 PUSH2 0x146C JUMP JUMPDEST SWAP6 SWAP5 POP POP POP POP POP JUMP JUMPDEST PUSH32 0x416D6F756E7473206D7573742062652067726561746572207468616E207A6572 PUSH0 DUP3 ADD MSTORE PUSH32 0x6F00000000000000000000000000000000000000000000000000000000000000 PUSH1 0x20 DUP3 ADD MSTORE POP JUMP JUMPDEST PUSH0 PUSH2 0x1B53 PUSH1 0x21 DUP4 PUSH2 0x16B1 JUMP JUMPDEST SWAP2 POP PUSH2 0x1B5E DUP3 PUSH2 0x1AF9 JUMP JUMPDEST PUSH1 0x40 DUP3 ADD SWAP1 POP SWAP2 SWAP1 POP JUMP JUMPDEST PUSH0 PUSH1 0x20 DUP3 ADD SWAP1 POP DUP2 DUP2 SUB PUSH0 DUP4 ADD MSTORE PUSH2 0x1B80 DUP2 PUSH2 0x1B47 JUMP JUMPDEST SWAP1 POP SWAP2 SWAP1 POP JUMP INVALID LOG2 PUSH5 0x6970667358 0x22 SLT KECCAK256 PUSH17 0x9F4E950518DF80153AA957D5F9C0F2371B 0xDF 0xB6 GT PUSH1 0x6C PUSH22 0x6844A5ADD653D15764736F6C634300081E0033000000 "
				},
				"gasEstimates": {
					"creation": {
						"codeDepositCost": "1420200",
						"executionCost": "infinite",
						"totalCost": "infinite"
					},
					"external": {
						"addLiquidity(uint256,uint256)": "infinite",
						"getAmountOut(uint256,address)": "infinite",
						"getPrice(address)": "infinite",
						"getReserves()": "infinite",
						"owner()": "2537",
						"removeLiquidity(uint256,uint256)": "infinite",
						"renounceOwnership()": "infinite",
						"reserveA()": "2447",
						"reserveB()": "2493",
						"swapAforB(uint256)": "infinite",
						"swapBforA(uint256)": "infinite",
						"tokenA()": "infinite",
						"tokenB()": "infinite",
						"transferOwnership(address)": "infinite"
					}
				},
				"methodIdentifiers": {
					"addLiquidity(uint256,uint256)": "9cd441da",
					"getAmountOut(uint256,address)": "f140a35a",
					"getPrice(address)": "41976e09",
					"getReserves()": "0902f1ac",
					"owner()": "8da5cb5b",
					"removeLiquidity(uint256,uint256)": "9d7de6b3",
					"renounceOwnership()": "715018a6",
					"reserveA()": "dc5fa6c5",
					"reserveB()": "19e36f3b",
					"swapAforB(uint256)": "e4f1f70a",
					"swapBforA(uint256)": "8014a7aa",
					"tokenA()": "0fc63d10",
					"tokenB()": "5f64b55b",
					"transferOwnership(address)": "f2fde38b"
				}
			},
			"storageLayout": {
				"storage": [
					{
						"astId": 8,
						"contract": "contracts/SimpleDEX.sol:SimpleDEX",
						"label": "_owner",
						"offset": 0,
						"slot": "0",
						"type": "t_address"
					},
					{
						"astId": 266,
						"contract": "contracts/SimpleDEX.sol:SimpleDEX",
						"label": "_status",
						"offset": 0,
						"slot": "1",
						"type": "t_uint256"
					},
					{
						"astId": 336,
						"contract": "contracts/SimpleDEX.sol:SimpleDEX",
						"label": "tokenA",
						"offset": 0,
						"slot": "2",
						"type": "t_contract(IERC20)225"
					},
					{
						"astId": 339,
						"contract": "contracts/SimpleDEX.sol:SimpleDEX",
						"label": "tokenB",
						"offset": 0,
						"slot": "3",
						"type": "t_contract(IERC20)225"
					},
					{
						"astId": 341,
						"contract": "contracts/SimpleDEX.sol:SimpleDEX",
						"label": "reserveA",
						"offset": 0,
						"slot": "4",
						"type": "t_uint256"
					},
					{
						"astId": 343,
						"contract": "contracts/SimpleDEX.sol:SimpleDEX",
						"label": "reserveB",
						"offset": 0,
						"slot": "5",
						"type": "t_uint256"
					}
				],
				"types": {
					"t_address": {
						"encoding": "inplace",
						"label": "address",
						"numberOfBytes": "20"
					},
					"t_contract(IERC20)225": {
						"encoding": "inplace",
						"label": "contract IERC20",
						"numberOfBytes": "20"
					},
					"t_uint256": {
						"encoding": "inplace",
						"label": "uint256",
						"numberOfBytes": "32"
					}
				}
			},
			"userdoc": {
				"kind": "user",
				"methods": {},
				"version": 1
			}
		}
	}
}